{
	"MyToken.sol": {
		"MyToken": {
			"abi": [
				{
					"inputs": [
						{
							"internalType": "uint256",
							"name": "initialSupply",
							"type": "uint256"
						}
					],
					"stateMutability": "nonpayable",
					"type": "constructor"
				},
				{
					"anonymous": false,
					"inputs": [
						{
							"indexed": true,
							"internalType": "address",
							"name": "owner",
							"type": "address"
						},
						{
							"indexed": true,
							"internalType": "address",
							"name": "spender",
							"type": "address"
						},
						{
							"indexed": false,
							"internalType": "uint256",
							"name": "value",
							"type": "uint256"
						}
					],
					"name": "Approval",
					"type": "event"
				},
				{
					"anonymous": false,
					"inputs": [
						{
							"indexed": true,
							"internalType": "address",
							"name": "sender",
							"type": "address"
						},
						{
							"indexed": false,
							"internalType": "string",
							"name": "message",
							"type": "string"
						}
					],
					"name": "MessageSent",
					"type": "event"
				},
				{
					"anonymous": false,
					"inputs": [
						{
							"indexed": true,
							"internalType": "address",
							"name": "from",
							"type": "address"
						},
						{
							"indexed": true,
							"internalType": "address",
							"name": "to",
							"type": "address"
						},
						{
							"indexed": false,
							"internalType": "uint256",
							"name": "value",
							"type": "uint256"
						},
						{
							"indexed": false,
							"internalType": "string",
							"name": "message",
							"type": "string"
						}
					],
					"name": "Transfer",
					"type": "event"
				},
				{
					"anonymous": false,
					"inputs": [
						{
							"indexed": true,
							"internalType": "address",
							"name": "from",
							"type": "address"
						},
						{
							"indexed": true,
							"internalType": "address",
							"name": "to",
							"type": "address"
						},
						{
							"indexed": false,
							"internalType": "uint256",
							"name": "value",
							"type": "uint256"
						},
						{
							"indexed": false,
							"internalType": "string",
							"name": "message",
							"type": "string"
						}
					],
					"name": "TransferWithMessageEvent",
					"type": "event"
				},
				{
					"inputs": [
						{
							"internalType": "address",
							"name": "",
							"type": "address"
						},
						{
							"internalType": "address",
							"name": "",
							"type": "address"
						}
					],
					"name": "allowance",
					"outputs": [
						{
							"internalType": "uint256",
							"name": "",
							"type": "uint256"
						}
					],
					"stateMutability": "view",
					"type": "function"
				},
				{
					"inputs": [
						{
							"internalType": "address",
							"name": "spender",
							"type": "address"
						},
						{
							"internalType": "uint256",
							"name": "amount",
							"type": "uint256"
						}
					],
					"name": "approve",
					"outputs": [
						{
							"internalType": "bool",
							"name": "",
							"type": "bool"
						}
					],
					"stateMutability": "nonpayable",
					"type": "function"
				},
				{
					"inputs": [
						{
							"internalType": "address",
							"name": "",
							"type": "address"
						}
					],
					"name": "balanceOf",
					"outputs": [
						{
							"internalType": "uint256",
							"name": "",
							"type": "uint256"
						}
					],
					"stateMutability": "view",
					"type": "function"
				},
				{
					"inputs": [],
					"name": "decimals",
					"outputs": [
						{
							"internalType": "uint8",
							"name": "",
							"type": "uint8"
						}
					],
					"stateMutability": "view",
					"type": "function"
				},
				{
					"inputs": [],
					"name": "getLastMessage",
					"outputs": [
						{
							"internalType": "string",
							"name": "",
							"type": "string"
						}
					],
					"stateMutability": "view",
					"type": "function"
				},
				{
					"inputs": [],
					"name": "getLastMessageAndTransfer",
					"outputs": [
						{
							"internalType": "string",
							"name": "lastMsg",
							"type": "string"
						},
						{
							"internalType": "address",
							"name": "sender",
							"type": "address"
						},
						{
							"internalType": "address",
							"name": "recipient",
							"type": "address"
						},
						{
							"internalType": "uint256",
							"name": "amount",
							"type": "uint256"
						},
						{
							"internalType": "string",
							"name": "transferMessage",
							"type": "string"
						},
						{
							"internalType": "uint256",
							"name": "timestamp",
							"type": "uint256"
						}
					],
					"stateMutability": "view",
					"type": "function"
				},
				{
					"inputs": [],
					"name": "getLastTransferWithMessage",
					"outputs": [
						{
							"internalType": "address",
							"name": "from",
							"type": "address"
						},
						{
							"internalType": "address",
							"name": "to",
							"type": "address"
						},
						{
							"internalType": "uint256",
							"name": "amount",
							"type": "uint256"
						},
						{
							"internalType": "string",
							"name": "message",
							"type": "string"
						},
						{
							"internalType": "uint256",
							"name": "timestamp",
							"type": "uint256"
						}
					],
					"stateMutability": "view",
					"type": "function"
				},
				{
					"inputs": [],
					"name": "getTransferHistoryCount",
					"outputs": [
						{
							"internalType": "uint256",
							"name": "",
							"type": "uint256"
						}
					],
					"stateMutability": "view",
					"type": "function"
				},
				{
					"inputs": [
						{
							"internalType": "uint256",
							"name": "index",
							"type": "uint256"
						}
					],
					"name": "getTransferWithMessage",
					"outputs": [
						{
							"internalType": "address",
							"name": "from",
							"type": "address"
						},
						{
							"internalType": "address",
							"name": "to",
							"type": "address"
						},
						{
							"internalType": "uint256",
							"name": "amount",
							"type": "uint256"
						},
						{
							"internalType": "string",
							"name": "message",
							"type": "string"
						},
						{
							"internalType": "uint256",
							"name": "timestamp",
							"type": "uint256"
						}
					],
					"stateMutability": "view",
					"type": "function"
				},
				{
					"inputs": [],
					"name": "name",
					"outputs": [
						{
							"internalType": "string",
							"name": "",
							"type": "string"
						}
					],
					"stateMutability": "view",
					"type": "function"
				},
				{
					"inputs": [],
					"name": "owner",
					"outputs": [
						{
							"internalType": "address",
							"name": "",
							"type": "address"
						}
					],
					"stateMutability": "view",
					"type": "function"
				},
				{
					"inputs": [
						{
							"internalType": "string",
							"name": "_message",
							"type": "string"
						}
					],
					"name": "sendMessage",
					"outputs": [],
					"stateMutability": "nonpayable",
					"type": "function"
				},
				{
					"inputs": [],
					"name": "symbol",
					"outputs": [
						{
							"internalType": "string",
							"name": "",
							"type": "string"
						}
					],
					"stateMutability": "view",
					"type": "function"
				},
				{
					"inputs": [],
					"name": "totalSupply",
					"outputs": [
						{
							"internalType": "uint256",
							"name": "",
							"type": "uint256"
						}
					],
					"stateMutability": "view",
					"type": "function"
				},
				{
					"inputs": [
						{
							"internalType": "address",
							"name": "to",
							"type": "address"
						},
						{
							"internalType": "uint256",
							"name": "amount",
							"type": "uint256"
						}
					],
					"name": "transfer",
					"outputs": [
						{
							"internalType": "bool",
							"name": "",
							"type": "bool"
						}
					],
					"stateMutability": "nonpayable",
					"type": "function"
				},
				{
					"inputs": [
						{
							"internalType": "address",
							"name": "from",
							"type": "address"
						},
						{
							"internalType": "address",
							"name": "to",
							"type": "address"
						},
						{
							"internalType": "uint256",
							"name": "amount",
							"type": "uint256"
						}
					],
					"name": "transferFrom",
					"outputs": [
						{
							"internalType": "bool",
							"name": "",
							"type": "bool"
						}
					],
					"stateMutability": "nonpayable",
					"type": "function"
				},
				{
					"inputs": [
						{
							"internalType": "address",
							"name": "from",
							"type": "address"
						},
						{
							"internalType": "address",
							"name": "to",
							"type": "address"
						},
						{
							"internalType": "uint256",
							"name": "amount",
							"type": "uint256"
						},
						{
							"internalType": "string",
							"name": "_message",
							"type": "string"
						}
					],
					"name": "transferFromWithMessage",
					"outputs": [
						{
							"internalType": "bool",
							"name": "",
							"type": "bool"
						}
					],
					"stateMutability": "nonpayable",
					"type": "function"
				},
				{
					"inputs": [
						{
							"internalType": "uint256",
							"name": "",
							"type": "uint256"
						}
					],
					"name": "transferHistory",
					"outputs": [
						{
							"internalType": "address",
							"name": "from",
							"type": "address"
						},
						{
							"internalType": "address",
							"name": "to",
							"type": "address"
						},
						{
							"internalType": "uint256",
							"name": "amount",
							"type": "uint256"
						},
						{
							"internalType": "string",
							"name": "message",
							"type": "string"
						},
						{
							"internalType": "uint256",
							"name": "timestamp",
							"type": "uint256"
						}
					],
					"stateMutability": "view",
					"type": "function"
				},
				{
					"inputs": [
						{
							"internalType": "address",
							"name": "to",
							"type": "address"
						},
						{
							"internalType": "uint256",
							"name": "amount",
							"type": "uint256"
						},
						{
							"internalType": "string",
							"name": "_message",
							"type": "string"
						}
					],
					"name": "transferWithMessage",
					"outputs": [
						{
							"internalType": "bool",
							"name": "",
							"type": "bool"
						}
					],
					"stateMutability": "nonpayable",
					"type": "function"
				}
			],
			"devdoc": {
				"kind": "dev",
				"methods": {},
				"version": 1
			},
			"evm": {
				"assembly": "    /* \"MyToken.sol\":60:6987  contract MyToken {... */\n  mstore(0x40, 0x80)\n    /* \"MyToken.sol\":84:117  string public name = \"LearnToken\" */\n  mload(0x40)\n  dup1\n  0x40\n  add\n  0x40\n  mstore\n  dup1\n  0x0a\n  dup2\n  mstore\n  0x20\n  add\n  0x4c6561726e546f6b656e00000000000000000000000000000000000000000000\n  dup2\n  mstore\n  pop\n  0x00\n  swap1\n  dup2\n  tag_1\n  swap2\n  swap1\n  tag_2\n  jump\t// in\ntag_1:\n  pop\n    /* \"MyToken.sol\":124:151  string public symbol = \"LR\" */\n  mload(0x40)\n  dup1\n  0x40\n  add\n  0x40\n  mstore\n  dup1\n  0x02\n  dup2\n  mstore\n  0x20\n  add\n  0x4c52000000000000000000000000000000000000000000000000000000000000\n  dup2\n  mstore\n  pop\n  0x01\n  swap1\n  dup2\n  tag_3\n  swap2\n  swap1\n  tag_2\n  jump\t// in\ntag_3:\n  pop\n    /* \"MyToken.sol\":182:184  18 */\n  0x12\n    /* \"MyToken.sol\":158:184  uint8 public decimals = 18 */\n  0x02\n  exp(0x0100, 0x00)\n  dup2\n  sload\n  dup2\n  0xff\n  mul\n  not\n  and\n  swap1\n  dup4\n  0xff\n  and\n  mul\n  or\n  swap1\n  sstore\n  pop\n    /* \"MyToken.sol\":1522:1785  constructor(uint256 initialSupply) {... */\n  callvalue\n  dup1\n  iszero\n  tag_4\n  jumpi\n  0x00\n  dup1\n  revert\ntag_4:\n  pop\n  mload(0x40)\n  sub(codesize, bytecodeSize)\n  dup1\n  bytecodeSize\n  dup4\n  codecopy\n  dup2\n  dup2\n  add\n  0x40\n  mstore\n  dup2\n  add\n  swap1\n  tag_5\n  swap2\n  swap1\n  tag_6\n  jump\t// in\ntag_5:\n    /* \"MyToken.sol\":1613:1621  decimals */\n  0x02\n  0x00\n  swap1\n  sload\n  swap1\n  0x0100\n  exp\n  swap1\n  div\n  0xff\n  and\n    /* \"MyToken.sol\":1605:1622  uint256(decimals) */\n  0xff\n  and\n    /* \"MyToken.sol\":1599:1601  10 */\n  0x0a\n    /* \"MyToken.sol\":1599:1622  10 ** uint256(decimals) */\n  tag_9\n  swap2\n  swap1\n  tag_10\n  jump\t// in\ntag_9:\n    /* \"MyToken.sol\":1582:1595  initialSupply */\n  dup2\n    /* \"MyToken.sol\":1582:1623  initialSupply * (10 ** uint256(decimals)) */\n  tag_11\n  swap2\n  swap1\n  tag_12\n  jump\t// in\ntag_11:\n    /* \"MyToken.sol\":1568:1579  totalSupply */\n  0x03\n    /* \"MyToken.sol\":1568:1623  totalSupply = initialSupply * (10 ** uint256(decimals)) */\n  dup2\n  swap1\n  sstore\n  pop\n    /* \"MyToken.sol\":1658:1669  totalSupply */\n  sload(0x03)\n    /* \"MyToken.sol\":1634:1643  balanceOf */\n  0x0c\n    /* \"MyToken.sol\":1634:1655  balanceOf[msg.sender] */\n  0x00\n    /* \"MyToken.sol\":1644:1654  msg.sender */\n  caller\n    /* \"MyToken.sol\":1634:1655  balanceOf[msg.sender] */\n  0xffffffffffffffffffffffffffffffffffffffff\n  and\n  0xffffffffffffffffffffffffffffffffffffffff\n  and\n  dup2\n  mstore\n  0x20\n  add\n  swap1\n  dup2\n  mstore\n  0x20\n  add\n  0x00\n  keccak256\n    /* \"MyToken.sol\":1634:1669  balanceOf[msg.sender] = totalSupply */\n  dup2\n  swap1\n  sstore\n  pop\n    /* \"MyToken.sol\":1706:1716  msg.sender */\n  caller\n    /* \"MyToken.sol\":1685:1748  Transfer(msg.sender, msg.sender, totalSupply, \"Initial supply\") */\n  0xffffffffffffffffffffffffffffffffffffffff\n  and\n    /* \"MyToken.sol\":1694:1704  msg.sender */\n  caller\n    /* \"MyToken.sol\":1685:1748  Transfer(msg.sender, msg.sender, totalSupply, \"Initial supply\") */\n  0xffffffffffffffffffffffffffffffffffffffff\n  and\n  0xcd6e659e4c2e75c3bfe47fecaccf39aeb368116a0ee52afb532e07f6cba6c0d1\n    /* \"MyToken.sol\":1718:1729  totalSupply */\n  sload(0x03)\n    /* \"MyToken.sol\":1685:1748  Transfer(msg.sender, msg.sender, totalSupply, \"Initial supply\") */\n  mload(0x40)\n  tag_13\n  swap2\n  swap1\n  tag_14\n  jump\t// in\ntag_13:\n  mload(0x40)\n  dup1\n  swap2\n  sub\n  swap1\n  log3\n    /* \"MyToken.sol\":1767:1777  msg.sender */\n  caller\n    /* \"MyToken.sol\":1759:1764  owner */\n  0x04\n  0x00\n    /* \"MyToken.sol\":1759:1777  owner = msg.sender */\n  0x0100\n  exp\n  dup2\n  sload\n  dup2\n  0xffffffffffffffffffffffffffffffffffffffff\n  mul\n  not\n  and\n  swap1\n  dup4\n  0xffffffffffffffffffffffffffffffffffffffff\n  and\n  mul\n  or\n  swap1\n  sstore\n  pop\n    /* \"MyToken.sol\":1522:1785  constructor(uint256 initialSupply) {... */\n  pop\n    /* \"MyToken.sol\":60:6987  contract MyToken {... */\n  jump(tag_15)\n    /* \"#utility.yul\":7:106   */\ntag_16:\n    /* \"#utility.yul\":59:65   */\n  0x00\n    /* \"#utility.yul\":93:98   */\n  dup2\n    /* \"#utility.yul\":87:99   */\n  mload\n    /* \"#utility.yul\":77:99   */\n  swap1\n  pop\n    /* \"#utility.yul\":7:106   */\n  swap2\n  swap1\n  pop\n  jump\t// out\n    /* \"#utility.yul\":112:292   */\ntag_17:\n    /* \"#utility.yul\":160:237   */\n  0x4e487b7100000000000000000000000000000000000000000000000000000000\n    /* \"#utility.yul\":157:158   */\n  0x00\n    /* \"#utility.yul\":150:238   */\n  mstore\n    /* \"#utility.yul\":257:261   */\n  0x41\n    /* \"#utility.yul\":254:255   */\n  0x04\n    /* \"#utility.yul\":247:262   */\n  mstore\n    /* \"#utility.yul\":281:285   */\n  0x24\n    /* \"#utility.yul\":278:279   */\n  0x00\n    /* \"#utility.yul\":271:286   */\n  revert\n    /* \"#utility.yul\":298:478   */\ntag_18:\n    /* \"#utility.yul\":346:423   */\n  0x4e487b7100000000000000000000000000000000000000000000000000000000\n    /* \"#utility.yul\":343:344   */\n  0x00\n    /* \"#utility.yul\":336:424   */\n  mstore\n    /* \"#utility.yul\":443:447   */\n  0x22\n    /* \"#utility.yul\":440:441   */\n  0x04\n    /* \"#utility.yul\":433:448   */\n  mstore\n    /* \"#utility.yul\":467:471   */\n  0x24\n    /* \"#utility.yul\":464:465   */\n  0x00\n    /* \"#utility.yul\":457:472   */\n  revert\n    /* \"#utility.yul\":484:804   */\ntag_19:\n    /* \"#utility.yul\":528:534   */\n  0x00\n    /* \"#utility.yul\":565:566   */\n  0x02\n    /* \"#utility.yul\":559:563   */\n  dup3\n    /* \"#utility.yul\":555:567   */\n  div\n    /* \"#utility.yul\":545:567   */\n  swap1\n  pop\n    /* \"#utility.yul\":612:613   */\n  0x01\n    /* \"#utility.yul\":606:610   */\n  dup3\n    /* \"#utility.yul\":602:614   */\n  and\n    /* \"#utility.yul\":633:651   */\n  dup1\n    /* \"#utility.yul\":623:704   */\n  tag_54\n  jumpi\n    /* \"#utility.yul\":689:693   */\n  0x7f\n    /* \"#utility.yul\":681:687   */\n  dup3\n    /* \"#utility.yul\":677:694   */\n  and\n    /* \"#utility.yul\":667:694   */\n  swap2\n  pop\n    /* \"#utility.yul\":623:704   */\ntag_54:\n    /* \"#utility.yul\":751:753   */\n  0x20\n    /* \"#utility.yul\":743:749   */\n  dup3\n    /* \"#utility.yul\":740:754   */\n  lt\n    /* \"#utility.yul\":720:738   */\n  dup2\n    /* \"#utility.yul\":717:755   */\n  sub\n    /* \"#utility.yul\":714:798   */\n  tag_55\n  jumpi\n    /* \"#utility.yul\":770:788   */\n  tag_56\n  tag_18\n  jump\t// in\ntag_56:\n    /* \"#utility.yul\":714:798   */\ntag_55:\n    /* \"#utility.yul\":535:804   */\n  pop\n    /* \"#utility.yul\":484:804   */\n  swap2\n  swap1\n  pop\n  jump\t// out\n    /* \"#utility.yul\":810:951   */\ntag_20:\n    /* \"#utility.yul\":859:863   */\n  0x00\n    /* \"#utility.yul\":882:885   */\n  dup2\n    /* \"#utility.yul\":874:885   */\n  swap1\n  pop\n    /* \"#utility.yul\":905:908   */\n  dup2\n    /* \"#utility.yul\":902:903   */\n  0x00\n    /* \"#utility.yul\":895:909   */\n  mstore\n    /* \"#utility.yul\":939:943   */\n  0x20\n    /* \"#utility.yul\":936:937   */\n  0x00\n    /* \"#utility.yul\":926:944   */\n  keccak256\n    /* \"#utility.yul\":918:944   */\n  swap1\n  pop\n    /* \"#utility.yul\":810:951   */\n  swap2\n  swap1\n  pop\n  jump\t// out\n    /* \"#utility.yul\":957:1050   */\ntag_21:\n    /* \"#utility.yul\":994:1000   */\n  0x00\n    /* \"#utility.yul\":1041:1043   */\n  0x20\n    /* \"#utility.yul\":1036:1038   */\n  0x1f\n    /* \"#utility.yul\":1029:1034   */\n  dup4\n    /* \"#utility.yul\":1025:1039   */\n  add\n    /* \"#utility.yul\":1021:1044   */\n  div\n    /* \"#utility.yul\":1011:1044   */\n  swap1\n  pop\n    /* \"#utility.yul\":957:1050   */\n  swap2\n  swap1\n  pop\n  jump\t// out\n    /* \"#utility.yul\":1056:1163   */\ntag_22:\n    /* \"#utility.yul\":1100:1108   */\n  0x00\n    /* \"#utility.yul\":1150:1155   */\n  dup3\n    /* \"#utility.yul\":1144:1148   */\n  dup3\n    /* \"#utility.yul\":1140:1156   */\n  shl\n    /* \"#utility.yul\":1119:1156   */\n  swap1\n  pop\n    /* \"#utility.yul\":1056:1163   */\n  swap3\n  swap2\n  pop\n  pop\n  jump\t// out\n    /* \"#utility.yul\":1169:1562   */\ntag_23:\n    /* \"#utility.yul\":1238:1244   */\n  0x00\n    /* \"#utility.yul\":1288:1289   */\n  0x08\n    /* \"#utility.yul\":1276:1286   */\n  dup4\n    /* \"#utility.yul\":1272:1290   */\n  mul\n    /* \"#utility.yul\":1311:1408   */\n  tag_61\n    /* \"#utility.yul\":1341:1407   */\n  0xffffffffffffffffffffffffffffffffffffffffffffffffffffffffffffffff\n    /* \"#utility.yul\":1330:1339   */\n  dup3\n    /* \"#utility.yul\":1311:1408   */\n  tag_22\n  jump\t// in\ntag_61:\n    /* \"#utility.yul\":1429:1468   */\n  tag_62\n    /* \"#utility.yul\":1459:1467   */\n  dup7\n    /* \"#utility.yul\":1448:1457   */\n  dup4\n    /* \"#utility.yul\":1429:1468   */\n  tag_22\n  jump\t// in\ntag_62:\n    /* \"#utility.yul\":1417:1468   */\n  swap6\n  pop\n    /* \"#utility.yul\":1501:1505   */\n  dup1\n    /* \"#utility.yul\":1497:1506   */\n  not\n    /* \"#utility.yul\":1490:1495   */\n  dup5\n    /* \"#utility.yul\":1486:1507   */\n  and\n    /* \"#utility.yul\":1477:1507   */\n  swap4\n  pop\n    /* \"#utility.yul\":1550:1554   */\n  dup1\n    /* \"#utility.yul\":1540:1548   */\n  dup7\n    /* \"#utility.yul\":1536:1555   */\n  and\n    /* \"#utility.yul\":1529:1534   */\n  dup5\n    /* \"#utility.yul\":1526:1556   */\n  or\n    /* \"#utility.yul\":1516:1556   */\n  swap3\n  pop\n    /* \"#utility.yul\":1245:1562   */\n  pop\n  pop\n    /* \"#utility.yul\":1169:1562   */\n  swap4\n  swap3\n  pop\n  pop\n  pop\n  jump\t// out\n    /* \"#utility.yul\":1568:1645   */\ntag_24:\n    /* \"#utility.yul\":1605:1612   */\n  0x00\n    /* \"#utility.yul\":1634:1639   */\n  dup2\n    /* \"#utility.yul\":1623:1639   */\n  swap1\n  pop\n    /* \"#utility.yul\":1568:1645   */\n  swap2\n  swap1\n  pop\n  jump\t// out\n    /* \"#utility.yul\":1651:1711   */\ntag_25:\n    /* \"#utility.yul\":1679:1682   */\n  0x00\n    /* \"#utility.yul\":1700:1705   */\n  dup2\n    /* \"#utility.yul\":1693:1705   */\n  swap1\n  pop\n    /* \"#utility.yul\":1651:1711   */\n  swap2\n  swap1\n  pop\n  jump\t// out\n    /* \"#utility.yul\":1717:1859   */\ntag_26:\n    /* \"#utility.yul\":1767:1776   */\n  0x00\n    /* \"#utility.yul\":1800:1853   */\n  tag_66\n    /* \"#utility.yul\":1818:1852   */\n  tag_67\n    /* \"#utility.yul\":1827:1851   */\n  tag_68\n    /* \"#utility.yul\":1845:1850   */\n  dup5\n    /* \"#utility.yul\":1827:1851   */\n  tag_24\n  jump\t// in\ntag_68:\n    /* \"#utility.yul\":1818:1852   */\n  tag_25\n  jump\t// in\ntag_67:\n    /* \"#utility.yul\":1800:1853   */\n  tag_24\n  jump\t// in\ntag_66:\n    /* \"#utility.yul\":1787:1853   */\n  swap1\n  pop\n    /* \"#utility.yul\":1717:1859   */\n  swap2\n  swap1\n  pop\n  jump\t// out\n    /* \"#utility.yul\":1865:1940   */\ntag_27:\n    /* \"#utility.yul\":1908:1911   */\n  0x00\n    /* \"#utility.yul\":1929:1934   */\n  dup2\n    /* \"#utility.yul\":1922:1934   */\n  swap1\n  pop\n    /* \"#utility.yul\":1865:1940   */\n  swap2\n  swap1\n  pop\n  jump\t// out\n    /* \"#utility.yul\":1946:2215   */\ntag_28:\n    /* \"#utility.yul\":2056:2095   */\n  tag_71\n    /* \"#utility.yul\":2087:2094   */\n  dup4\n    /* \"#utility.yul\":2056:2095   */\n  tag_26\n  jump\t// in\ntag_71:\n    /* \"#utility.yul\":2117:2208   */\n  tag_72\n    /* \"#utility.yul\":2166:2207   */\n  tag_73\n    /* \"#utility.yul\":2190:2206   */\n  dup3\n    /* \"#utility.yul\":2166:2207   */\n  tag_27\n  jump\t// in\ntag_73:\n    /* \"#utility.yul\":2158:2164   */\n  dup5\n    /* \"#utility.yul\":2151:2155   */\n  dup5\n    /* \"#utility.yul\":2145:2156   */\n  sload\n    /* \"#utility.yul\":2117:2208   */\n  tag_23\n  jump\t// in\ntag_72:\n    /* \"#utility.yul\":2111:2115   */\n  dup3\n    /* \"#utility.yul\":2104:2209   */\n  sstore\n    /* \"#utility.yul\":2022:2215   */\n  pop\n    /* \"#utility.yul\":1946:2215   */\n  pop\n  pop\n  pop\n  jump\t// out\n    /* \"#utility.yul\":2221:2294   */\ntag_29:\n    /* \"#utility.yul\":2266:2269   */\n  0x00\n    /* \"#utility.yul\":2221:2294   */\n  swap1\n  jump\t// out\n    /* \"#utility.yul\":2300:2489   */\ntag_30:\n    /* \"#utility.yul\":2377:2409   */\n  tag_76\n  tag_29\n  jump\t// in\ntag_76:\n    /* \"#utility.yul\":2418:2483   */\n  tag_77\n    /* \"#utility.yul\":2476:2482   */\n  dup2\n    /* \"#utility.yul\":2468:2474   */\n  dup5\n    /* \"#utility.yul\":2462:2466   */\n  dup5\n    /* \"#utility.yul\":2418:2483   */\n  tag_28\n  jump\t// in\ntag_77:\n    /* \"#utility.yul\":2353:2489   */\n  pop\n    /* \"#utility.yul\":2300:2489   */\n  pop\n  pop\n  jump\t// out\n    /* \"#utility.yul\":2495:2681   */\ntag_31:\n    /* \"#utility.yul\":2555:2675   */\ntag_79:\n    /* \"#utility.yul\":2572:2575   */\n  dup2\n    /* \"#utility.yul\":2565:2570   */\n  dup2\n    /* \"#utility.yul\":2562:2576   */\n  lt\n    /* \"#utility.yul\":2555:2675   */\n  iszero\n  tag_81\n  jumpi\n    /* \"#utility.yul\":2626:2665   */\n  tag_82\n    /* \"#utility.yul\":2663:2664   */\n  0x00\n    /* \"#utility.yul\":2656:2661   */\n  dup3\n    /* \"#utility.yul\":2626:2665   */\n  tag_30\n  jump\t// in\ntag_82:\n    /* \"#utility.yul\":2599:2600   */\n  0x01\n    /* \"#utility.yul\":2592:2597   */\n  dup2\n    /* \"#utility.yul\":2588:2601   */\n  add\n    /* \"#utility.yul\":2579:2601   */\n  swap1\n  pop\n    /* \"#utility.yul\":2555:2675   */\n  jump(tag_79)\ntag_81:\n    /* \"#utility.yul\":2495:2681   */\n  pop\n  pop\n  jump\t// out\n    /* \"#utility.yul\":2687:3230   */\ntag_32:\n    /* \"#utility.yul\":2788:2790   */\n  0x1f\n    /* \"#utility.yul\":2783:2786   */\n  dup3\n    /* \"#utility.yul\":2780:2791   */\n  gt\n    /* \"#utility.yul\":2777:3223   */\n  iszero\n  tag_84\n  jumpi\n    /* \"#utility.yul\":2822:2860   */\n  tag_85\n    /* \"#utility.yul\":2854:2859   */\n  dup2\n    /* \"#utility.yul\":2822:2860   */\n  tag_20\n  jump\t// in\ntag_85:\n    /* \"#utility.yul\":2906:2935   */\n  tag_86\n    /* \"#utility.yul\":2924:2934   */\n  dup5\n    /* \"#utility.yul\":2906:2935   */\n  tag_21\n  jump\t// in\ntag_86:\n    /* \"#utility.yul\":2896:2904   */\n  dup2\n    /* \"#utility.yul\":2892:2936   */\n  add\n    /* \"#utility.yul\":3089:3091   */\n  0x20\n    /* \"#utility.yul\":3077:3087   */\n  dup6\n    /* \"#utility.yul\":3074:3092   */\n  lt\n    /* \"#utility.yul\":3071:3120   */\n  iszero\n  tag_87\n  jumpi\n    /* \"#utility.yul\":3110:3118   */\n  dup2\n    /* \"#utility.yul\":3095:3118   */\n  swap1\n  pop\n    /* \"#utility.yul\":3071:3120   */\ntag_87:\n    /* \"#utility.yul\":3133:3213   */\n  tag_88\n    /* \"#utility.yul\":3189:3211   */\n  tag_89\n    /* \"#utility.yul\":3207:3210   */\n  dup6\n    /* \"#utility.yul\":3189:3211   */\n  tag_21\n  jump\t// in\ntag_89:\n    /* \"#utility.yul\":3179:3187   */\n  dup4\n    /* \"#utility.yul\":3175:3212   */\n  add\n    /* \"#utility.yul\":3162:3173   */\n  dup3\n    /* \"#utility.yul\":3133:3213   */\n  tag_31\n  jump\t// in\ntag_88:\n    /* \"#utility.yul\":2792:3223   */\n  pop\n  pop\n    /* \"#utility.yul\":2777:3223   */\ntag_84:\n    /* \"#utility.yul\":2687:3230   */\n  pop\n  pop\n  pop\n  jump\t// out\n    /* \"#utility.yul\":3236:3353   */\ntag_33:\n    /* \"#utility.yul\":3290:3298   */\n  0x00\n    /* \"#utility.yul\":3340:3345   */\n  dup3\n    /* \"#utility.yul\":3334:3338   */\n  dup3\n    /* \"#utility.yul\":3330:3346   */\n  shr\n    /* \"#utility.yul\":3309:3346   */\n  swap1\n  pop\n    /* \"#utility.yul\":3236:3353   */\n  swap3\n  swap2\n  pop\n  pop\n  jump\t// out\n    /* \"#utility.yul\":3359:3528   */\ntag_34:\n    /* \"#utility.yul\":3403:3409   */\n  0x00\n    /* \"#utility.yul\":3436:3487   */\n  tag_92\n    /* \"#utility.yul\":3484:3485   */\n  0x00\n    /* \"#utility.yul\":3480:3486   */\n  not\n    /* \"#utility.yul\":3472:3477   */\n  dup5\n    /* \"#utility.yul\":3469:3470   */\n  0x08\n    /* \"#utility.yul\":3465:3478   */\n  mul\n    /* \"#utility.yul\":3436:3487   */\n  tag_33\n  jump\t// in\ntag_92:\n    /* \"#utility.yul\":3432:3488   */\n  not\n    /* \"#utility.yul\":3517:3521   */\n  dup1\n    /* \"#utility.yul\":3511:3515   */\n  dup4\n    /* \"#utility.yul\":3507:3522   */\n  and\n    /* \"#utility.yul\":3497:3522   */\n  swap2\n  pop\n    /* \"#utility.yul\":3410:3528   */\n  pop\n    /* \"#utility.yul\":3359:3528   */\n  swap3\n  swap2\n  pop\n  pop\n  jump\t// out\n    /* \"#utility.yul\":3533:3828   */\ntag_35:\n    /* \"#utility.yul\":3609:3613   */\n  0x00\n    /* \"#utility.yul\":3755:3784   */\n  tag_94\n    /* \"#utility.yul\":3780:3783   */\n  dup4\n    /* \"#utility.yul\":3774:3778   */\n  dup4\n    /* \"#utility.yul\":3755:3784   */\n  tag_34\n  jump\t// in\ntag_94:\n    /* \"#utility.yul\":3747:3784   */\n  swap2\n  pop\n    /* \"#utility.yul\":3817:3820   */\n  dup3\n    /* \"#utility.yul\":3814:3815   */\n  0x02\n    /* \"#utility.yul\":3810:3821   */\n  mul\n    /* \"#utility.yul\":3804:3808   */\n  dup3\n    /* \"#utility.yul\":3801:3822   */\n  or\n    /* \"#utility.yul\":3793:3822   */\n  swap1\n  pop\n    /* \"#utility.yul\":3533:3828   */\n  swap3\n  swap2\n  pop\n  pop\n  jump\t// out\n    /* \"#utility.yul\":3833:5228   */\ntag_2:\n    /* \"#utility.yul\":3950:3987   */\n  tag_96\n    /* \"#utility.yul\":3983:3986   */\n  dup3\n    /* \"#utility.yul\":3950:3987   */\n  tag_16\n  jump\t// in\ntag_96:\n    /* \"#utility.yul\":4052:4070   */\n  0xffffffffffffffff\n    /* \"#utility.yul\":4044:4050   */\n  dup2\n    /* \"#utility.yul\":4041:4071   */\n  gt\n    /* \"#utility.yul\":4038:4094   */\n  iszero\n  tag_97\n  jumpi\n    /* \"#utility.yul\":4074:4092   */\n  tag_98\n  tag_17\n  jump\t// in\ntag_98:\n    /* \"#utility.yul\":4038:4094   */\ntag_97:\n    /* \"#utility.yul\":4118:4156   */\n  tag_99\n    /* \"#utility.yul\":4150:4154   */\n  dup3\n    /* \"#utility.yul\":4144:4155   */\n  sload\n    /* \"#utility.yul\":4118:4156   */\n  tag_19\n  jump\t// in\ntag_99:\n    /* \"#utility.yul\":4203:4270   */\n  tag_100\n    /* \"#utility.yul\":4263:4269   */\n  dup3\n    /* \"#utility.yul\":4255:4261   */\n  dup3\n    /* \"#utility.yul\":4249:4253   */\n  dup6\n    /* \"#utility.yul\":4203:4270   */\n  tag_32\n  jump\t// in\ntag_100:\n    /* \"#utility.yul\":4297:4298   */\n  0x00\n    /* \"#utility.yul\":4321:4325   */\n  0x20\n    /* \"#utility.yul\":4308:4325   */\n  swap1\n  pop\n    /* \"#utility.yul\":4353:4355   */\n  0x1f\n    /* \"#utility.yul\":4345:4351   */\n  dup4\n    /* \"#utility.yul\":4342:4356   */\n  gt\n    /* \"#utility.yul\":4370:4371   */\n  0x01\n    /* \"#utility.yul\":4365:4983   */\n  dup2\n  eq\n  tag_102\n  jumpi\n    /* \"#utility.yul\":5027:5028   */\n  0x00\n    /* \"#utility.yul\":5044:5050   */\n  dup5\n    /* \"#utility.yul\":5041:5118   */\n  iszero\n  tag_103\n  jumpi\n    /* \"#utility.yul\":5093:5102   */\n  dup3\n    /* \"#utility.yul\":5088:5091   */\n  dup8\n    /* \"#utility.yul\":5084:5103   */\n  add\n    /* \"#utility.yul\":5078:5104   */\n  mload\n    /* \"#utility.yul\":5069:5104   */\n  swap1\n  pop\n    /* \"#utility.yul\":5041:5118   */\ntag_103:\n    /* \"#utility.yul\":5144:5211   */\n  tag_104\n    /* \"#utility.yul\":5204:5210   */\n  dup6\n    /* \"#utility.yul\":5197:5202   */\n  dup3\n    /* \"#utility.yul\":5144:5211   */\n  tag_35\n  jump\t// in\ntag_104:\n    /* \"#utility.yul\":5138:5142   */\n  dup7\n    /* \"#utility.yul\":5131:5212   */\n  sstore\n    /* \"#utility.yul\":5000:5222   */\n  pop\n    /* \"#utility.yul\":4335:5222   */\n  jump(tag_101)\n    /* \"#utility.yul\":4365:4983   */\ntag_102:\n    /* \"#utility.yul\":4417:4421   */\n  0x1f\n    /* \"#utility.yul\":4413:4422   */\n  not\n    /* \"#utility.yul\":4405:4411   */\n  dup5\n    /* \"#utility.yul\":4401:4423   */\n  and\n    /* \"#utility.yul\":4451:4488   */\n  tag_105\n    /* \"#utility.yul\":4483:4487   */\n  dup7\n    /* \"#utility.yul\":4451:4488   */\n  tag_20\n  jump\t// in\ntag_105:\n    /* \"#utility.yul\":4510:4511   */\n  0x00\n    /* \"#utility.yul\":4524:4732   */\ntag_106:\n    /* \"#utility.yul\":4538:4545   */\n  dup3\n    /* \"#utility.yul\":4535:4536   */\n  dup2\n    /* \"#utility.yul\":4532:4546   */\n  lt\n    /* \"#utility.yul\":4524:4732   */\n  iszero\n  tag_108\n  jumpi\n    /* \"#utility.yul\":4617:4626   */\n  dup5\n    /* \"#utility.yul\":4612:4615   */\n  dup10\n    /* \"#utility.yul\":4608:4627   */\n  add\n    /* \"#utility.yul\":4602:4628   */\n  mload\n    /* \"#utility.yul\":4594:4600   */\n  dup3\n    /* \"#utility.yul\":4587:4629   */\n  sstore\n    /* \"#utility.yul\":4668:4669   */\n  0x01\n    /* \"#utility.yul\":4660:4666   */\n  dup3\n    /* \"#utility.yul\":4656:4670   */\n  add\n    /* \"#utility.yul\":4646:4670   */\n  swap2\n  pop\n    /* \"#utility.yul\":4715:4717   */\n  0x20\n    /* \"#utility.yul\":4704:4713   */\n  dup6\n    /* \"#utility.yul\":4700:4718   */\n  add\n    /* \"#utility.yul\":4687:4718   */\n  swap5\n  pop\n    /* \"#utility.yul\":4561:4565   */\n  0x20\n    /* \"#utility.yul\":4558:4559   */\n  dup2\n    /* \"#utility.yul\":4554:4566   */\n  add\n    /* \"#utility.yul\":4549:4566   */\n  swap1\n  pop\n    /* \"#utility.yul\":4524:4732   */\n  jump(tag_106)\ntag_108:\n    /* \"#utility.yul\":4760:4766   */\n  dup7\n    /* \"#utility.yul\":4751:4758   */\n  dup4\n    /* \"#utility.yul\":4748:4767   */\n  lt\n    /* \"#utility.yul\":4745:4924   */\n  iszero\n  tag_109\n  jumpi\n    /* \"#utility.yul\":4818:4827   */\n  dup5\n    /* \"#utility.yul\":4813:4816   */\n  dup10\n    /* \"#utility.yul\":4809:4828   */\n  add\n    /* \"#utility.yul\":4803:4829   */\n  mload\n    /* \"#utility.yul\":4861:4909   */\n  tag_110\n    /* \"#utility.yul\":4903:4907   */\n  0x1f\n    /* \"#utility.yul\":4895:4901   */\n  dup10\n    /* \"#utility.yul\":4891:4908   */\n  and\n    /* \"#utility.yul\":4880:4889   */\n  dup3\n    /* \"#utility.yul\":4861:4909   */\n  tag_34\n  jump\t// in\ntag_110:\n    /* \"#utility.yul\":4853:4859   */\n  dup4\n    /* \"#utility.yul\":4846:4910   */\n  sstore\n    /* \"#utility.yul\":4768:4924   */\n  pop\n    /* \"#utility.yul\":4745:4924   */\ntag_109:\n    /* \"#utility.yul\":4970:4971   */\n  0x01\n    /* \"#utility.yul\":4966:4967   */\n  0x02\n    /* \"#utility.yul\":4958:4964   */\n  dup9\n    /* \"#utility.yul\":4954:4968   */\n  mul\n    /* \"#utility.yul\":4950:4972   */\n  add\n    /* \"#utility.yul\":4944:4948   */\n  dup9\n    /* \"#utility.yul\":4937:4973   */\n  sstore\n    /* \"#utility.yul\":4372:4983   */\n  pop\n  pop\n  pop\n    /* \"#utility.yul\":4335:5222   */\ntag_101:\n  pop\n    /* \"#utility.yul\":3925:5228   */\n  pop\n  pop\n  pop\n    /* \"#utility.yul\":3833:5228   */\n  pop\n  pop\n  jump\t// out\n    /* \"#utility.yul\":5315:5432   */\ntag_37:\n    /* \"#utility.yul\":5424:5425   */\n  0x00\n    /* \"#utility.yul\":5421:5422   */\n  dup1\n    /* \"#utility.yul\":5414:5426   */\n  revert\n    /* \"#utility.yul\":5561:5683   */\ntag_39:\n    /* \"#utility.yul\":5634:5658   */\n  tag_115\n    /* \"#utility.yul\":5652:5657   */\n  dup2\n    /* \"#utility.yul\":5634:5658   */\n  tag_24\n  jump\t// in\ntag_115:\n    /* \"#utility.yul\":5627:5632   */\n  dup2\n    /* \"#utility.yul\":5624:5659   */\n  eq\n    /* \"#utility.yul\":5614:5677   */\n  tag_116\n  jumpi\n    /* \"#utility.yul\":5673:5674   */\n  0x00\n    /* \"#utility.yul\":5670:5671   */\n  dup1\n    /* \"#utility.yul\":5663:5675   */\n  revert\n    /* \"#utility.yul\":5614:5677   */\ntag_116:\n    /* \"#utility.yul\":5561:5683   */\n  pop\n  jump\t// out\n    /* \"#utility.yul\":5689:5832   */\ntag_40:\n    /* \"#utility.yul\":5746:5751   */\n  0x00\n    /* \"#utility.yul\":5777:5783   */\n  dup2\n    /* \"#utility.yul\":5771:5784   */\n  mload\n    /* \"#utility.yul\":5762:5784   */\n  swap1\n  pop\n    /* \"#utility.yul\":5793:5826   */\n  tag_118\n    /* \"#utility.yul\":5820:5825   */\n  dup2\n    /* \"#utility.yul\":5793:5826   */\n  tag_39\n  jump\t// in\ntag_118:\n    /* \"#utility.yul\":5689:5832   */\n  swap3\n  swap2\n  pop\n  pop\n  jump\t// out\n    /* \"#utility.yul\":5838:6189   */\ntag_6:\n    /* \"#utility.yul\":5908:5914   */\n  0x00\n    /* \"#utility.yul\":5957:5959   */\n  0x20\n    /* \"#utility.yul\":5945:5954   */\n  dup3\n    /* \"#utility.yul\":5936:5943   */\n  dup5\n    /* \"#utility.yul\":5932:5955   */\n  sub\n    /* \"#utility.yul\":5928:5960   */\n  slt\n    /* \"#utility.yul\":5925:6044   */\n  iszero\n  tag_120\n  jumpi\n    /* \"#utility.yul\":5963:6042   */\n  tag_121\n  tag_37\n  jump\t// in\ntag_121:\n    /* \"#utility.yul\":5925:6044   */\ntag_120:\n    /* \"#utility.yul\":6083:6084   */\n  0x00\n    /* \"#utility.yul\":6108:6172   */\n  tag_122\n    /* \"#utility.yul\":6164:6171   */\n  dup5\n    /* \"#utility.yul\":6155:6161   */\n  dup3\n    /* \"#utility.yul\":6144:6153   */\n  dup6\n    /* \"#utility.yul\":6140:6162   */\n  add\n    /* \"#utility.yul\":6108:6172   */\n  tag_40\n  jump\t// in\ntag_122:\n    /* \"#utility.yul\":6098:6172   */\n  swap2\n  pop\n    /* \"#utility.yul\":6054:6182   */\n  pop\n    /* \"#utility.yul\":5838:6189   */\n  swap3\n  swap2\n  pop\n  pop\n  jump\t// out\n    /* \"#utility.yul\":6195:6375   */\ntag_41:\n    /* \"#utility.yul\":6243:6320   */\n  0x4e487b7100000000000000000000000000000000000000000000000000000000\n    /* \"#utility.yul\":6240:6241   */\n  0x00\n    /* \"#utility.yul\":6233:6321   */\n  mstore\n    /* \"#utility.yul\":6340:6344   */\n  0x11\n    /* \"#utility.yul\":6337:6338   */\n  0x04\n    /* \"#utility.yul\":6330:6345   */\n  mstore\n    /* \"#utility.yul\":6364:6368   */\n  0x24\n    /* \"#utility.yul\":6361:6362   */\n  0x00\n    /* \"#utility.yul\":6354:6369   */\n  revert\n    /* \"#utility.yul\":6381:6483   */\ntag_42:\n    /* \"#utility.yul\":6423:6431   */\n  0x00\n    /* \"#utility.yul\":6470:6475   */\n  dup2\n    /* \"#utility.yul\":6467:6468   */\n  0x01\n    /* \"#utility.yul\":6463:6476   */\n  shr\n    /* \"#utility.yul\":6442:6476   */\n  swap1\n  pop\n    /* \"#utility.yul\":6381:6483   */\n  swap2\n  swap1\n  pop\n  jump\t// out\n    /* \"#utility.yul\":6489:7337   */\ntag_43:\n    /* \"#utility.yul\":6550:6555   */\n  0x00\n    /* \"#utility.yul\":6557:6561   */\n  dup1\n    /* \"#utility.yul\":6581:6587   */\n  dup3\n    /* \"#utility.yul\":6572:6587   */\n  swap2\n  pop\n    /* \"#utility.yul\":6605:6610   */\n  dup4\n    /* \"#utility.yul\":6596:6610   */\n  swap1\n  pop\n    /* \"#utility.yul\":6619:7331   */\ntag_126:\n    /* \"#utility.yul\":6640:6641   */\n  0x01\n    /* \"#utility.yul\":6630:6638   */\n  dup6\n    /* \"#utility.yul\":6627:6642   */\n  gt\n    /* \"#utility.yul\":6619:7331   */\n  iszero\n  tag_128\n  jumpi\n    /* \"#utility.yul\":6735:6739   */\n  dup1\n    /* \"#utility.yul\":6730:6733   */\n  dup7\n    /* \"#utility.yul\":6726:6740   */\n  div\n    /* \"#utility.yul\":6720:6724   */\n  dup2\n    /* \"#utility.yul\":6717:6741   */\n  gt\n    /* \"#utility.yul\":6714:6764   */\n  iszero\n  tag_129\n  jumpi\n    /* \"#utility.yul\":6744:6762   */\n  tag_130\n  tag_41\n  jump\t// in\ntag_130:\n    /* \"#utility.yul\":6714:6764   */\ntag_129:\n    /* \"#utility.yul\":6794:6795   */\n  0x01\n    /* \"#utility.yul\":6784:6792   */\n  dup6\n    /* \"#utility.yul\":6780:6796   */\n  and\n    /* \"#utility.yul\":6777:7228   */\n  iszero\n  tag_131\n  jumpi\n    /* \"#utility.yul\":7209:7213   */\n  dup1\n    /* \"#utility.yul\":7202:7207   */\n  dup3\n    /* \"#utility.yul\":7198:7214   */\n  mul\n    /* \"#utility.yul\":7189:7214   */\n  swap2\n  pop\n    /* \"#utility.yul\":6777:7228   */\ntag_131:\n    /* \"#utility.yul\":7259:7263   */\n  dup1\n    /* \"#utility.yul\":7253:7257   */\n  dup2\n    /* \"#utility.yul\":7249:7264   */\n  mul\n    /* \"#utility.yul\":7241:7264   */\n  swap1\n  pop\n    /* \"#utility.yul\":7289:7321   */\n  tag_132\n    /* \"#utility.yul\":7312:7320   */\n  dup6\n    /* \"#utility.yul\":7289:7321   */\n  tag_42\n  jump\t// in\ntag_132:\n    /* \"#utility.yul\":7277:7321   */\n  swap5\n  pop\n    /* \"#utility.yul\":6619:7331   */\n  jump(tag_126)\ntag_128:\n    /* \"#utility.yul\":6489:7337   */\n  swap5\n  pop\n  swap5\n  swap3\n  pop\n  pop\n  pop\n  jump\t// out\n    /* \"#utility.yul\":7343:8416   */\ntag_44:\n    /* \"#utility.yul\":7397:7402   */\n  0x00\n    /* \"#utility.yul\":7588:7596   */\n  dup3\n    /* \"#utility.yul\":7578:7618   */\n  tag_134\n  jumpi\n    /* \"#utility.yul\":7609:7610   */\n  0x01\n    /* \"#utility.yul\":7600:7610   */\n  swap1\n  pop\n    /* \"#utility.yul\":7611:7616   */\n  jump(tag_133)\n    /* \"#utility.yul\":7578:7618   */\ntag_134:\n    /* \"#utility.yul\":7637:7641   */\n  dup2\n    /* \"#utility.yul\":7627:7663   */\n  tag_135\n  jumpi\n    /* \"#utility.yul\":7654:7655   */\n  0x00\n    /* \"#utility.yul\":7645:7655   */\n  swap1\n  pop\n    /* \"#utility.yul\":7656:7661   */\n  jump(tag_133)\n    /* \"#utility.yul\":7627:7663   */\ntag_135:\n    /* \"#utility.yul\":7723:7727   */\n  dup2\n    /* \"#utility.yul\":7771:7772   */\n  0x01\n    /* \"#utility.yul\":7766:7793   */\n  dup2\n  eq\n  tag_137\n  jumpi\n    /* \"#utility.yul\":7807:7808   */\n  0x02\n    /* \"#utility.yul\":7802:7993   */\n  dup2\n  eq\n  tag_138\n  jumpi\n    /* \"#utility.yul\":7716:7993   */\n  jump(tag_136)\n    /* \"#utility.yul\":7766:7793   */\ntag_137:\n    /* \"#utility.yul\":7784:7785   */\n  0x01\n    /* \"#utility.yul\":7775:7785   */\n  swap2\n  pop\n    /* \"#utility.yul\":7786:7791   */\n  pop\n  jump(tag_133)\n    /* \"#utility.yul\":7802:7993   */\ntag_138:\n    /* \"#utility.yul\":7847:7850   */\n  0xff\n    /* \"#utility.yul\":7837:7845   */\n  dup5\n    /* \"#utility.yul\":7834:7851   */\n  gt\n    /* \"#utility.yul\":7831:7874   */\n  iszero\n  tag_139\n  jumpi\n    /* \"#utility.yul\":7854:7872   */\n  tag_140\n  tag_41\n  jump\t// in\ntag_140:\n    /* \"#utility.yul\":7831:7874   */\ntag_139:\n    /* \"#utility.yul\":7903:7911   */\n  dup4\n    /* \"#utility.yul\":7900:7901   */\n  0x02\n    /* \"#utility.yul\":7896:7912   */\n  exp\n    /* \"#utility.yul\":7887:7912   */\n  swap2\n  pop\n    /* \"#utility.yul\":7938:7941   */\n  dup5\n    /* \"#utility.yul\":7931:7936   */\n  dup3\n    /* \"#utility.yul\":7928:7942   */\n  gt\n    /* \"#utility.yul\":7925:7965   */\n  iszero\n  tag_141\n  jumpi\n    /* \"#utility.yul\":7945:7963   */\n  tag_142\n  tag_41\n  jump\t// in\ntag_142:\n    /* \"#utility.yul\":7925:7965   */\ntag_141:\n    /* \"#utility.yul\":7978:7983   */\n  pop\n  jump(tag_133)\n    /* \"#utility.yul\":7716:7993   */\ntag_136:\n  pop\n    /* \"#utility.yul\":8102:8104   */\n  0x20\n    /* \"#utility.yul\":8092:8100   */\n  dup4\n    /* \"#utility.yul\":8089:8105   */\n  lt\n    /* \"#utility.yul\":8083:8086   */\n  0x0133\n    /* \"#utility.yul\":8077:8081   */\n  dup4\n    /* \"#utility.yul\":8074:8087   */\n  lt\n    /* \"#utility.yul\":8070:8106   */\n  and\n    /* \"#utility.yul\":8052:8054   */\n  0x4e\n    /* \"#utility.yul\":8042:8050   */\n  dup5\n    /* \"#utility.yul\":8039:8055   */\n  lt\n    /* \"#utility.yul\":8034:8036   */\n  0x0b\n    /* \"#utility.yul\":8028:8032   */\n  dup5\n    /* \"#utility.yul\":8025:8037   */\n  lt\n    /* \"#utility.yul\":8021:8056   */\n  and\n    /* \"#utility.yul\":8005:8116   */\n  or\n    /* \"#utility.yul\":8002:8248   */\n  iszero\n  tag_143\n  jumpi\n    /* \"#utility.yul\":8158:8166   */\n  dup3\n    /* \"#utility.yul\":8152:8156   */\n  dup3\n    /* \"#utility.yul\":8148:8167   */\n  exp\n    /* \"#utility.yul\":8139:8167   */\n  swap1\n  pop\n    /* \"#utility.yul\":8193:8196   */\n  dup4\n    /* \"#utility.yul\":8186:8191   */\n  dup2\n    /* \"#utility.yul\":8183:8197   */\n  gt\n    /* \"#utility.yul\":8180:8220   */\n  iszero\n  tag_144\n  jumpi\n    /* \"#utility.yul\":8200:8218   */\n  tag_145\n  tag_41\n  jump\t// in\ntag_145:\n    /* \"#utility.yul\":8180:8220   */\ntag_144:\n    /* \"#utility.yul\":8233:8238   */\n  jump(tag_133)\n    /* \"#utility.yul\":8002:8248   */\ntag_143:\n    /* \"#utility.yul\":8273:8315   */\n  tag_146\n    /* \"#utility.yul\":8311:8314   */\n  dup5\n    /* \"#utility.yul\":8301:8309   */\n  dup5\n    /* \"#utility.yul\":8295:8299   */\n  dup5\n    /* \"#utility.yul\":8292:8293   */\n  0x01\n    /* \"#utility.yul\":8273:8315   */\n  tag_43\n  jump\t// in\ntag_146:\n    /* \"#utility.yul\":8258:8315   */\n  swap3\n  pop\n  swap1\n  pop\n    /* \"#utility.yul\":8347:8351   */\n  dup2\n    /* \"#utility.yul\":8342:8345   */\n  dup5\n    /* \"#utility.yul\":8338:8352   */\n  div\n    /* \"#utility.yul\":8331:8336   */\n  dup2\n    /* \"#utility.yul\":8328:8353   */\n  gt\n    /* \"#utility.yul\":8325:8376   */\n  iszero\n  tag_147\n  jumpi\n    /* \"#utility.yul\":8356:8374   */\n  tag_148\n  tag_41\n  jump\t// in\ntag_148:\n    /* \"#utility.yul\":8325:8376   */\ntag_147:\n    /* \"#utility.yul\":8405:8409   */\n  dup2\n    /* \"#utility.yul\":8398:8403   */\n  dup2\n    /* \"#utility.yul\":8394:8410   */\n  mul\n    /* \"#utility.yul\":8385:8410   */\n  swap1\n  pop\n    /* \"#utility.yul\":7343:8416   */\ntag_133:\n  swap4\n  swap3\n  pop\n  pop\n  pop\n  jump\t// out\n    /* \"#utility.yul\":8422:8707   */\ntag_10:\n    /* \"#utility.yul\":8482:8487   */\n  0x00\n    /* \"#utility.yul\":8506:8529   */\n  tag_150\n    /* \"#utility.yul\":8524:8528   */\n  dup3\n    /* \"#utility.yul\":8506:8529   */\n  tag_24\n  jump\t// in\ntag_150:\n    /* \"#utility.yul\":8498:8529   */\n  swap2\n  pop\n    /* \"#utility.yul\":8550:8577   */\n  tag_151\n    /* \"#utility.yul\":8568:8576   */\n  dup4\n    /* \"#utility.yul\":8550:8577   */\n  tag_24\n  jump\t// in\ntag_151:\n    /* \"#utility.yul\":8538:8577   */\n  swap3\n  pop\n    /* \"#utility.yul\":8596:8700   */\n  tag_152\n    /* \"#utility.yul\":8633:8699   */\n  0xffffffffffffffffffffffffffffffffffffffffffffffffffffffffffffffff\n    /* \"#utility.yul\":8623:8631   */\n  dup5\n    /* \"#utility.yul\":8617:8621   */\n  dup5\n    /* \"#utility.yul\":8596:8700   */\n  tag_44\n  jump\t// in\ntag_152:\n    /* \"#utility.yul\":8587:8700   */\n  swap1\n  pop\n    /* \"#utility.yul\":8422:8707   */\n  swap3\n  swap2\n  pop\n  pop\n  jump\t// out\n    /* \"#utility.yul\":8713:9123   */\ntag_12:\n    /* \"#utility.yul\":8753:8760   */\n  0x00\n    /* \"#utility.yul\":8776:8796   */\n  tag_154\n    /* \"#utility.yul\":8794:8795   */\n  dup3\n    /* \"#utility.yul\":8776:8796   */\n  tag_24\n  jump\t// in\ntag_154:\n    /* \"#utility.yul\":8771:8796   */\n  swap2\n  pop\n    /* \"#utility.yul\":8810:8830   */\n  tag_155\n    /* \"#utility.yul\":8828:8829   */\n  dup4\n    /* \"#utility.yul\":8810:8830   */\n  tag_24\n  jump\t// in\ntag_155:\n    /* \"#utility.yul\":8805:8830   */\n  swap3\n  pop\n    /* \"#utility.yul\":8865:8866   */\n  dup3\n    /* \"#utility.yul\":8862:8863   */\n  dup3\n    /* \"#utility.yul\":8858:8867   */\n  mul\n    /* \"#utility.yul\":8887:8917   */\n  tag_156\n    /* \"#utility.yul\":8905:8916   */\n  dup2\n    /* \"#utility.yul\":8887:8917   */\n  tag_24\n  jump\t// in\ntag_156:\n    /* \"#utility.yul\":8876:8917   */\n  swap2\n  pop\n    /* \"#utility.yul\":9066:9067   */\n  dup3\n    /* \"#utility.yul\":9057:9064   */\n  dup3\n    /* \"#utility.yul\":9053:9068   */\n  div\n    /* \"#utility.yul\":9050:9051   */\n  dup5\n    /* \"#utility.yul\":9047:9069   */\n  eq\n    /* \"#utility.yul\":9027:9028   */\n  dup4\n    /* \"#utility.yul\":9020:9029   */\n  iszero\n    /* \"#utility.yul\":9000:9083   */\n  or\n    /* \"#utility.yul\":8977:9116   */\n  tag_157\n  jumpi\n    /* \"#utility.yul\":9096:9114   */\n  tag_158\n  tag_41\n  jump\t// in\ntag_158:\n    /* \"#utility.yul\":8977:9116   */\ntag_157:\n    /* \"#utility.yul\":8761:9123   */\n  pop\n    /* \"#utility.yul\":8713:9123   */\n  swap3\n  swap2\n  pop\n  pop\n  jump\t// out\n    /* \"#utility.yul\":9129:9247   */\ntag_45:\n    /* \"#utility.yul\":9216:9240   */\n  tag_160\n    /* \"#utility.yul\":9234:9239   */\n  dup2\n    /* \"#utility.yul\":9216:9240   */\n  tag_24\n  jump\t// in\ntag_160:\n    /* \"#utility.yul\":9211:9214   */\n  dup3\n    /* \"#utility.yul\":9204:9241   */\n  mstore\n    /* \"#utility.yul\":9129:9247   */\n  pop\n  pop\n  jump\t// out\n    /* \"#utility.yul\":9253:9422   */\ntag_46:\n    /* \"#utility.yul\":9337:9348   */\n  0x00\n    /* \"#utility.yul\":9371:9377   */\n  dup3\n    /* \"#utility.yul\":9366:9369   */\n  dup3\n    /* \"#utility.yul\":9359:9378   */\n  mstore\n    /* \"#utility.yul\":9411:9415   */\n  0x20\n    /* \"#utility.yul\":9406:9409   */\n  dup3\n    /* \"#utility.yul\":9402:9416   */\n  add\n    /* \"#utility.yul\":9387:9416   */\n  swap1\n  pop\n    /* \"#utility.yul\":9253:9422   */\n  swap3\n  swap2\n  pop\n  pop\n  jump\t// out\n    /* \"#utility.yul\":9428:9592   */\ntag_47:\n    /* \"#utility.yul\":9568:9584   */\n  0x496e697469616c20737570706c79000000000000000000000000000000000000\n    /* \"#utility.yul\":9564:9565   */\n  0x00\n    /* \"#utility.yul\":9556:9562   */\n  dup3\n    /* \"#utility.yul\":9552:9566   */\n  add\n    /* \"#utility.yul\":9545:9585   */\n  mstore\n    /* \"#utility.yul\":9428:9592   */\n  pop\n  jump\t// out\n    /* \"#utility.yul\":9598:9964   */\ntag_48:\n    /* \"#utility.yul\":9740:9743   */\n  0x00\n    /* \"#utility.yul\":9761:9828   */\n  tag_164\n    /* \"#utility.yul\":9825:9827   */\n  0x0e\n    /* \"#utility.yul\":9820:9823   */\n  dup4\n    /* \"#utility.yul\":9761:9828   */\n  tag_46\n  jump\t// in\ntag_164:\n    /* \"#utility.yul\":9754:9828   */\n  swap2\n  pop\n    /* \"#utility.yul\":9837:9930   */\n  tag_165\n    /* \"#utility.yul\":9926:9929   */\n  dup3\n    /* \"#utility.yul\":9837:9930   */\n  tag_47\n  jump\t// in\ntag_165:\n    /* \"#utility.yul\":9955:9957   */\n  0x20\n    /* \"#utility.yul\":9950:9953   */\n  dup3\n    /* \"#utility.yul\":9946:9958   */\n  add\n    /* \"#utility.yul\":9939:9958   */\n  swap1\n  pop\n    /* \"#utility.yul\":9598:9964   */\n  swap2\n  swap1\n  pop\n  jump\t// out\n    /* \"#utility.yul\":9970:10499   */\ntag_14:\n    /* \"#utility.yul\":10164:10168   */\n  0x00\n    /* \"#utility.yul\":10202:10204   */\n  0x40\n    /* \"#utility.yul\":10191:10200   */\n  dup3\n    /* \"#utility.yul\":10187:10205   */\n  add\n    /* \"#utility.yul\":10179:10205   */\n  swap1\n  pop\n    /* \"#utility.yul\":10215:10286   */\n  tag_167\n    /* \"#utility.yul\":10283:10284   */\n  0x00\n    /* \"#utility.yul\":10272:10281   */\n  dup4\n    /* \"#utility.yul\":10268:10285   */\n  add\n    /* \"#utility.yul\":10259:10265   */\n  dup5\n    /* \"#utility.yul\":10215:10286   */\n  tag_45\n  jump\t// in\ntag_167:\n    /* \"#utility.yul\":10333:10342   */\n  dup2\n    /* \"#utility.yul\":10327:10331   */\n  dup2\n    /* \"#utility.yul\":10323:10343   */\n  sub\n    /* \"#utility.yul\":10318:10320   */\n  0x20\n    /* \"#utility.yul\":10307:10316   */\n  dup4\n    /* \"#utility.yul\":10303:10321   */\n  add\n    /* \"#utility.yul\":10296:10344   */\n  mstore\n    /* \"#utility.yul\":10361:10492   */\n  tag_168\n    /* \"#utility.yul\":10487:10491   */\n  dup2\n    /* \"#utility.yul\":10361:10492   */\n  tag_48\n  jump\t// in\ntag_168:\n    /* \"#utility.yul\":10353:10492   */\n  swap1\n  pop\n    /* \"#utility.yul\":9970:10499   */\n  swap3\n  swap2\n  pop\n  pop\n  jump\t// out\n    /* \"MyToken.sol\":60:6987  contract MyToken {... */\ntag_15:\n  dataSize(sub_0)\n  dup1\n  dataOffset(sub_0)\n  0x00\n  codecopy\n  0x00\n  return\nstop\n\nsub_0: assembly {\n        /* \"MyToken.sol\":60:6987  contract MyToken {... */\n      mstore(0x40, 0x80)\n      callvalue\n      dup1\n      iszero\n      tag_1\n      jumpi\n      0x00\n      dup1\n      revert\n    tag_1:\n      pop\n      jumpi(tag_2, lt(calldatasize, 0x04))\n      shr(0xe0, calldataload(0x00))\n      dup1\n      0x57f8a100\n      gt\n      tag_22\n      jumpi\n      dup1\n      0x8da5cb5b\n      gt\n      tag_23\n      jumpi\n      dup1\n      0x8da5cb5b\n      eq\n      tag_17\n      jumpi\n      dup1\n      0x95d89b41\n      eq\n      tag_18\n      jumpi\n      dup1\n      0xa9059cbb\n      eq\n      tag_19\n      jumpi\n      dup1\n      0xd0d28fc2\n      eq\n      tag_20\n      jumpi\n      dup1\n      0xdd62ed3e\n      eq\n      tag_21\n      jumpi\n      jump(tag_2)\n    tag_23:\n      dup1\n      0x57f8a100\n      eq\n      tag_12\n      jumpi\n      dup1\n      0x5c52265b\n      eq\n      tag_13\n      jumpi\n      dup1\n      0x70a08231\n      eq\n      tag_14\n      jumpi\n      dup1\n      0x71aa85f6\n      eq\n      tag_15\n      jumpi\n      dup1\n      0x816c99de\n      eq\n      tag_16\n      jumpi\n      jump(tag_2)\n    tag_22:\n      dup1\n      0x18160ddd\n      gt\n      tag_24\n      jumpi\n      dup1\n      0x18160ddd\n      eq\n      tag_7\n      jumpi\n      dup1\n      0x23b872dd\n      eq\n      tag_8\n      jumpi\n      dup1\n      0x313ce567\n      eq\n      tag_9\n      jumpi\n      dup1\n      0x469c8110\n      eq\n      tag_10\n      jumpi\n      dup1\n      0x526bf76e\n      eq\n      tag_11\n      jumpi\n      jump(tag_2)\n    tag_24:\n      dup1\n      0x03dd05a7\n      eq\n      tag_3\n      jumpi\n      dup1\n      0x06fdde03\n      eq\n      tag_4\n      jumpi\n      dup1\n      0x0818f44b\n      eq\n      tag_5\n      jumpi\n      dup1\n      0x095ea7b3\n      eq\n      tag_6\n      jumpi\n    tag_2:\n      0x00\n      dup1\n      revert\n        /* \"MyToken.sol\":3697:4854  function transferFromWithMessage(address from, address to, uint256 amount, string memory _message) public returns (bool) {... */\n    tag_3:\n      tag_25\n      0x04\n      dup1\n      calldatasize\n      sub\n      dup2\n      add\n      swap1\n      tag_26\n      swap2\n      swap1\n      tag_27\n      jump\t// in\n    tag_26:\n      tag_28\n      jump\t// in\n    tag_25:\n      mload(0x40)\n      tag_29\n      swap2\n      swap1\n      tag_30\n      jump\t// in\n    tag_29:\n      mload(0x40)\n      dup1\n      swap2\n      sub\n      swap1\n      return\n        /* \"MyToken.sol\":84:117  string public name = \"LearnToken\" */\n    tag_4:\n      tag_31\n      tag_32\n      jump\t// in\n    tag_31:\n      mload(0x40)\n      tag_33\n      swap2\n      swap1\n      tag_34\n      jump\t// in\n    tag_33:\n      mload(0x40)\n      dup1\n      swap2\n      sub\n      swap1\n      return\n        /* \"MyToken.sol\":1835:2878  function transferWithMessage(address to, uint256 amount, string memory _message) public returns (bool) {... */\n    tag_5:\n      tag_35\n      0x04\n      dup1\n      calldatasize\n      sub\n      dup2\n      add\n      swap1\n      tag_36\n      swap2\n      swap1\n      tag_37\n      jump\t// in\n    tag_36:\n      tag_38\n      jump\t// in\n    tag_35:\n      mload(0x40)\n      tag_39\n      swap2\n      swap1\n      tag_30\n      jump\t// in\n    tag_39:\n      mload(0x40)\n      dup1\n      swap2\n      sub\n      swap1\n      return\n        /* \"MyToken.sol\":3027:3232  function approve(address spender, uint256 amount) public returns (bool) {... */\n    tag_6:\n      tag_40\n      0x04\n      dup1\n      calldatasize\n      sub\n      dup2\n      add\n      swap1\n      tag_41\n      swap2\n      swap1\n      tag_42\n      jump\t// in\n    tag_41:\n      tag_43\n      jump\t// in\n    tag_40:\n      mload(0x40)\n      tag_44\n      swap2\n      swap1\n      tag_30\n      jump\t// in\n    tag_44:\n      mload(0x40)\n      dup1\n      swap2\n      sub\n      swap1\n      return\n        /* \"MyToken.sol\":191:217  uint256 public totalSupply */\n    tag_7:\n      tag_45\n      tag_46\n      jump\t// in\n    tag_45:\n      mload(0x40)\n      tag_47\n      swap2\n      swap1\n      tag_48\n      jump\t// in\n    tag_47:\n      mload(0x40)\n      dup1\n      swap2\n      sub\n      swap1\n      return\n        /* \"MyToken.sol\":3240:3685  function transferFrom(address from, address to, uint256 amount) public returns (bool) {... */\n    tag_8:\n      tag_49\n      0x04\n      dup1\n      calldatasize\n      sub\n      dup2\n      add\n      swap1\n      tag_50\n      swap2\n      swap1\n      tag_51\n      jump\t// in\n    tag_50:\n      tag_52\n      jump\t// in\n    tag_49:\n      mload(0x40)\n      tag_53\n      swap2\n      swap1\n      tag_30\n      jump\t// in\n    tag_53:\n      mload(0x40)\n      dup1\n      swap2\n      sub\n      swap1\n      return\n        /* \"MyToken.sol\":158:184  uint8 public decimals = 18 */\n    tag_9:\n      tag_54\n      tag_55\n      jump\t// in\n    tag_54:\n      mload(0x40)\n      tag_56\n      swap2\n      swap1\n      tag_57\n      jump\t// in\n    tag_56:\n      mload(0x40)\n      dup1\n      swap2\n      sub\n      swap1\n      return\n        /* \"MyToken.sol\":4956:5098  function sendMessage(string memory _message) public {... */\n    tag_10:\n      tag_58\n      0x04\n      dup1\n      calldatasize\n      sub\n      dup2\n      add\n      swap1\n      tag_59\n      swap2\n      swap1\n      tag_60\n      jump\t// in\n    tag_59:\n      tag_61\n      jump\t// in\n    tag_58:\n      stop\n        /* \"MyToken.sol\":5173:5272  function getLastMessage() public view returns (string memory) {... */\n    tag_11:\n      tag_62\n      tag_63\n      jump\t// in\n    tag_62:\n      mload(0x40)\n      tag_64\n      swap2\n      swap1\n      tag_34\n      jump\t// in\n    tag_64:\n      mload(0x40)\n      dup1\n      swap2\n      sub\n      swap1\n      return\n        /* \"MyToken.sol\":6455:6984  function getLastMessageAndTransfer() public view returns (... */\n    tag_12:\n      tag_65\n      tag_66\n      jump\t// in\n    tag_65:\n      mload(0x40)\n      tag_67\n      swap7\n      swap6\n      swap5\n      swap4\n      swap3\n      swap2\n      swap1\n      tag_68\n      jump\t// in\n    tag_67:\n      mload(0x40)\n      dup1\n      swap2\n      sub\n      swap1\n      return\n        /* \"MyToken.sol\":5751:5864  function getTransferHistoryCount() public view returns (uint256) {... */\n    tag_13:\n      tag_69\n      tag_70\n      jump\t// in\n    tag_69:\n      mload(0x40)\n      tag_71\n      swap2\n      swap1\n      tag_48\n      jump\t// in\n    tag_71:\n      mload(0x40)\n      dup1\n      swap2\n      sub\n      swap1\n      return\n        /* \"MyToken.sol\":1021:1065  mapping(address => uint256) public balanceOf */\n    tag_14:\n      tag_72\n      0x04\n      dup1\n      calldatasize\n      sub\n      dup2\n      add\n      swap1\n      tag_73\n      swap2\n      swap1\n      tag_74\n      jump\t// in\n    tag_73:\n      tag_75\n      jump\t// in\n    tag_72:\n      mload(0x40)\n      tag_76\n      swap2\n      swap1\n      tag_48\n      jump\t// in\n    tag_76:\n      mload(0x40)\n      dup1\n      swap2\n      sub\n      swap1\n      return\n        /* \"MyToken.sol\":5876:6443  function getTransferWithMessage(uint256 index) public view returns (... */\n    tag_15:\n      tag_77\n      0x04\n      dup1\n      calldatasize\n      sub\n      dup2\n      add\n      swap1\n      tag_78\n      swap2\n      swap1\n      tag_79\n      jump\t// in\n    tag_78:\n      tag_80\n      jump\t// in\n    tag_77:\n      mload(0x40)\n      tag_81\n      swap6\n      swap5\n      swap4\n      swap3\n      swap2\n      swap1\n      tag_82\n      jump\t// in\n    tag_81:\n      mload(0x40)\n      dup1\n      swap2\n      sub\n      swap1\n      return\n        /* \"MyToken.sol\":968:1012  TransferWithMessage[] public transferHistory */\n    tag_16:\n      tag_83\n      0x04\n      dup1\n      calldatasize\n      sub\n      dup2\n      add\n      swap1\n      tag_84\n      swap2\n      swap1\n      tag_79\n      jump\t// in\n    tag_84:\n      tag_85\n      jump\t// in\n    tag_83:\n      mload(0x40)\n      tag_86\n      swap6\n      swap5\n      swap4\n      swap3\n      swap2\n      swap1\n      tag_82\n      jump\t// in\n    tag_86:\n      mload(0x40)\n      dup1\n      swap2\n      sub\n      swap1\n      return\n        /* \"MyToken.sol\":313:333  address public owner */\n    tag_17:\n      tag_87\n      tag_88\n      jump\t// in\n    tag_87:\n      mload(0x40)\n      tag_89\n      swap2\n      swap1\n      tag_90\n      jump\t// in\n    tag_89:\n      mload(0x40)\n      dup1\n      swap2\n      sub\n      swap1\n      return\n        /* \"MyToken.sol\":124:151  string public symbol = \"LR\" */\n    tag_18:\n      tag_91\n      tag_92\n      jump\t// in\n    tag_91:\n      mload(0x40)\n      tag_93\n      swap2\n      swap1\n      tag_34\n      jump\t// in\n    tag_93:\n      mload(0x40)\n      dup1\n      swap2\n      sub\n      swap1\n      return\n        /* \"MyToken.sol\":2890:3019  function transfer(address to, uint256 amount) public returns (bool) {... */\n    tag_19:\n      tag_94\n      0x04\n      dup1\n      calldatasize\n      sub\n      dup2\n      add\n      swap1\n      tag_95\n      swap2\n      swap1\n      tag_42\n      jump\t// in\n    tag_95:\n      tag_96\n      jump\t// in\n    tag_94:\n      mload(0x40)\n      tag_97\n      swap2\n      swap1\n      tag_30\n      jump\t// in\n    tag_97:\n      mload(0x40)\n      dup1\n      swap2\n      sub\n      swap1\n      return\n        /* \"MyToken.sol\":5284:5739  function getLastTransferWithMessage() public view returns (... */\n    tag_20:\n      tag_98\n      tag_99\n      jump\t// in\n    tag_98:\n      mload(0x40)\n      tag_100\n      swap6\n      swap5\n      swap4\n      swap3\n      swap2\n      swap1\n      tag_82\n      jump\t// in\n    tag_100:\n      mload(0x40)\n      dup1\n      swap2\n      sub\n      swap1\n      return\n        /* \"MyToken.sol\":1072:1136  mapping(address => mapping(address => uint256)) public allowance */\n    tag_21:\n      tag_101\n      0x04\n      dup1\n      calldatasize\n      sub\n      dup2\n      add\n      swap1\n      tag_102\n      swap2\n      swap1\n      tag_103\n      jump\t// in\n    tag_102:\n      tag_104\n      jump\t// in\n    tag_101:\n      mload(0x40)\n      tag_105\n      swap2\n      swap1\n      tag_48\n      jump\t// in\n    tag_105:\n      mload(0x40)\n      dup1\n      swap2\n      sub\n      swap1\n      return\n        /* \"MyToken.sol\":3697:4854  function transferFromWithMessage(address from, address to, uint256 amount, string memory _message) public returns (bool) {... */\n    tag_28:\n        /* \"MyToken.sol\":3812:3816  bool */\n      0x00\n        /* \"MyToken.sol\":3856:3862  amount */\n      dup3\n        /* \"MyToken.sol\":3837:3846  balanceOf */\n      0x0c\n        /* \"MyToken.sol\":3837:3852  balanceOf[from] */\n      0x00\n        /* \"MyToken.sol\":3847:3851  from */\n      dup8\n        /* \"MyToken.sol\":3837:3852  balanceOf[from] */\n      0xffffffffffffffffffffffffffffffffffffffff\n      and\n      0xffffffffffffffffffffffffffffffffffffffff\n      and\n      dup2\n      mstore\n      0x20\n      add\n      swap1\n      dup2\n      mstore\n      0x20\n      add\n      0x00\n      keccak256\n      sload\n        /* \"MyToken.sol\":3837:3862  balanceOf[from] >= amount */\n      lt\n      iszero\n        /* \"MyToken.sol\":3829:3885  require(balanceOf[from] >= amount, \"Not enough balance\") */\n      tag_107\n      jumpi\n      mload(0x40)\n      0x08c379a000000000000000000000000000000000000000000000000000000000\n      dup2\n      mstore\n      0x04\n      add\n      tag_108\n      swap1\n      tag_109\n      jump\t// in\n    tag_108:\n      mload(0x40)\n      dup1\n      swap2\n      sub\n      swap1\n      revert\n    tag_107:\n        /* \"MyToken.sol\":3935:3941  amount */\n      dup3\n        /* \"MyToken.sol\":3904:3913  allowance */\n      0x0d\n        /* \"MyToken.sol\":3904:3919  allowance[from] */\n      0x00\n        /* \"MyToken.sol\":3914:3918  from */\n      dup8\n        /* \"MyToken.sol\":3904:3919  allowance[from] */\n      0xffffffffffffffffffffffffffffffffffffffff\n      and\n      0xffffffffffffffffffffffffffffffffffffffff\n      and\n      dup2\n      mstore\n      0x20\n      add\n      swap1\n      dup2\n      mstore\n      0x20\n      add\n      0x00\n      keccak256\n        /* \"MyToken.sol\":3904:3931  allowance[from][msg.sender] */\n      0x00\n        /* \"MyToken.sol\":3920:3930  msg.sender */\n      caller\n        /* \"MyToken.sol\":3904:3931  allowance[from][msg.sender] */\n      0xffffffffffffffffffffffffffffffffffffffff\n      and\n      0xffffffffffffffffffffffffffffffffffffffff\n      and\n      dup2\n      mstore\n      0x20\n      add\n      swap1\n      dup2\n      mstore\n      0x20\n      add\n      0x00\n      keccak256\n      sload\n        /* \"MyToken.sol\":3904:3941  allowance[from][msg.sender] >= amount */\n      lt\n      iszero\n        /* \"MyToken.sol\":3896:3963  require(allowance[from][msg.sender] >= amount, \"Allowance too low\") */\n      tag_110\n      jumpi\n      mload(0x40)\n      0x08c379a000000000000000000000000000000000000000000000000000000000\n      dup2\n      mstore\n      0x04\n      add\n      tag_111\n      swap1\n      tag_112\n      jump\t// in\n    tag_111:\n      mload(0x40)\n      dup1\n      swap2\n      sub\n      swap1\n      revert\n    tag_110:\n        /* \"MyToken.sol\":4003:4009  amount */\n      dup3\n        /* \"MyToken.sol\":3984:3993  balanceOf */\n      0x0c\n        /* \"MyToken.sol\":3984:3999  balanceOf[from] */\n      0x00\n        /* \"MyToken.sol\":3994:3998  from */\n      dup8\n        /* \"MyToken.sol\":3984:3999  balanceOf[from] */\n      0xffffffffffffffffffffffffffffffffffffffff\n      and\n      0xffffffffffffffffffffffffffffffffffffffff\n      and\n      dup2\n      mstore\n      0x20\n      add\n      swap1\n      dup2\n      mstore\n      0x20\n      add\n      0x00\n      keccak256\n      0x00\n        /* \"MyToken.sol\":3984:4009  balanceOf[from] -= amount */\n      dup3\n      dup3\n      sload\n      tag_113\n      swap2\n      swap1\n      tag_114\n      jump\t// in\n    tag_113:\n      swap3\n      pop\n      pop\n      dup2\n      swap1\n      sstore\n      pop\n        /* \"MyToken.sol\":4037:4043  amount */\n      dup3\n        /* \"MyToken.sol\":4020:4029  balanceOf */\n      0x0c\n        /* \"MyToken.sol\":4020:4033  balanceOf[to] */\n      0x00\n        /* \"MyToken.sol\":4030:4032  to */\n      dup7\n        /* \"MyToken.sol\":4020:4033  balanceOf[to] */\n      0xffffffffffffffffffffffffffffffffffffffff\n      and\n      0xffffffffffffffffffffffffffffffffffffffff\n      and\n      dup2\n      mstore\n      0x20\n      add\n      swap1\n      dup2\n      mstore\n      0x20\n      add\n      0x00\n      keccak256\n      0x00\n        /* \"MyToken.sol\":4020:4043  balanceOf[to] += amount */\n      dup3\n      dup3\n      sload\n      tag_115\n      swap2\n      swap1\n      tag_116\n      jump\t// in\n    tag_115:\n      swap3\n      pop\n      pop\n      dup2\n      swap1\n      sstore\n      pop\n        /* \"MyToken.sol\":4085:4091  amount */\n      dup3\n        /* \"MyToken.sol\":4054:4063  allowance */\n      0x0d\n        /* \"MyToken.sol\":4054:4069  allowance[from] */\n      0x00\n        /* \"MyToken.sol\":4064:4068  from */\n      dup8\n        /* \"MyToken.sol\":4054:4069  allowance[from] */\n      0xffffffffffffffffffffffffffffffffffffffff\n      and\n      0xffffffffffffffffffffffffffffffffffffffff\n      and\n      dup2\n      mstore\n      0x20\n      add\n      swap1\n      dup2\n      mstore\n      0x20\n      add\n      0x00\n      keccak256\n        /* \"MyToken.sol\":4054:4081  allowance[from][msg.sender] */\n      0x00\n        /* \"MyToken.sol\":4070:4080  msg.sender */\n      caller\n        /* \"MyToken.sol\":4054:4081  allowance[from][msg.sender] */\n      0xffffffffffffffffffffffffffffffffffffffff\n      and\n      0xffffffffffffffffffffffffffffffffffffffff\n      and\n      dup2\n      mstore\n      0x20\n      add\n      swap1\n      dup2\n      mstore\n      0x20\n      add\n      0x00\n      keccak256\n      0x00\n        /* \"MyToken.sol\":4054:4091  allowance[from][msg.sender] -= amount */\n      dup3\n      dup3\n      sload\n      tag_117\n      swap2\n      swap1\n      tag_114\n      jump\t// in\n    tag_117:\n      swap3\n      pop\n      pop\n      dup2\n      swap1\n      sstore\n      pop\n        /* \"MyToken.sol\":4209:4389  TransferWithMessage({... */\n      mload(0x40)\n      dup1\n      0xa0\n      add\n      0x40\n      mstore\n      dup1\n        /* \"MyToken.sol\":4250:4254  from */\n      dup7\n        /* \"MyToken.sol\":4209:4389  TransferWithMessage({... */\n      0xffffffffffffffffffffffffffffffffffffffff\n      and\n      dup2\n      mstore\n      0x20\n      add\n        /* \"MyToken.sol\":4273:4275  to */\n      dup6\n        /* \"MyToken.sol\":4209:4389  TransferWithMessage({... */\n      0xffffffffffffffffffffffffffffffffffffffff\n      and\n      dup2\n      mstore\n      0x20\n      add\n        /* \"MyToken.sol\":4298:4304  amount */\n      dup5\n        /* \"MyToken.sol\":4209:4389  TransferWithMessage({... */\n      dup2\n      mstore\n      0x20\n      add\n        /* \"MyToken.sol\":4328:4336  _message */\n      dup4\n        /* \"MyToken.sol\":4209:4389  TransferWithMessage({... */\n      dup2\n      mstore\n      0x20\n      add\n        /* \"MyToken.sol\":4362:4377  block.timestamp */\n      timestamp\n        /* \"MyToken.sol\":4209:4389  TransferWithMessage({... */\n      dup2\n      mstore\n      pop\n        /* \"MyToken.sol\":4183:4206  lastTransferWithMessage */\n      0x06\n        /* \"MyToken.sol\":4183:4389  lastTransferWithMessage = TransferWithMessage({... */\n      0x00\n      dup3\n      add\n      mload\n      dup2\n      0x00\n      add\n      exp(0x0100, 0x00)\n      dup2\n      sload\n      dup2\n      0xffffffffffffffffffffffffffffffffffffffff\n      mul\n      not\n      and\n      swap1\n      dup4\n      0xffffffffffffffffffffffffffffffffffffffff\n      and\n      mul\n      or\n      swap1\n      sstore\n      pop\n      0x20\n      dup3\n      add\n      mload\n      dup2\n      0x01\n      add\n      exp(0x0100, 0x00)\n      dup2\n      sload\n      dup2\n      0xffffffffffffffffffffffffffffffffffffffff\n      mul\n      not\n      and\n      swap1\n      dup4\n      0xffffffffffffffffffffffffffffffffffffffff\n      and\n      mul\n      or\n      swap1\n      sstore\n      pop\n      0x40\n      dup3\n      add\n      mload\n      dup2\n      0x02\n      add\n      sstore\n      0x60\n      dup3\n      add\n      mload\n      dup2\n      0x03\n      add\n      swap1\n      dup2\n      tag_118\n      swap2\n      swap1\n      tag_119\n      jump\t// in\n    tag_118:\n      pop\n      0x80\n      dup3\n      add\n      mload\n      dup2\n      0x04\n      add\n      sstore\n      swap1\n      pop\n      pop\n        /* \"MyToken.sol\":4478:4493  transferHistory */\n      0x0b\n        /* \"MyToken.sol\":4499:4522  lastTransferWithMessage */\n      0x06\n        /* \"MyToken.sol\":4478:4523  transferHistory.push(lastTransferWithMessage) */\n      swap1\n      dup1\n      0x01\n      dup2\n      sload\n      add\n      dup1\n      dup3\n      sstore\n      dup1\n      swap2\n      pop\n      pop\n      0x01\n      swap1\n      sub\n      swap1\n      0x00\n      mstore\n      keccak256(0x00, 0x20)\n      swap1\n      0x05\n      mul\n      add\n      0x00\n      swap1\n      swap2\n      swap1\n      swap2\n      swap1\n      swap2\n      pop\n      0x00\n      dup3\n      add\n      0x00\n      swap1\n      sload\n      swap1\n      0x0100\n      exp\n      swap1\n      div\n      0xffffffffffffffffffffffffffffffffffffffff\n      and\n      dup2\n      0x00\n      add\n      exp(0x0100, 0x00)\n      dup2\n      sload\n      dup2\n      0xffffffffffffffffffffffffffffffffffffffff\n      mul\n      not\n      and\n      swap1\n      dup4\n      0xffffffffffffffffffffffffffffffffffffffff\n      and\n      mul\n      or\n      swap1\n      sstore\n      pop\n      0x01\n      dup3\n      add\n      0x00\n      swap1\n      sload\n      swap1\n      0x0100\n      exp\n      swap1\n      div\n      0xffffffffffffffffffffffffffffffffffffffff\n      and\n      dup2\n      0x01\n      add\n      exp(0x0100, 0x00)\n      dup2\n      sload\n      dup2\n      0xffffffffffffffffffffffffffffffffffffffff\n      mul\n      not\n      and\n      swap1\n      dup4\n      0xffffffffffffffffffffffffffffffffffffffff\n      and\n      mul\n      or\n      swap1\n      sstore\n      pop\n      0x02\n      dup3\n      add\n      sload\n      dup2\n      0x02\n      add\n      sstore\n      0x03\n      dup3\n      add\n      dup2\n      0x03\n      add\n      swap1\n      dup2\n      tag_121\n      swap2\n      swap1\n      tag_122\n      jump\t// in\n    tag_121:\n      pop\n      0x04\n      dup3\n      add\n      sload\n      dup2\n      0x04\n      add\n      sstore\n      pop\n      pop\n        /* \"MyToken.sol\":4627:4635  _message */\n      dup2\n        /* \"MyToken.sol\":4613:4624  lastMessage */\n      0x05\n        /* \"MyToken.sol\":4613:4635  lastMessage = _message */\n      swap1\n      dup2\n      tag_123\n      swap2\n      swap1\n      tag_119\n      jump\t// in\n    tag_123:\n      pop\n        /* \"MyToken.sol\":4676:4678  to */\n      dup4\n        /* \"MyToken.sol\":4661:4697  Transfer(from, to, amount, _message) */\n      0xffffffffffffffffffffffffffffffffffffffff\n      and\n        /* \"MyToken.sol\":4670:4674  from */\n      dup6\n        /* \"MyToken.sol\":4661:4697  Transfer(from, to, amount, _message) */\n      0xffffffffffffffffffffffffffffffffffffffff\n      and\n      0xcd6e659e4c2e75c3bfe47fecaccf39aeb368116a0ee52afb532e07f6cba6c0d1\n        /* \"MyToken.sol\":4680:4686  amount */\n      dup6\n        /* \"MyToken.sol\":4688:4696  _message */\n      dup6\n        /* \"MyToken.sol\":4661:4697  Transfer(from, to, amount, _message) */\n      mload(0x40)\n      tag_124\n      swap3\n      swap2\n      swap1\n      tag_125\n      jump\t// in\n    tag_124:\n      mload(0x40)\n      dup1\n      swap2\n      sub\n      swap1\n      log3\n        /* \"MyToken.sol\":4744:4746  to */\n      dup4\n        /* \"MyToken.sol\":4713:4765  TransferWithMessageEvent(from, to, amount, _message) */\n      0xffffffffffffffffffffffffffffffffffffffff\n      and\n        /* \"MyToken.sol\":4738:4742  from */\n      dup6\n        /* \"MyToken.sol\":4713:4765  TransferWithMessageEvent(from, to, amount, _message) */\n      0xffffffffffffffffffffffffffffffffffffffff\n      and\n      0xe4dedac3a07f2356c44fc19d9395db74f56297c32531d64263ff541abb8ef461\n        /* \"MyToken.sol\":4748:4754  amount */\n      dup6\n        /* \"MyToken.sol\":4756:4764  _message */\n      dup6\n        /* \"MyToken.sol\":4713:4765  TransferWithMessageEvent(from, to, amount, _message) */\n      mload(0x40)\n      tag_126\n      swap3\n      swap2\n      swap1\n      tag_125\n      jump\t// in\n    tag_126:\n      mload(0x40)\n      dup1\n      swap2\n      sub\n      swap1\n      log3\n        /* \"MyToken.sol\":4793:4803  msg.sender */\n      caller\n        /* \"MyToken.sol\":4781:4814  MessageSent(msg.sender, _message) */\n      0xffffffffffffffffffffffffffffffffffffffff\n      and\n      0x0d7fccda06d6eb51c23cbd16d49b9b3f3ebafb002dba1b074895cbb35d0e8130\n        /* \"MyToken.sol\":4805:4813  _message */\n      dup4\n        /* \"MyToken.sol\":4781:4814  MessageSent(msg.sender, _message) */\n      mload(0x40)\n      tag_127\n      swap2\n      swap1\n      tag_34\n      jump\t// in\n    tag_127:\n      mload(0x40)\n      dup1\n      swap2\n      sub\n      swap1\n      log2\n        /* \"MyToken.sol\":4842:4846  true */\n      0x01\n        /* \"MyToken.sol\":4835:4846  return true */\n      swap1\n      pop\n        /* \"MyToken.sol\":3697:4854  function transferFromWithMessage(address from, address to, uint256 amount, string memory _message) public returns (bool) {... */\n      swap5\n      swap4\n      pop\n      pop\n      pop\n      pop\n      jump\t// out\n        /* \"MyToken.sol\":84:117  string public name = \"LearnToken\" */\n    tag_32:\n      0x00\n      dup1\n      sload\n      tag_128\n      swap1\n      tag_129\n      jump\t// in\n    tag_128:\n      dup1\n      0x1f\n      add\n      0x20\n      dup1\n      swap2\n      div\n      mul\n      0x20\n      add\n      mload(0x40)\n      swap1\n      dup2\n      add\n      0x40\n      mstore\n      dup1\n      swap3\n      swap2\n      swap1\n      dup2\n      dup2\n      mstore\n      0x20\n      add\n      dup3\n      dup1\n      sload\n      tag_130\n      swap1\n      tag_129\n      jump\t// in\n    tag_130:\n      dup1\n      iszero\n      tag_131\n      jumpi\n      dup1\n      0x1f\n      lt\n      tag_132\n      jumpi\n      0x0100\n      dup1\n      dup4\n      sload\n      div\n      mul\n      dup4\n      mstore\n      swap2\n      0x20\n      add\n      swap2\n      jump(tag_131)\n    tag_132:\n      dup3\n      add\n      swap2\n      swap1\n      0x00\n      mstore\n      keccak256(0x00, 0x20)\n      swap1\n    tag_133:\n      dup2\n      sload\n      dup2\n      mstore\n      swap1\n      0x01\n      add\n      swap1\n      0x20\n      add\n      dup1\n      dup4\n      gt\n      tag_133\n      jumpi\n      dup3\n      swap1\n      sub\n      0x1f\n      and\n      dup3\n      add\n      swap2\n    tag_131:\n      pop\n      pop\n      pop\n      pop\n      pop\n      dup2\n      jump\t// out\n        /* \"MyToken.sol\":1835:2878  function transferWithMessage(address to, uint256 amount, string memory _message) public returns (bool) {... */\n    tag_38:\n        /* \"MyToken.sol\":1932:1936  bool */\n      0x00\n        /* \"MyToken.sol\":1982:1988  amount */\n      dup3\n        /* \"MyToken.sol\":1957:1966  balanceOf */\n      0x0c\n        /* \"MyToken.sol\":1957:1978  balanceOf[msg.sender] */\n      0x00\n        /* \"MyToken.sol\":1967:1977  msg.sender */\n      caller\n        /* \"MyToken.sol\":1957:1978  balanceOf[msg.sender] */\n      0xffffffffffffffffffffffffffffffffffffffff\n      and\n      0xffffffffffffffffffffffffffffffffffffffff\n      and\n      dup2\n      mstore\n      0x20\n      add\n      swap1\n      dup2\n      mstore\n      0x20\n      add\n      0x00\n      keccak256\n      sload\n        /* \"MyToken.sol\":1957:1988  balanceOf[msg.sender] >= amount */\n      lt\n      iszero\n        /* \"MyToken.sol\":1949:2011  require(balanceOf[msg.sender] >= amount, \"Not enough balance\") */\n      tag_135\n      jumpi\n      mload(0x40)\n      0x08c379a000000000000000000000000000000000000000000000000000000000\n      dup2\n      mstore\n      0x04\n      add\n      tag_136\n      swap1\n      tag_109\n      jump\t// in\n    tag_136:\n      mload(0x40)\n      dup1\n      swap2\n      sub\n      swap1\n      revert\n    tag_135:\n        /* \"MyToken.sol\":2057:2063  amount */\n      dup3\n        /* \"MyToken.sol\":2032:2041  balanceOf */\n      0x0c\n        /* \"MyToken.sol\":2032:2053  balanceOf[msg.sender] */\n      0x00\n        /* \"MyToken.sol\":2042:2052  msg.sender */\n      caller\n        /* \"MyToken.sol\":2032:2053  balanceOf[msg.sender] */\n      0xffffffffffffffffffffffffffffffffffffffff\n      and\n      0xffffffffffffffffffffffffffffffffffffffff\n      and\n      dup2\n      mstore\n      0x20\n      add\n      swap1\n      dup2\n      mstore\n      0x20\n      add\n      0x00\n      keccak256\n      0x00\n        /* \"MyToken.sol\":2032:2063  balanceOf[msg.sender] -= amount */\n      dup3\n      dup3\n      sload\n      tag_137\n      swap2\n      swap1\n      tag_114\n      jump\t// in\n    tag_137:\n      swap3\n      pop\n      pop\n      dup2\n      swap1\n      sstore\n      pop\n        /* \"MyToken.sol\":2091:2097  amount */\n      dup3\n        /* \"MyToken.sol\":2074:2083  balanceOf */\n      0x0c\n        /* \"MyToken.sol\":2074:2087  balanceOf[to] */\n      0x00\n        /* \"MyToken.sol\":2084:2086  to */\n      dup7\n        /* \"MyToken.sol\":2074:2087  balanceOf[to] */\n      0xffffffffffffffffffffffffffffffffffffffff\n      and\n      0xffffffffffffffffffffffffffffffffffffffff\n      and\n      dup2\n      mstore\n      0x20\n      add\n      swap1\n      dup2\n      mstore\n      0x20\n      add\n      0x00\n      keccak256\n      0x00\n        /* \"MyToken.sol\":2074:2097  balanceOf[to] += amount */\n      dup3\n      dup3\n      sload\n      tag_138\n      swap2\n      swap1\n      tag_116\n      jump\t// in\n    tag_138:\n      swap3\n      pop\n      pop\n      dup2\n      swap1\n      sstore\n      pop\n        /* \"MyToken.sol\":2215:2401  TransferWithMessage({... */\n      mload(0x40)\n      dup1\n      0xa0\n      add\n      0x40\n      mstore\n      dup1\n        /* \"MyToken.sol\":2256:2266  msg.sender */\n      caller\n        /* \"MyToken.sol\":2215:2401  TransferWithMessage({... */\n      0xffffffffffffffffffffffffffffffffffffffff\n      and\n      dup2\n      mstore\n      0x20\n      add\n        /* \"MyToken.sol\":2285:2287  to */\n      dup6\n        /* \"MyToken.sol\":2215:2401  TransferWithMessage({... */\n      0xffffffffffffffffffffffffffffffffffffffff\n      and\n      dup2\n      mstore\n      0x20\n      add\n        /* \"MyToken.sol\":2310:2316  amount */\n      dup5\n        /* \"MyToken.sol\":2215:2401  TransferWithMessage({... */\n      dup2\n      mstore\n      0x20\n      add\n        /* \"MyToken.sol\":2340:2348  _message */\n      dup4\n        /* \"MyToken.sol\":2215:2401  TransferWithMessage({... */\n      dup2\n      mstore\n      0x20\n      add\n        /* \"MyToken.sol\":2374:2389  block.timestamp */\n      timestamp\n        /* \"MyToken.sol\":2215:2401  TransferWithMessage({... */\n      dup2\n      mstore\n      pop\n        /* \"MyToken.sol\":2189:2212  lastTransferWithMessage */\n      0x06\n        /* \"MyToken.sol\":2189:2401  lastTransferWithMessage = TransferWithMessage({... */\n      0x00\n      dup3\n      add\n      mload\n      dup2\n      0x00\n      add\n      exp(0x0100, 0x00)\n      dup2\n      sload\n      dup2\n      0xffffffffffffffffffffffffffffffffffffffff\n      mul\n      not\n      and\n      swap1\n      dup4\n      0xffffffffffffffffffffffffffffffffffffffff\n      and\n      mul\n      or\n      swap1\n      sstore\n      pop\n      0x20\n      dup3\n      add\n      mload\n      dup2\n      0x01\n      add\n      exp(0x0100, 0x00)\n      dup2\n      sload\n      dup2\n      0xffffffffffffffffffffffffffffffffffffffff\n      mul\n      not\n      and\n      swap1\n      dup4\n      0xffffffffffffffffffffffffffffffffffffffff\n      and\n      mul\n      or\n      swap1\n      sstore\n      pop\n      0x40\n      dup3\n      add\n      mload\n      dup2\n      0x02\n      add\n      sstore\n      0x60\n      dup3\n      add\n      mload\n      dup2\n      0x03\n      add\n      swap1\n      dup2\n      tag_139\n      swap2\n      swap1\n      tag_119\n      jump\t// in\n    tag_139:\n      pop\n      0x80\n      dup3\n      add\n      mload\n      dup2\n      0x04\n      add\n      sstore\n      swap1\n      pop\n      pop\n        /* \"MyToken.sol\":2490:2505  transferHistory */\n      0x0b\n        /* \"MyToken.sol\":2511:2534  lastTransferWithMessage */\n      0x06\n        /* \"MyToken.sol\":2490:2535  transferHistory.push(lastTransferWithMessage) */\n      swap1\n      dup1\n      0x01\n      dup2\n      sload\n      add\n      dup1\n      dup3\n      sstore\n      dup1\n      swap2\n      pop\n      pop\n      0x01\n      swap1\n      sub\n      swap1\n      0x00\n      mstore\n      keccak256(0x00, 0x20)\n      swap1\n      0x05\n      mul\n      add\n      0x00\n      swap1\n      swap2\n      swap1\n      swap2\n      swap1\n      swap2\n      pop\n      0x00\n      dup3\n      add\n      0x00\n      swap1\n      sload\n      swap1\n      0x0100\n      exp\n      swap1\n      div\n      0xffffffffffffffffffffffffffffffffffffffff\n      and\n      dup2\n      0x00\n      add\n      exp(0x0100, 0x00)\n      dup2\n      sload\n      dup2\n      0xffffffffffffffffffffffffffffffffffffffff\n      mul\n      not\n      and\n      swap1\n      dup4\n      0xffffffffffffffffffffffffffffffffffffffff\n      and\n      mul\n      or\n      swap1\n      sstore\n      pop\n      0x01\n      dup3\n      add\n      0x00\n      swap1\n      sload\n      swap1\n      0x0100\n      exp\n      swap1\n      div\n      0xffffffffffffffffffffffffffffffffffffffff\n      and\n      dup2\n      0x01\n      add\n      exp(0x0100, 0x00)\n      dup2\n      sload\n      dup2\n      0xffffffffffffffffffffffffffffffffffffffff\n      mul\n      not\n      and\n      swap1\n      dup4\n      0xffffffffffffffffffffffffffffffffffffffff\n      and\n      mul\n      or\n      swap1\n      sstore\n      pop\n      0x02\n      dup3\n      add\n      sload\n      dup2\n      0x02\n      add\n      sstore\n      0x03\n      dup3\n      add\n      dup2\n      0x03\n      add\n      swap1\n      dup2\n      tag_141\n      swap2\n      swap1\n      tag_122\n      jump\t// in\n    tag_141:\n      pop\n      0x04\n      dup3\n      add\n      sload\n      dup2\n      0x04\n      add\n      sstore\n      pop\n      pop\n        /* \"MyToken.sol\":2639:2647  _message */\n      dup2\n        /* \"MyToken.sol\":2625:2636  lastMessage */\n      0x05\n        /* \"MyToken.sol\":2625:2647  lastMessage = _message */\n      swap1\n      dup2\n      tag_142\n      swap2\n      swap1\n      tag_119\n      jump\t// in\n    tag_142:\n      pop\n        /* \"MyToken.sol\":2694:2696  to */\n      dup4\n        /* \"MyToken.sol\":2673:2715  Transfer(msg.sender, to, amount, _message) */\n      0xffffffffffffffffffffffffffffffffffffffff\n      and\n        /* \"MyToken.sol\":2682:2692  msg.sender */\n      caller\n        /* \"MyToken.sol\":2673:2715  Transfer(msg.sender, to, amount, _message) */\n      0xffffffffffffffffffffffffffffffffffffffff\n      and\n      0xcd6e659e4c2e75c3bfe47fecaccf39aeb368116a0ee52afb532e07f6cba6c0d1\n        /* \"MyToken.sol\":2698:2704  amount */\n      dup6\n        /* \"MyToken.sol\":2706:2714  _message */\n      dup6\n        /* \"MyToken.sol\":2673:2715  Transfer(msg.sender, to, amount, _message) */\n      mload(0x40)\n      tag_143\n      swap3\n      swap2\n      swap1\n      tag_125\n      jump\t// in\n    tag_143:\n      mload(0x40)\n      dup1\n      swap2\n      sub\n      swap1\n      log3\n        /* \"MyToken.sol\":2768:2770  to */\n      dup4\n        /* \"MyToken.sol\":2731:2789  TransferWithMessageEvent(msg.sender, to, amount, _message) */\n      0xffffffffffffffffffffffffffffffffffffffff\n      and\n        /* \"MyToken.sol\":2756:2766  msg.sender */\n      caller\n        /* \"MyToken.sol\":2731:2789  TransferWithMessageEvent(msg.sender, to, amount, _message) */\n      0xffffffffffffffffffffffffffffffffffffffff\n      and\n      0xe4dedac3a07f2356c44fc19d9395db74f56297c32531d64263ff541abb8ef461\n        /* \"MyToken.sol\":2772:2778  amount */\n      dup6\n        /* \"MyToken.sol\":2780:2788  _message */\n      dup6\n        /* \"MyToken.sol\":2731:2789  TransferWithMessageEvent(msg.sender, to, amount, _message) */\n      mload(0x40)\n      tag_144\n      swap3\n      swap2\n      swap1\n      tag_125\n      jump\t// in\n    tag_144:\n      mload(0x40)\n      dup1\n      swap2\n      sub\n      swap1\n      log3\n        /* \"MyToken.sol\":2817:2827  msg.sender */\n      caller\n        /* \"MyToken.sol\":2805:2838  MessageSent(msg.sender, _message) */\n      0xffffffffffffffffffffffffffffffffffffffff\n      and\n      0x0d7fccda06d6eb51c23cbd16d49b9b3f3ebafb002dba1b074895cbb35d0e8130\n        /* \"MyToken.sol\":2829:2837  _message */\n      dup4\n        /* \"MyToken.sol\":2805:2838  MessageSent(msg.sender, _message) */\n      mload(0x40)\n      tag_145\n      swap2\n      swap1\n      tag_34\n      jump\t// in\n    tag_145:\n      mload(0x40)\n      dup1\n      swap2\n      sub\n      swap1\n      log2\n        /* \"MyToken.sol\":2866:2870  true */\n      0x01\n        /* \"MyToken.sol\":2859:2870  return true */\n      swap1\n      pop\n        /* \"MyToken.sol\":1835:2878  function transferWithMessage(address to, uint256 amount, string memory _message) public returns (bool) {... */\n      swap4\n      swap3\n      pop\n      pop\n      pop\n      jump\t// out\n        /* \"MyToken.sol\":3027:3232  function approve(address spender, uint256 amount) public returns (bool) {... */\n    tag_43:\n        /* \"MyToken.sol\":3093:3097  bool */\n      0x00\n        /* \"MyToken.sol\":3143:3149  amount */\n      dup2\n        /* \"MyToken.sol\":3110:3119  allowance */\n      0x0d\n        /* \"MyToken.sol\":3110:3131  allowance[msg.sender] */\n      0x00\n        /* \"MyToken.sol\":3120:3130  msg.sender */\n      caller\n        /* \"MyToken.sol\":3110:3131  allowance[msg.sender] */\n      0xffffffffffffffffffffffffffffffffffffffff\n      and\n      0xffffffffffffffffffffffffffffffffffffffff\n      and\n      dup2\n      mstore\n      0x20\n      add\n      swap1\n      dup2\n      mstore\n      0x20\n      add\n      0x00\n      keccak256\n        /* \"MyToken.sol\":3110:3140  allowance[msg.sender][spender] */\n      0x00\n        /* \"MyToken.sol\":3132:3139  spender */\n      dup6\n        /* \"MyToken.sol\":3110:3140  allowance[msg.sender][spender] */\n      0xffffffffffffffffffffffffffffffffffffffff\n      and\n      0xffffffffffffffffffffffffffffffffffffffff\n      and\n      dup2\n      mstore\n      0x20\n      add\n      swap1\n      dup2\n      mstore\n      0x20\n      add\n      0x00\n      keccak256\n        /* \"MyToken.sol\":3110:3149  allowance[msg.sender][spender] = amount */\n      dup2\n      swap1\n      sstore\n      pop\n        /* \"MyToken.sol\":3186:3193  spender */\n      dup3\n        /* \"MyToken.sol\":3165:3202  Approval(msg.sender, spender, amount) */\n      0xffffffffffffffffffffffffffffffffffffffff\n      and\n        /* \"MyToken.sol\":3174:3184  msg.sender */\n      caller\n        /* \"MyToken.sol\":3165:3202  Approval(msg.sender, spender, amount) */\n      0xffffffffffffffffffffffffffffffffffffffff\n      and\n      0x8c5be1e5ebec7d5bd14f71427d1e84f3dd0314c0f7b2291e5b200ac8c7c3b925\n        /* \"MyToken.sol\":3195:3201  amount */\n      dup5\n        /* \"MyToken.sol\":3165:3202  Approval(msg.sender, spender, amount) */\n      mload(0x40)\n      tag_147\n      swap2\n      swap1\n      tag_48\n      jump\t// in\n    tag_147:\n      mload(0x40)\n      dup1\n      swap2\n      sub\n      swap1\n      log3\n        /* \"MyToken.sol\":3220:3224  true */\n      0x01\n        /* \"MyToken.sol\":3213:3224  return true */\n      swap1\n      pop\n        /* \"MyToken.sol\":3027:3232  function approve(address spender, uint256 amount) public returns (bool) {... */\n      swap3\n      swap2\n      pop\n      pop\n      jump\t// out\n        /* \"MyToken.sol\":191:217  uint256 public totalSupply */\n    tag_46:\n      sload(0x03)\n      dup2\n      jump\t// out\n        /* \"MyToken.sol\":3240:3685  function transferFrom(address from, address to, uint256 amount) public returns (bool) {... */\n    tag_52:\n        /* \"MyToken.sol\":3320:3324  bool */\n      0x00\n        /* \"MyToken.sol\":3364:3370  amount */\n      dup2\n        /* \"MyToken.sol\":3345:3354  balanceOf */\n      0x0c\n        /* \"MyToken.sol\":3345:3360  balanceOf[from] */\n      0x00\n        /* \"MyToken.sol\":3355:3359  from */\n      dup7\n        /* \"MyToken.sol\":3345:3360  balanceOf[from] */\n      0xffffffffffffffffffffffffffffffffffffffff\n      and\n      0xffffffffffffffffffffffffffffffffffffffff\n      and\n      dup2\n      mstore\n      0x20\n      add\n      swap1\n      dup2\n      mstore\n      0x20\n      add\n      0x00\n      keccak256\n      sload\n        /* \"MyToken.sol\":3345:3370  balanceOf[from] >= amount */\n      lt\n      iszero\n        /* \"MyToken.sol\":3337:3393  require(balanceOf[from] >= amount, \"Not enough balance\") */\n      tag_149\n      jumpi\n      mload(0x40)\n      0x08c379a000000000000000000000000000000000000000000000000000000000\n      dup2\n      mstore\n      0x04\n      add\n      tag_150\n      swap1\n      tag_109\n      jump\t// in\n    tag_150:\n      mload(0x40)\n      dup1\n      swap2\n      sub\n      swap1\n      revert\n    tag_149:\n        /* \"MyToken.sol\":3443:3449  amount */\n      dup2\n        /* \"MyToken.sol\":3412:3421  allowance */\n      0x0d\n        /* \"MyToken.sol\":3412:3427  allowance[from] */\n      0x00\n        /* \"MyToken.sol\":3422:3426  from */\n      dup7\n        /* \"MyToken.sol\":3412:3427  allowance[from] */\n      0xffffffffffffffffffffffffffffffffffffffff\n      and\n      0xffffffffffffffffffffffffffffffffffffffff\n      and\n      dup2\n      mstore\n      0x20\n      add\n      swap1\n      dup2\n      mstore\n      0x20\n      add\n      0x00\n      keccak256\n        /* \"MyToken.sol\":3412:3439  allowance[from][msg.sender] */\n      0x00\n        /* \"MyToken.sol\":3428:3438  msg.sender */\n      caller\n        /* \"MyToken.sol\":3412:3439  allowance[from][msg.sender] */\n      0xffffffffffffffffffffffffffffffffffffffff\n      and\n      0xffffffffffffffffffffffffffffffffffffffff\n      and\n      dup2\n      mstore\n      0x20\n      add\n      swap1\n      dup2\n      mstore\n      0x20\n      add\n      0x00\n      keccak256\n      sload\n        /* \"MyToken.sol\":3412:3449  allowance[from][msg.sender] >= amount */\n      lt\n      iszero\n        /* \"MyToken.sol\":3404:3471  require(allowance[from][msg.sender] >= amount, \"Allowance too low\") */\n      tag_151\n      jumpi\n      mload(0x40)\n      0x08c379a000000000000000000000000000000000000000000000000000000000\n      dup2\n      mstore\n      0x04\n      add\n      tag_152\n      swap1\n      tag_112\n      jump\t// in\n    tag_152:\n      mload(0x40)\n      dup1\n      swap2\n      sub\n      swap1\n      revert\n    tag_151:\n        /* \"MyToken.sol\":3511:3517  amount */\n      dup2\n        /* \"MyToken.sol\":3492:3501  balanceOf */\n      0x0c\n        /* \"MyToken.sol\":3492:3507  balanceOf[from] */\n      0x00\n        /* \"MyToken.sol\":3502:3506  from */\n      dup7\n        /* \"MyToken.sol\":3492:3507  balanceOf[from] */\n      0xffffffffffffffffffffffffffffffffffffffff\n      and\n      0xffffffffffffffffffffffffffffffffffffffff\n      and\n      dup2\n      mstore\n      0x20\n      add\n      swap1\n      dup2\n      mstore\n      0x20\n      add\n      0x00\n      keccak256\n      0x00\n        /* \"MyToken.sol\":3492:3517  balanceOf[from] -= amount */\n      dup3\n      dup3\n      sload\n      tag_153\n      swap2\n      swap1\n      tag_114\n      jump\t// in\n    tag_153:\n      swap3\n      pop\n      pop\n      dup2\n      swap1\n      sstore\n      pop\n        /* \"MyToken.sol\":3545:3551  amount */\n      dup2\n        /* \"MyToken.sol\":3528:3537  balanceOf */\n      0x0c\n        /* \"MyToken.sol\":3528:3541  balanceOf[to] */\n      0x00\n        /* \"MyToken.sol\":3538:3540  to */\n      dup6\n        /* \"MyToken.sol\":3528:3541  balanceOf[to] */\n      0xffffffffffffffffffffffffffffffffffffffff\n      and\n      0xffffffffffffffffffffffffffffffffffffffff\n      and\n      dup2\n      mstore\n      0x20\n      add\n      swap1\n      dup2\n      mstore\n      0x20\n      add\n      0x00\n      keccak256\n      0x00\n        /* \"MyToken.sol\":3528:3551  balanceOf[to] += amount */\n      dup3\n      dup3\n      sload\n      tag_154\n      swap2\n      swap1\n      tag_116\n      jump\t// in\n    tag_154:\n      swap3\n      pop\n      pop\n      dup2\n      swap1\n      sstore\n      pop\n        /* \"MyToken.sol\":3593:3599  amount */\n      dup2\n        /* \"MyToken.sol\":3562:3571  allowance */\n      0x0d\n        /* \"MyToken.sol\":3562:3577  allowance[from] */\n      0x00\n        /* \"MyToken.sol\":3572:3576  from */\n      dup7\n        /* \"MyToken.sol\":3562:3577  allowance[from] */\n      0xffffffffffffffffffffffffffffffffffffffff\n      and\n      0xffffffffffffffffffffffffffffffffffffffff\n      and\n      dup2\n      mstore\n      0x20\n      add\n      swap1\n      dup2\n      mstore\n      0x20\n      add\n      0x00\n      keccak256\n        /* \"MyToken.sol\":3562:3589  allowance[from][msg.sender] */\n      0x00\n        /* \"MyToken.sol\":3578:3588  msg.sender */\n      caller\n        /* \"MyToken.sol\":3562:3589  allowance[from][msg.sender] */\n      0xffffffffffffffffffffffffffffffffffffffff\n      and\n      0xffffffffffffffffffffffffffffffffffffffff\n      and\n      dup2\n      mstore\n      0x20\n      add\n      swap1\n      dup2\n      mstore\n      0x20\n      add\n      0x00\n      keccak256\n      0x00\n        /* \"MyToken.sol\":3562:3599  allowance[from][msg.sender] -= amount */\n      dup3\n      dup3\n      sload\n      tag_155\n      swap2\n      swap1\n      tag_114\n      jump\t// in\n    tag_155:\n      swap3\n      pop\n      pop\n      dup2\n      swap1\n      sstore\n      pop\n        /* \"MyToken.sol\":3640:3642  to */\n      dup3\n        /* \"MyToken.sol\":3625:3655  Transfer(from, to, amount, \"\") */\n      0xffffffffffffffffffffffffffffffffffffffff\n      and\n        /* \"MyToken.sol\":3634:3638  from */\n      dup5\n        /* \"MyToken.sol\":3625:3655  Transfer(from, to, amount, \"\") */\n      0xffffffffffffffffffffffffffffffffffffffff\n      and\n      0xcd6e659e4c2e75c3bfe47fecaccf39aeb368116a0ee52afb532e07f6cba6c0d1\n        /* \"MyToken.sol\":3644:3650  amount */\n      dup5\n        /* \"MyToken.sol\":3625:3655  Transfer(from, to, amount, \"\") */\n      mload(0x40)\n      tag_156\n      swap2\n      swap1\n      tag_157\n      jump\t// in\n    tag_156:\n      mload(0x40)\n      dup1\n      swap2\n      sub\n      swap1\n      log3\n        /* \"MyToken.sol\":3673:3677  true */\n      0x01\n        /* \"MyToken.sol\":3666:3677  return true */\n      swap1\n      pop\n        /* \"MyToken.sol\":3240:3685  function transferFrom(address from, address to, uint256 amount) public returns (bool) {... */\n      swap4\n      swap3\n      pop\n      pop\n      pop\n      jump\t// out\n        /* \"MyToken.sol\":158:184  uint8 public decimals = 18 */\n    tag_55:\n      0x02\n      0x00\n      swap1\n      sload\n      swap1\n      0x0100\n      exp\n      swap1\n      div\n      0xff\n      and\n      dup2\n      jump\t// out\n        /* \"MyToken.sol\":4956:5098  function sendMessage(string memory _message) public {... */\n    tag_61:\n        /* \"MyToken.sol\":5033:5041  _message */\n      dup1\n        /* \"MyToken.sol\":5019:5030  lastMessage */\n      0x05\n        /* \"MyToken.sol\":5019:5041  lastMessage = _message */\n      swap1\n      dup2\n      tag_159\n      swap2\n      swap1\n      tag_119\n      jump\t// in\n    tag_159:\n      pop\n        /* \"MyToken.sol\":5069:5079  msg.sender */\n      caller\n        /* \"MyToken.sol\":5057:5090  MessageSent(msg.sender, _message) */\n      0xffffffffffffffffffffffffffffffffffffffff\n      and\n      0x0d7fccda06d6eb51c23cbd16d49b9b3f3ebafb002dba1b074895cbb35d0e8130\n        /* \"MyToken.sol\":5081:5089  _message */\n      dup3\n        /* \"MyToken.sol\":5057:5090  MessageSent(msg.sender, _message) */\n      mload(0x40)\n      tag_160\n      swap2\n      swap1\n      tag_34\n      jump\t// in\n    tag_160:\n      mload(0x40)\n      dup1\n      swap2\n      sub\n      swap1\n      log2\n        /* \"MyToken.sol\":4956:5098  function sendMessage(string memory _message) public {... */\n      pop\n      jump\t// out\n        /* \"MyToken.sol\":5173:5272  function getLastMessage() public view returns (string memory) {... */\n    tag_63:\n        /* \"MyToken.sol\":5220:5233  string memory */\n      0x60\n        /* \"MyToken.sol\":5253:5264  lastMessage */\n      0x05\n        /* \"MyToken.sol\":5246:5264  return lastMessage */\n      dup1\n      sload\n      tag_162\n      swap1\n      tag_129\n      jump\t// in\n    tag_162:\n      dup1\n      0x1f\n      add\n      0x20\n      dup1\n      swap2\n      div\n      mul\n      0x20\n      add\n      mload(0x40)\n      swap1\n      dup2\n      add\n      0x40\n      mstore\n      dup1\n      swap3\n      swap2\n      swap1\n      dup2\n      dup2\n      mstore\n      0x20\n      add\n      dup3\n      dup1\n      sload\n      tag_163\n      swap1\n      tag_129\n      jump\t// in\n    tag_163:\n      dup1\n      iszero\n      tag_164\n      jumpi\n      dup1\n      0x1f\n      lt\n      tag_165\n      jumpi\n      0x0100\n      dup1\n      dup4\n      sload\n      div\n      mul\n      dup4\n      mstore\n      swap2\n      0x20\n      add\n      swap2\n      jump(tag_164)\n    tag_165:\n      dup3\n      add\n      swap2\n      swap1\n      0x00\n      mstore\n      keccak256(0x00, 0x20)\n      swap1\n    tag_166:\n      dup2\n      sload\n      dup2\n      mstore\n      swap1\n      0x01\n      add\n      swap1\n      0x20\n      add\n      dup1\n      dup4\n      gt\n      tag_166\n      jumpi\n      dup3\n      swap1\n      sub\n      0x1f\n      and\n      dup3\n      add\n      swap2\n    tag_164:\n      pop\n      pop\n      pop\n      pop\n      pop\n      swap1\n      pop\n        /* \"MyToken.sol\":5173:5272  function getLastMessage() public view returns (string memory) {... */\n      swap1\n      jump\t// out\n        /* \"MyToken.sol\":6455:6984  function getLastMessageAndTransfer() public view returns (... */\n    tag_66:\n        /* \"MyToken.sol\":6523:6544  string memory lastMsg */\n      0x60\n        /* \"MyToken.sol\":6555:6569  address sender */\n      0x00\n        /* \"MyToken.sol\":6580:6597  address recipient */\n      dup1\n        /* \"MyToken.sol\":6608:6622  uint256 amount */\n      0x00\n        /* \"MyToken.sol\":6633:6662  string memory transferMessage */\n      0x60\n        /* \"MyToken.sol\":6673:6690  uint256 timestamp */\n      0x00\n        /* \"MyToken.sol\":6731:6742  lastMessage */\n      0x05\n        /* \"MyToken.sol\":6757:6780  lastTransferWithMessage */\n      0x06\n        /* \"MyToken.sol\":6757:6785  lastTransferWithMessage.from */\n      0x00\n      add\n      0x00\n      swap1\n      sload\n      swap1\n      0x0100\n      exp\n      swap1\n      div\n      0xffffffffffffffffffffffffffffffffffffffff\n      and\n        /* \"MyToken.sol\":6800:6823  lastTransferWithMessage */\n      0x06\n        /* \"MyToken.sol\":6800:6826  lastTransferWithMessage.to */\n      0x01\n      add\n      0x00\n      swap1\n      sload\n      swap1\n      0x0100\n      exp\n      swap1\n      div\n      0xffffffffffffffffffffffffffffffffffffffff\n      and\n        /* \"MyToken.sol\":6841:6864  lastTransferWithMessage */\n      0x06\n        /* \"MyToken.sol\":6841:6871  lastTransferWithMessage.amount */\n      0x02\n      add\n      sload\n        /* \"MyToken.sol\":6886:6909  lastTransferWithMessage */\n      0x06\n        /* \"MyToken.sol\":6886:6917  lastTransferWithMessage.message */\n      0x03\n      add\n        /* \"MyToken.sol\":6932:6955  lastTransferWithMessage */\n      0x06\n        /* \"MyToken.sol\":6932:6965  lastTransferWithMessage.timestamp */\n      0x04\n      add\n      sload\n        /* \"MyToken.sol\":6709:6976  return (... */\n      dup6\n      dup1\n      sload\n      tag_168\n      swap1\n      tag_129\n      jump\t// in\n    tag_168:\n      dup1\n      0x1f\n      add\n      0x20\n      dup1\n      swap2\n      div\n      mul\n      0x20\n      add\n      mload(0x40)\n      swap1\n      dup2\n      add\n      0x40\n      mstore\n      dup1\n      swap3\n      swap2\n      swap1\n      dup2\n      dup2\n      mstore\n      0x20\n      add\n      dup3\n      dup1\n      sload\n      tag_169\n      swap1\n      tag_129\n      jump\t// in\n    tag_169:\n      dup1\n      iszero\n      tag_170\n      jumpi\n      dup1\n      0x1f\n      lt\n      tag_171\n      jumpi\n      0x0100\n      dup1\n      dup4\n      sload\n      div\n      mul\n      dup4\n      mstore\n      swap2\n      0x20\n      add\n      swap2\n      jump(tag_170)\n    tag_171:\n      dup3\n      add\n      swap2\n      swap1\n      0x00\n      mstore\n      keccak256(0x00, 0x20)\n      swap1\n    tag_172:\n      dup2\n      sload\n      dup2\n      mstore\n      swap1\n      0x01\n      add\n      swap1\n      0x20\n      add\n      dup1\n      dup4\n      gt\n      tag_172\n      jumpi\n      dup3\n      swap1\n      sub\n      0x1f\n      and\n      dup3\n      add\n      swap2\n    tag_170:\n      pop\n      pop\n      pop\n      pop\n      pop\n      swap6\n      pop\n      dup2\n      dup1\n      sload\n      tag_173\n      swap1\n      tag_129\n      jump\t// in\n    tag_173:\n      dup1\n      0x1f\n      add\n      0x20\n      dup1\n      swap2\n      div\n      mul\n      0x20\n      add\n      mload(0x40)\n      swap1\n      dup2\n      add\n      0x40\n      mstore\n      dup1\n      swap3\n      swap2\n      swap1\n      dup2\n      dup2\n      mstore\n      0x20\n      add\n      dup3\n      dup1\n      sload\n      tag_174\n      swap1\n      tag_129\n      jump\t// in\n    tag_174:\n      dup1\n      iszero\n      tag_175\n      jumpi\n      dup1\n      0x1f\n      lt\n      tag_176\n      jumpi\n      0x0100\n      dup1\n      dup4\n      sload\n      div\n      mul\n      dup4\n      mstore\n      swap2\n      0x20\n      add\n      swap2\n      jump(tag_175)\n    tag_176:\n      dup3\n      add\n      swap2\n      swap1\n      0x00\n      mstore\n      keccak256(0x00, 0x20)\n      swap1\n    tag_177:\n      dup2\n      sload\n      dup2\n      mstore\n      swap1\n      0x01\n      add\n      swap1\n      0x20\n      add\n      dup1\n      dup4\n      gt\n      tag_177\n      jumpi\n      dup3\n      swap1\n      sub\n      0x1f\n      and\n      dup3\n      add\n      swap2\n    tag_175:\n      pop\n      pop\n      pop\n      pop\n      pop\n      swap2\n      pop\n      swap6\n      pop\n      swap6\n      pop\n      swap6\n      pop\n      swap6\n      pop\n      swap6\n      pop\n      swap6\n      pop\n        /* \"MyToken.sol\":6455:6984  function getLastMessageAndTransfer() public view returns (... */\n      swap1\n      swap2\n      swap3\n      swap4\n      swap5\n      swap6\n      jump\t// out\n        /* \"MyToken.sol\":5751:5864  function getTransferHistoryCount() public view returns (uint256) {... */\n    tag_70:\n        /* \"MyToken.sol\":5807:5814  uint256 */\n      0x00\n        /* \"MyToken.sol\":5834:5849  transferHistory */\n      0x0b\n        /* \"MyToken.sol\":5834:5856  transferHistory.length */\n      dup1\n      sload\n      swap1\n      pop\n        /* \"MyToken.sol\":5827:5856  return transferHistory.length */\n      swap1\n      pop\n        /* \"MyToken.sol\":5751:5864  function getTransferHistoryCount() public view returns (uint256) {... */\n      swap1\n      jump\t// out\n        /* \"MyToken.sol\":1021:1065  mapping(address => uint256) public balanceOf */\n    tag_75:\n      mstore(0x20, 0x0c)\n      dup1\n      0x00\n      mstore\n      keccak256(0x00, 0x40)\n      0x00\n      swap2\n      pop\n      swap1\n      pop\n      sload\n      dup2\n      jump\t// out\n        /* \"MyToken.sol\":5876:6443  function getTransferWithMessage(uint256 index) public view returns (... */\n    tag_80:\n        /* \"MyToken.sol\":5954:5966  address from */\n      0x00\n        /* \"MyToken.sol\":5977:5987  address to */\n      dup1\n        /* \"MyToken.sol\":5998:6012  uint256 amount */\n      0x00\n        /* \"MyToken.sol\":6023:6044  string memory message */\n      0x60\n        /* \"MyToken.sol\":6055:6072  uint256 timestamp */\n      0x00\n        /* \"MyToken.sol\":6107:6122  transferHistory */\n      0x0b\n        /* \"MyToken.sol\":6107:6129  transferHistory.length */\n      dup1\n      sload\n      swap1\n      pop\n        /* \"MyToken.sol\":6099:6104  index */\n      dup7\n        /* \"MyToken.sol\":6099:6129  index < transferHistory.length */\n      lt\n        /* \"MyToken.sol\":6091:6153  require(index < transferHistory.length, \"Index out of bounds\") */\n      tag_180\n      jumpi\n      mload(0x40)\n      0x08c379a000000000000000000000000000000000000000000000000000000000\n      dup2\n      mstore\n      0x04\n      add\n      tag_181\n      swap1\n      tag_182\n      jump\t// in\n    tag_181:\n      mload(0x40)\n      dup1\n      swap2\n      sub\n      swap1\n      revert\n    tag_180:\n        /* \"MyToken.sol\":6164:6203  TransferWithMessage memory transferInfo */\n      0x00\n        /* \"MyToken.sol\":6206:6221  transferHistory */\n      0x0b\n        /* \"MyToken.sol\":6222:6227  index */\n      dup8\n        /* \"MyToken.sol\":6206:6228  transferHistory[index] */\n      dup2\n      sload\n      dup2\n      lt\n      tag_183\n      jumpi\n      tag_184\n      tag_185\n      jump\t// in\n    tag_184:\n    tag_183:\n      swap1\n      0x00\n      mstore\n      keccak256(0x00, 0x20)\n      swap1\n      0x05\n      mul\n      add\n        /* \"MyToken.sol\":6164:6228  TransferWithMessage memory transferInfo = transferHistory[index] */\n      mload(0x40)\n      dup1\n      0xa0\n      add\n      0x40\n      mstore\n      swap1\n      dup2\n      0x00\n      dup3\n      add\n      0x00\n      swap1\n      sload\n      swap1\n      0x0100\n      exp\n      swap1\n      div\n      0xffffffffffffffffffffffffffffffffffffffff\n      and\n      0xffffffffffffffffffffffffffffffffffffffff\n      and\n      0xffffffffffffffffffffffffffffffffffffffff\n      and\n      dup2\n      mstore\n      0x20\n      add\n      0x01\n      dup3\n      add\n      0x00\n      swap1\n      sload\n      swap1\n      0x0100\n      exp\n      swap1\n      div\n      0xffffffffffffffffffffffffffffffffffffffff\n      and\n      0xffffffffffffffffffffffffffffffffffffffff\n      and\n      0xffffffffffffffffffffffffffffffffffffffff\n      and\n      dup2\n      mstore\n      0x20\n      add\n      0x02\n      dup3\n      add\n      sload\n      dup2\n      mstore\n      0x20\n      add\n      0x03\n      dup3\n      add\n      dup1\n      sload\n      tag_187\n      swap1\n      tag_129\n      jump\t// in\n    tag_187:\n      dup1\n      0x1f\n      add\n      0x20\n      dup1\n      swap2\n      div\n      mul\n      0x20\n      add\n      mload(0x40)\n      swap1\n      dup2\n      add\n      0x40\n      mstore\n      dup1\n      swap3\n      swap2\n      swap1\n      dup2\n      dup2\n      mstore\n      0x20\n      add\n      dup3\n      dup1\n      sload\n      tag_188\n      swap1\n      tag_129\n      jump\t// in\n    tag_188:\n      dup1\n      iszero\n      tag_189\n      jumpi\n      dup1\n      0x1f\n      lt\n      tag_190\n      jumpi\n      0x0100\n      dup1\n      dup4\n      sload\n      div\n      mul\n      dup4\n      mstore\n      swap2\n      0x20\n      add\n      swap2\n      jump(tag_189)\n    tag_190:\n      dup3\n      add\n      swap2\n      swap1\n      0x00\n      mstore\n      keccak256(0x00, 0x20)\n      swap1\n    tag_191:\n      dup2\n      sload\n      dup2\n      mstore\n      swap1\n      0x01\n      add\n      swap1\n      0x20\n      add\n      dup1\n      dup4\n      gt\n      tag_191\n      jumpi\n      dup3\n      swap1\n      sub\n      0x1f\n      and\n      dup3\n      add\n      swap2\n    tag_189:\n      pop\n      pop\n      pop\n      pop\n      pop\n      dup2\n      mstore\n      0x20\n      add\n      0x04\n      dup3\n      add\n      sload\n      dup2\n      mstore\n      pop\n      pop\n      swap1\n      pop\n        /* \"MyToken.sol\":6271:6283  transferInfo */\n      dup1\n        /* \"MyToken.sol\":6271:6288  transferInfo.from */\n      0x00\n      add\n      mload\n        /* \"MyToken.sol\":6303:6315  transferInfo */\n      dup2\n        /* \"MyToken.sol\":6303:6318  transferInfo.to */\n      0x20\n      add\n      mload\n        /* \"MyToken.sol\":6333:6345  transferInfo */\n      dup3\n        /* \"MyToken.sol\":6333:6352  transferInfo.amount */\n      0x40\n      add\n      mload\n        /* \"MyToken.sol\":6367:6379  transferInfo */\n      dup4\n        /* \"MyToken.sol\":6367:6387  transferInfo.message */\n      0x60\n      add\n      mload\n        /* \"MyToken.sol\":6402:6414  transferInfo */\n      dup5\n        /* \"MyToken.sol\":6402:6424  transferInfo.timestamp */\n      0x80\n      add\n      mload\n        /* \"MyToken.sol\":6249:6435  return (... */\n      swap6\n      pop\n      swap6\n      pop\n      swap6\n      pop\n      swap6\n      pop\n      swap6\n      pop\n      pop\n        /* \"MyToken.sol\":5876:6443  function getTransferWithMessage(uint256 index) public view returns (... */\n      swap2\n      swap4\n      swap6\n      swap1\n      swap3\n      swap5\n      pop\n      jump\t// out\n        /* \"MyToken.sol\":968:1012  TransferWithMessage[] public transferHistory */\n    tag_85:\n      0x0b\n      dup2\n      dup2\n      sload\n      dup2\n      lt\n      tag_192\n      jumpi\n      0x00\n      dup1\n      revert\n    tag_192:\n      swap1\n      0x00\n      mstore\n      keccak256(0x00, 0x20)\n      swap1\n      0x05\n      mul\n      add\n      0x00\n      swap2\n      pop\n      swap1\n      pop\n      dup1\n      0x00\n      add\n      0x00\n      swap1\n      sload\n      swap1\n      0x0100\n      exp\n      swap1\n      div\n      0xffffffffffffffffffffffffffffffffffffffff\n      and\n      swap1\n      dup1\n      0x01\n      add\n      0x00\n      swap1\n      sload\n      swap1\n      0x0100\n      exp\n      swap1\n      div\n      0xffffffffffffffffffffffffffffffffffffffff\n      and\n      swap1\n      dup1\n      0x02\n      add\n      sload\n      swap1\n      dup1\n      0x03\n      add\n      dup1\n      sload\n      tag_194\n      swap1\n      tag_129\n      jump\t// in\n    tag_194:\n      dup1\n      0x1f\n      add\n      0x20\n      dup1\n      swap2\n      div\n      mul\n      0x20\n      add\n      mload(0x40)\n      swap1\n      dup2\n      add\n      0x40\n      mstore\n      dup1\n      swap3\n      swap2\n      swap1\n      dup2\n      dup2\n      mstore\n      0x20\n      add\n      dup3\n      dup1\n      sload\n      tag_195\n      swap1\n      tag_129\n      jump\t// in\n    tag_195:\n      dup1\n      iszero\n      tag_196\n      jumpi\n      dup1\n      0x1f\n      lt\n      tag_197\n      jumpi\n      0x0100\n      dup1\n      dup4\n      sload\n      div\n      mul\n      dup4\n      mstore\n      swap2\n      0x20\n      add\n      swap2\n      jump(tag_196)\n    tag_197:\n      dup3\n      add\n      swap2\n      swap1\n      0x00\n      mstore\n      keccak256(0x00, 0x20)\n      swap1\n    tag_198:\n      dup2\n      sload\n      dup2\n      mstore\n      swap1\n      0x01\n      add\n      swap1\n      0x20\n      add\n      dup1\n      dup4\n      gt\n      tag_198\n      jumpi\n      dup3\n      swap1\n      sub\n      0x1f\n      and\n      dup3\n      add\n      swap2\n    tag_196:\n      pop\n      pop\n      pop\n      pop\n      pop\n      swap1\n      dup1\n      0x04\n      add\n      sload\n      swap1\n      pop\n      dup6\n      jump\t// out\n        /* \"MyToken.sol\":313:333  address public owner */\n    tag_88:\n      0x04\n      0x00\n      swap1\n      sload\n      swap1\n      0x0100\n      exp\n      swap1\n      div\n      0xffffffffffffffffffffffffffffffffffffffff\n      and\n      dup2\n      jump\t// out\n        /* \"MyToken.sol\":124:151  string public symbol = \"LR\" */\n    tag_92:\n      0x01\n      dup1\n      sload\n      tag_199\n      swap1\n      tag_129\n      jump\t// in\n    tag_199:\n      dup1\n      0x1f\n      add\n      0x20\n      dup1\n      swap2\n      div\n      mul\n      0x20\n      add\n      mload(0x40)\n      swap1\n      dup2\n      add\n      0x40\n      mstore\n      dup1\n      swap3\n      swap2\n      swap1\n      dup2\n      dup2\n      mstore\n      0x20\n      add\n      dup3\n      dup1\n      sload\n      tag_200\n      swap1\n      tag_129\n      jump\t// in\n    tag_200:\n      dup1\n      iszero\n      tag_201\n      jumpi\n      dup1\n      0x1f\n      lt\n      tag_202\n      jumpi\n      0x0100\n      dup1\n      dup4\n      sload\n      div\n      mul\n      dup4\n      mstore\n      swap2\n      0x20\n      add\n      swap2\n      jump(tag_201)\n    tag_202:\n      dup3\n      add\n      swap2\n      swap1\n      0x00\n      mstore\n      keccak256(0x00, 0x20)\n      swap1\n    tag_203:\n      dup2\n      sload\n      dup2\n      mstore\n      swap1\n      0x01\n      add\n      swap1\n      0x20\n      add\n      dup1\n      dup4\n      gt\n      tag_203\n      jumpi\n      dup3\n      swap1\n      sub\n      0x1f\n      and\n      dup3\n      add\n      swap2\n    tag_201:\n      pop\n      pop\n      pop\n      pop\n      pop\n      dup2\n      jump\t// out\n        /* \"MyToken.sol\":2890:3019  function transfer(address to, uint256 amount) public returns (bool) {... */\n    tag_96:\n        /* \"MyToken.sol\":2952:2956  bool */\n      0x00\n        /* \"MyToken.sol\":2976:3011  transferWithMessage(to, amount, \"\") */\n      tag_205\n        /* \"MyToken.sol\":2996:2998  to */\n      dup4\n        /* \"MyToken.sol\":3000:3006  amount */\n      dup4\n        /* \"MyToken.sol\":2976:3011  transferWithMessage(to, amount, \"\") */\n      mload(0x40)\n      dup1\n      0x20\n      add\n      0x40\n      mstore\n      dup1\n      0x00\n      dup2\n      mstore\n      pop\n        /* \"MyToken.sol\":2976:2995  transferWithMessage */\n      tag_38\n        /* \"MyToken.sol\":2976:3011  transferWithMessage(to, amount, \"\") */\n      jump\t// in\n    tag_205:\n        /* \"MyToken.sol\":2969:3011  return transferWithMessage(to, amount, \"\") */\n      swap1\n      pop\n        /* \"MyToken.sol\":2890:3019  function transfer(address to, uint256 amount) public returns (bool) {... */\n      swap3\n      swap2\n      pop\n      pop\n      jump\t// out\n        /* \"MyToken.sol\":5284:5739  function getLastTransferWithMessage() public view returns (... */\n    tag_99:\n        /* \"MyToken.sol\":5353:5365  address from */\n      0x00\n        /* \"MyToken.sol\":5376:5386  address to */\n      dup1\n        /* \"MyToken.sol\":5397:5411  uint256 amount */\n      0x00\n        /* \"MyToken.sol\":5422:5443  string memory message */\n      0x60\n        /* \"MyToken.sol\":5454:5471  uint256 timestamp */\n      0x00\n        /* \"MyToken.sol\":5512:5535  lastTransferWithMessage */\n      0x06\n        /* \"MyToken.sol\":5512:5540  lastTransferWithMessage.from */\n      0x00\n      add\n      0x00\n      swap1\n      sload\n      swap1\n      0x0100\n      exp\n      swap1\n      div\n      0xffffffffffffffffffffffffffffffffffffffff\n      and\n        /* \"MyToken.sol\":5555:5578  lastTransferWithMessage */\n      0x06\n        /* \"MyToken.sol\":5555:5581  lastTransferWithMessage.to */\n      0x01\n      add\n      0x00\n      swap1\n      sload\n      swap1\n      0x0100\n      exp\n      swap1\n      div\n      0xffffffffffffffffffffffffffffffffffffffff\n      and\n        /* \"MyToken.sol\":5596:5619  lastTransferWithMessage */\n      0x06\n        /* \"MyToken.sol\":5596:5626  lastTransferWithMessage.amount */\n      0x02\n      add\n      sload\n        /* \"MyToken.sol\":5641:5664  lastTransferWithMessage */\n      0x06\n        /* \"MyToken.sol\":5641:5672  lastTransferWithMessage.message */\n      0x03\n      add\n        /* \"MyToken.sol\":5687:5710  lastTransferWithMessage */\n      0x06\n        /* \"MyToken.sol\":5687:5720  lastTransferWithMessage.timestamp */\n      0x04\n      add\n      sload\n        /* \"MyToken.sol\":5490:5731  return (... */\n      dup2\n      dup1\n      sload\n      tag_207\n      swap1\n      tag_129\n      jump\t// in\n    tag_207:\n      dup1\n      0x1f\n      add\n      0x20\n      dup1\n      swap2\n      div\n      mul\n      0x20\n      add\n      mload(0x40)\n      swap1\n      dup2\n      add\n      0x40\n      mstore\n      dup1\n      swap3\n      swap2\n      swap1\n      dup2\n      dup2\n      mstore\n      0x20\n      add\n      dup3\n      dup1\n      sload\n      tag_208\n      swap1\n      tag_129\n      jump\t// in\n    tag_208:\n      dup1\n      iszero\n      tag_209\n      jumpi\n      dup1\n      0x1f\n      lt\n      tag_210\n      jumpi\n      0x0100\n      dup1\n      dup4\n      sload\n      div\n      mul\n      dup4\n      mstore\n      swap2\n      0x20\n      add\n      swap2\n      jump(tag_209)\n    tag_210:\n      dup3\n      add\n      swap2\n      swap1\n      0x00\n      mstore\n      keccak256(0x00, 0x20)\n      swap1\n    tag_211:\n      dup2\n      sload\n      dup2\n      mstore\n      swap1\n      0x01\n      add\n      swap1\n      0x20\n      add\n      dup1\n      dup4\n      gt\n      tag_211\n      jumpi\n      dup3\n      swap1\n      sub\n      0x1f\n      and\n      dup3\n      add\n      swap2\n    tag_209:\n      pop\n      pop\n      pop\n      pop\n      pop\n      swap2\n      pop\n      swap5\n      pop\n      swap5\n      pop\n      swap5\n      pop\n      swap5\n      pop\n      swap5\n      pop\n        /* \"MyToken.sol\":5284:5739  function getLastTransferWithMessage() public view returns (... */\n      swap1\n      swap2\n      swap3\n      swap4\n      swap5\n      jump\t// out\n        /* \"MyToken.sol\":1072:1136  mapping(address => mapping(address => uint256)) public allowance */\n    tag_104:\n      mstore(0x20, 0x0d)\n      dup2\n      0x00\n      mstore\n      mstore(0x20, keccak256(0x00, 0x40))\n      dup1\n      0x00\n      mstore\n      keccak256(0x00, 0x40)\n      0x00\n      swap2\n      pop\n      swap2\n      pop\n      pop\n      sload\n      dup2\n      jump\t// out\n        /* \"#utility.yul\":7:82   */\n    tag_212:\n        /* \"#utility.yul\":40:46   */\n      0x00\n        /* \"#utility.yul\":73:75   */\n      0x40\n        /* \"#utility.yul\":67:76   */\n      mload\n        /* \"#utility.yul\":57:76   */\n      swap1\n      pop\n        /* \"#utility.yul\":7:82   */\n      swap1\n      jump\t// out\n        /* \"#utility.yul\":88:205   */\n    tag_213:\n        /* \"#utility.yul\":197:198   */\n      0x00\n        /* \"#utility.yul\":194:195   */\n      dup1\n        /* \"#utility.yul\":187:199   */\n      revert\n        /* \"#utility.yul\":211:328   */\n    tag_214:\n        /* \"#utility.yul\":320:321   */\n      0x00\n        /* \"#utility.yul\":317:318   */\n      dup1\n        /* \"#utility.yul\":310:322   */\n      revert\n        /* \"#utility.yul\":334:460   */\n    tag_215:\n        /* \"#utility.yul\":371:378   */\n      0x00\n        /* \"#utility.yul\":411:453   */\n      0xffffffffffffffffffffffffffffffffffffffff\n        /* \"#utility.yul\":404:409   */\n      dup3\n        /* \"#utility.yul\":400:454   */\n      and\n        /* \"#utility.yul\":389:454   */\n      swap1\n      pop\n        /* \"#utility.yul\":334:460   */\n      swap2\n      swap1\n      pop\n      jump\t// out\n        /* \"#utility.yul\":466:562   */\n    tag_216:\n        /* \"#utility.yul\":503:510   */\n      0x00\n        /* \"#utility.yul\":532:556   */\n      tag_274\n        /* \"#utility.yul\":550:555   */\n      dup3\n        /* \"#utility.yul\":532:556   */\n      tag_215\n      jump\t// in\n    tag_274:\n        /* \"#utility.yul\":521:556   */\n      swap1\n      pop\n        /* \"#utility.yul\":466:562   */\n      swap2\n      swap1\n      pop\n      jump\t// out\n        /* \"#utility.yul\":568:690   */\n    tag_217:\n        /* \"#utility.yul\":641:665   */\n      tag_276\n        /* \"#utility.yul\":659:664   */\n      dup2\n        /* \"#utility.yul\":641:665   */\n      tag_216\n      jump\t// in\n    tag_276:\n        /* \"#utility.yul\":634:639   */\n      dup2\n        /* \"#utility.yul\":631:666   */\n      eq\n        /* \"#utility.yul\":621:684   */\n      tag_277\n      jumpi\n        /* \"#utility.yul\":680:681   */\n      0x00\n        /* \"#utility.yul\":677:678   */\n      dup1\n        /* \"#utility.yul\":670:682   */\n      revert\n        /* \"#utility.yul\":621:684   */\n    tag_277:\n        /* \"#utility.yul\":568:690   */\n      pop\n      jump\t// out\n        /* \"#utility.yul\":696:835   */\n    tag_218:\n        /* \"#utility.yul\":742:747   */\n      0x00\n        /* \"#utility.yul\":780:786   */\n      dup2\n        /* \"#utility.yul\":767:787   */\n      calldataload\n        /* \"#utility.yul\":758:787   */\n      swap1\n      pop\n        /* \"#utility.yul\":796:829   */\n      tag_279\n        /* \"#utility.yul\":823:828   */\n      dup2\n        /* \"#utility.yul\":796:829   */\n      tag_217\n      jump\t// in\n    tag_279:\n        /* \"#utility.yul\":696:835   */\n      swap3\n      swap2\n      pop\n      pop\n      jump\t// out\n        /* \"#utility.yul\":841:918   */\n    tag_219:\n        /* \"#utility.yul\":878:885   */\n      0x00\n        /* \"#utility.yul\":907:912   */\n      dup2\n        /* \"#utility.yul\":896:912   */\n      swap1\n      pop\n        /* \"#utility.yul\":841:918   */\n      swap2\n      swap1\n      pop\n      jump\t// out\n        /* \"#utility.yul\":924:1046   */\n    tag_220:\n        /* \"#utility.yul\":997:1021   */\n      tag_282\n        /* \"#utility.yul\":1015:1020   */\n      dup2\n        /* \"#utility.yul\":997:1021   */\n      tag_219\n      jump\t// in\n    tag_282:\n        /* \"#utility.yul\":990:995   */\n      dup2\n        /* \"#utility.yul\":987:1022   */\n      eq\n        /* \"#utility.yul\":977:1040   */\n      tag_283\n      jumpi\n        /* \"#utility.yul\":1036:1037   */\n      0x00\n        /* \"#utility.yul\":1033:1034   */\n      dup1\n        /* \"#utility.yul\":1026:1038   */\n      revert\n        /* \"#utility.yul\":977:1040   */\n    tag_283:\n        /* \"#utility.yul\":924:1046   */\n      pop\n      jump\t// out\n        /* \"#utility.yul\":1052:1191   */\n    tag_221:\n        /* \"#utility.yul\":1098:1103   */\n      0x00\n        /* \"#utility.yul\":1136:1142   */\n      dup2\n        /* \"#utility.yul\":1123:1143   */\n      calldataload\n        /* \"#utility.yul\":1114:1143   */\n      swap1\n      pop\n        /* \"#utility.yul\":1152:1185   */\n      tag_285\n        /* \"#utility.yul\":1179:1184   */\n      dup2\n        /* \"#utility.yul\":1152:1185   */\n      tag_220\n      jump\t// in\n    tag_285:\n        /* \"#utility.yul\":1052:1191   */\n      swap3\n      swap2\n      pop\n      pop\n      jump\t// out\n        /* \"#utility.yul\":1197:1314   */\n    tag_222:\n        /* \"#utility.yul\":1306:1307   */\n      0x00\n        /* \"#utility.yul\":1303:1304   */\n      dup1\n        /* \"#utility.yul\":1296:1308   */\n      revert\n        /* \"#utility.yul\":1320:1437   */\n    tag_223:\n        /* \"#utility.yul\":1429:1430   */\n      0x00\n        /* \"#utility.yul\":1426:1427   */\n      dup1\n        /* \"#utility.yul\":1419:1431   */\n      revert\n        /* \"#utility.yul\":1443:1545   */\n    tag_224:\n        /* \"#utility.yul\":1484:1490   */\n      0x00\n        /* \"#utility.yul\":1535:1537   */\n      0x1f\n        /* \"#utility.yul\":1531:1538   */\n      not\n        /* \"#utility.yul\":1526:1528   */\n      0x1f\n        /* \"#utility.yul\":1519:1524   */\n      dup4\n        /* \"#utility.yul\":1515:1529   */\n      add\n        /* \"#utility.yul\":1511:1539   */\n      and\n        /* \"#utility.yul\":1501:1539   */\n      swap1\n      pop\n        /* \"#utility.yul\":1443:1545   */\n      swap2\n      swap1\n      pop\n      jump\t// out\n        /* \"#utility.yul\":1551:1731   */\n    tag_225:\n        /* \"#utility.yul\":1599:1676   */\n      0x4e487b7100000000000000000000000000000000000000000000000000000000\n        /* \"#utility.yul\":1596:1597   */\n      0x00\n        /* \"#utility.yul\":1589:1677   */\n      mstore\n        /* \"#utility.yul\":1696:1700   */\n      0x41\n        /* \"#utility.yul\":1693:1694   */\n      0x04\n        /* \"#utility.yul\":1686:1701   */\n      mstore\n        /* \"#utility.yul\":1720:1724   */\n      0x24\n        /* \"#utility.yul\":1717:1718   */\n      0x00\n        /* \"#utility.yul\":1710:1725   */\n      revert\n        /* \"#utility.yul\":1737:2018   */\n    tag_226:\n        /* \"#utility.yul\":1820:1847   */\n      tag_291\n        /* \"#utility.yul\":1842:1846   */\n      dup3\n        /* \"#utility.yul\":1820:1847   */\n      tag_224\n      jump\t// in\n    tag_291:\n        /* \"#utility.yul\":1812:1818   */\n      dup2\n        /* \"#utility.yul\":1808:1848   */\n      add\n        /* \"#utility.yul\":1950:1956   */\n      dup2\n        /* \"#utility.yul\":1938:1948   */\n      dup2\n        /* \"#utility.yul\":1935:1957   */\n      lt\n        /* \"#utility.yul\":1914:1932   */\n      0xffffffffffffffff\n        /* \"#utility.yul\":1902:1912   */\n      dup3\n        /* \"#utility.yul\":1899:1933   */\n      gt\n        /* \"#utility.yul\":1896:1958   */\n      or\n        /* \"#utility.yul\":1893:1981   */\n      iszero\n      tag_292\n      jumpi\n        /* \"#utility.yul\":1961:1979   */\n      tag_293\n      tag_225\n      jump\t// in\n    tag_293:\n        /* \"#utility.yul\":1893:1981   */\n    tag_292:\n        /* \"#utility.yul\":2001:2011   */\n      dup1\n        /* \"#utility.yul\":1997:1999   */\n      0x40\n        /* \"#utility.yul\":1990:2012   */\n      mstore\n        /* \"#utility.yul\":1780:2018   */\n      pop\n        /* \"#utility.yul\":1737:2018   */\n      pop\n      pop\n      jump\t// out\n        /* \"#utility.yul\":2024:2153   */\n    tag_227:\n        /* \"#utility.yul\":2058:2064   */\n      0x00\n        /* \"#utility.yul\":2085:2105   */\n      tag_295\n      tag_212\n      jump\t// in\n    tag_295:\n        /* \"#utility.yul\":2075:2105   */\n      swap1\n      pop\n        /* \"#utility.yul\":2114:2147   */\n      tag_296\n        /* \"#utility.yul\":2142:2146   */\n      dup3\n        /* \"#utility.yul\":2134:2140   */\n      dup3\n        /* \"#utility.yul\":2114:2147   */\n      tag_226\n      jump\t// in\n    tag_296:\n        /* \"#utility.yul\":2024:2153   */\n      swap2\n      swap1\n      pop\n      jump\t// out\n        /* \"#utility.yul\":2159:2467   */\n    tag_228:\n        /* \"#utility.yul\":2221:2225   */\n      0x00\n        /* \"#utility.yul\":2311:2329   */\n      0xffffffffffffffff\n        /* \"#utility.yul\":2303:2309   */\n      dup3\n        /* \"#utility.yul\":2300:2330   */\n      gt\n        /* \"#utility.yul\":2297:2353   */\n      iszero\n      tag_298\n      jumpi\n        /* \"#utility.yul\":2333:2351   */\n      tag_299\n      tag_225\n      jump\t// in\n    tag_299:\n        /* \"#utility.yul\":2297:2353   */\n    tag_298:\n        /* \"#utility.yul\":2371:2400   */\n      tag_300\n        /* \"#utility.yul\":2393:2399   */\n      dup3\n        /* \"#utility.yul\":2371:2400   */\n      tag_224\n      jump\t// in\n    tag_300:\n        /* \"#utility.yul\":2363:2400   */\n      swap1\n      pop\n        /* \"#utility.yul\":2455:2459   */\n      0x20\n        /* \"#utility.yul\":2449:2453   */\n      dup2\n        /* \"#utility.yul\":2445:2460   */\n      add\n        /* \"#utility.yul\":2437:2460   */\n      swap1\n      pop\n        /* \"#utility.yul\":2159:2467   */\n      swap2\n      swap1\n      pop\n      jump\t// out\n        /* \"#utility.yul\":2473:2619   */\n    tag_229:\n        /* \"#utility.yul\":2570:2576   */\n      dup3\n        /* \"#utility.yul\":2565:2568   */\n      dup2\n        /* \"#utility.yul\":2560:2563   */\n      dup4\n        /* \"#utility.yul\":2547:2577   */\n      calldatacopy\n        /* \"#utility.yul\":2611:2612   */\n      0x00\n        /* \"#utility.yul\":2602:2608   */\n      dup4\n        /* \"#utility.yul\":2597:2600   */\n      dup4\n        /* \"#utility.yul\":2593:2609   */\n      add\n        /* \"#utility.yul\":2586:2613   */\n      mstore\n        /* \"#utility.yul\":2473:2619   */\n      pop\n      pop\n      pop\n      jump\t// out\n        /* \"#utility.yul\":2625:3050   */\n    tag_230:\n        /* \"#utility.yul\":2703:2708   */\n      0x00\n        /* \"#utility.yul\":2728:2794   */\n      tag_303\n        /* \"#utility.yul\":2744:2793   */\n      tag_304\n        /* \"#utility.yul\":2786:2792   */\n      dup5\n        /* \"#utility.yul\":2744:2793   */\n      tag_228\n      jump\t// in\n    tag_304:\n        /* \"#utility.yul\":2728:2794   */\n      tag_227\n      jump\t// in\n    tag_303:\n        /* \"#utility.yul\":2719:2794   */\n      swap1\n      pop\n        /* \"#utility.yul\":2817:2823   */\n      dup3\n        /* \"#utility.yul\":2810:2815   */\n      dup2\n        /* \"#utility.yul\":2803:2824   */\n      mstore\n        /* \"#utility.yul\":2855:2859   */\n      0x20\n        /* \"#utility.yul\":2848:2853   */\n      dup2\n        /* \"#utility.yul\":2844:2860   */\n      add\n        /* \"#utility.yul\":2893:2896   */\n      dup5\n        /* \"#utility.yul\":2884:2890   */\n      dup5\n        /* \"#utility.yul\":2879:2882   */\n      dup5\n        /* \"#utility.yul\":2875:2891   */\n      add\n        /* \"#utility.yul\":2872:2897   */\n      gt\n        /* \"#utility.yul\":2869:2981   */\n      iszero\n      tag_305\n      jumpi\n        /* \"#utility.yul\":2900:2979   */\n      tag_306\n      tag_223\n      jump\t// in\n    tag_306:\n        /* \"#utility.yul\":2869:2981   */\n    tag_305:\n        /* \"#utility.yul\":2990:3044   */\n      tag_307\n        /* \"#utility.yul\":3037:3043   */\n      dup5\n        /* \"#utility.yul\":3032:3035   */\n      dup3\n        /* \"#utility.yul\":3027:3030   */\n      dup6\n        /* \"#utility.yul\":2990:3044   */\n      tag_229\n      jump\t// in\n    tag_307:\n        /* \"#utility.yul\":2709:3050   */\n      pop\n        /* \"#utility.yul\":2625:3050   */\n      swap4\n      swap3\n      pop\n      pop\n      pop\n      jump\t// out\n        /* \"#utility.yul\":3070:3410   */\n    tag_231:\n        /* \"#utility.yul\":3126:3131   */\n      0x00\n        /* \"#utility.yul\":3175:3178   */\n      dup3\n        /* \"#utility.yul\":3168:3172   */\n      0x1f\n        /* \"#utility.yul\":3160:3166   */\n      dup4\n        /* \"#utility.yul\":3156:3173   */\n      add\n        /* \"#utility.yul\":3152:3179   */\n      slt\n        /* \"#utility.yul\":3142:3264   */\n      tag_309\n      jumpi\n        /* \"#utility.yul\":3183:3262   */\n      tag_310\n      tag_222\n      jump\t// in\n    tag_310:\n        /* \"#utility.yul\":3142:3264   */\n    tag_309:\n        /* \"#utility.yul\":3300:3306   */\n      dup2\n        /* \"#utility.yul\":3287:3307   */\n      calldataload\n        /* \"#utility.yul\":3325:3404   */\n      tag_311\n        /* \"#utility.yul\":3400:3403   */\n      dup5\n        /* \"#utility.yul\":3392:3398   */\n      dup3\n        /* \"#utility.yul\":3385:3389   */\n      0x20\n        /* \"#utility.yul\":3377:3383   */\n      dup7\n        /* \"#utility.yul\":3373:3390   */\n      add\n        /* \"#utility.yul\":3325:3404   */\n      tag_230\n      jump\t// in\n    tag_311:\n        /* \"#utility.yul\":3316:3404   */\n      swap2\n      pop\n        /* \"#utility.yul\":3132:3410   */\n      pop\n        /* \"#utility.yul\":3070:3410   */\n      swap3\n      swap2\n      pop\n      pop\n      jump\t// out\n        /* \"#utility.yul\":3416:4361   */\n    tag_27:\n        /* \"#utility.yul\":3512:3518   */\n      0x00\n        /* \"#utility.yul\":3520:3526   */\n      dup1\n        /* \"#utility.yul\":3528:3534   */\n      0x00\n        /* \"#utility.yul\":3536:3542   */\n      dup1\n        /* \"#utility.yul\":3585:3588   */\n      0x80\n        /* \"#utility.yul\":3573:3582   */\n      dup6\n        /* \"#utility.yul\":3564:3571   */\n      dup8\n        /* \"#utility.yul\":3560:3583   */\n      sub\n        /* \"#utility.yul\":3556:3589   */\n      slt\n        /* \"#utility.yul\":3553:3673   */\n      iszero\n      tag_313\n      jumpi\n        /* \"#utility.yul\":3592:3671   */\n      tag_314\n      tag_213\n      jump\t// in\n    tag_314:\n        /* \"#utility.yul\":3553:3673   */\n    tag_313:\n        /* \"#utility.yul\":3712:3713   */\n      0x00\n        /* \"#utility.yul\":3737:3790   */\n      tag_315\n        /* \"#utility.yul\":3782:3789   */\n      dup8\n        /* \"#utility.yul\":3773:3779   */\n      dup3\n        /* \"#utility.yul\":3762:3771   */\n      dup9\n        /* \"#utility.yul\":3758:3780   */\n      add\n        /* \"#utility.yul\":3737:3790   */\n      tag_218\n      jump\t// in\n    tag_315:\n        /* \"#utility.yul\":3727:3790   */\n      swap5\n      pop\n        /* \"#utility.yul\":3683:3800   */\n      pop\n        /* \"#utility.yul\":3839:3841   */\n      0x20\n        /* \"#utility.yul\":3865:3918   */\n      tag_316\n        /* \"#utility.yul\":3910:3917   */\n      dup8\n        /* \"#utility.yul\":3901:3907   */\n      dup3\n        /* \"#utility.yul\":3890:3899   */\n      dup9\n        /* \"#utility.yul\":3886:3908   */\n      add\n        /* \"#utility.yul\":3865:3918   */\n      tag_218\n      jump\t// in\n    tag_316:\n        /* \"#utility.yul\":3855:3918   */\n      swap4\n      pop\n        /* \"#utility.yul\":3810:3928   */\n      pop\n        /* \"#utility.yul\":3967:3969   */\n      0x40\n        /* \"#utility.yul\":3993:4046   */\n      tag_317\n        /* \"#utility.yul\":4038:4045   */\n      dup8\n        /* \"#utility.yul\":4029:4035   */\n      dup3\n        /* \"#utility.yul\":4018:4027   */\n      dup9\n        /* \"#utility.yul\":4014:4036   */\n      add\n        /* \"#utility.yul\":3993:4046   */\n      tag_221\n      jump\t// in\n    tag_317:\n        /* \"#utility.yul\":3983:4046   */\n      swap3\n      pop\n        /* \"#utility.yul\":3938:4056   */\n      pop\n        /* \"#utility.yul\":4123:4125   */\n      0x60\n        /* \"#utility.yul\":4112:4121   */\n      dup6\n        /* \"#utility.yul\":4108:4126   */\n      add\n        /* \"#utility.yul\":4095:4127   */\n      calldataload\n        /* \"#utility.yul\":4154:4172   */\n      0xffffffffffffffff\n        /* \"#utility.yul\":4146:4152   */\n      dup2\n        /* \"#utility.yul\":4143:4173   */\n      gt\n        /* \"#utility.yul\":4140:4257   */\n      iszero\n      tag_318\n      jumpi\n        /* \"#utility.yul\":4176:4255   */\n      tag_319\n      tag_214\n      jump\t// in\n    tag_319:\n        /* \"#utility.yul\":4140:4257   */\n    tag_318:\n        /* \"#utility.yul\":4281:4344   */\n      tag_320\n        /* \"#utility.yul\":4336:4343   */\n      dup8\n        /* \"#utility.yul\":4327:4333   */\n      dup3\n        /* \"#utility.yul\":4316:4325   */\n      dup9\n        /* \"#utility.yul\":4312:4334   */\n      add\n        /* \"#utility.yul\":4281:4344   */\n      tag_231\n      jump\t// in\n    tag_320:\n        /* \"#utility.yul\":4271:4344   */\n      swap2\n      pop\n        /* \"#utility.yul\":4066:4354   */\n      pop\n        /* \"#utility.yul\":3416:4361   */\n      swap3\n      swap6\n      swap2\n      swap5\n      pop\n      swap3\n      pop\n      jump\t// out\n        /* \"#utility.yul\":4367:4457   */\n    tag_232:\n        /* \"#utility.yul\":4401:4408   */\n      0x00\n        /* \"#utility.yul\":4444:4449   */\n      dup2\n        /* \"#utility.yul\":4437:4450   */\n      iszero\n        /* \"#utility.yul\":4430:4451   */\n      iszero\n        /* \"#utility.yul\":4419:4451   */\n      swap1\n      pop\n        /* \"#utility.yul\":4367:4457   */\n      swap2\n      swap1\n      pop\n      jump\t// out\n        /* \"#utility.yul\":4463:4572   */\n    tag_233:\n        /* \"#utility.yul\":4544:4565   */\n      tag_323\n        /* \"#utility.yul\":4559:4564   */\n      dup2\n        /* \"#utility.yul\":4544:4565   */\n      tag_232\n      jump\t// in\n    tag_323:\n        /* \"#utility.yul\":4539:4542   */\n      dup3\n        /* \"#utility.yul\":4532:4566   */\n      mstore\n        /* \"#utility.yul\":4463:4572   */\n      pop\n      pop\n      jump\t// out\n        /* \"#utility.yul\":4578:4788   */\n    tag_30:\n        /* \"#utility.yul\":4665:4669   */\n      0x00\n        /* \"#utility.yul\":4703:4705   */\n      0x20\n        /* \"#utility.yul\":4692:4701   */\n      dup3\n        /* \"#utility.yul\":4688:4706   */\n      add\n        /* \"#utility.yul\":4680:4706   */\n      swap1\n      pop\n        /* \"#utility.yul\":4716:4781   */\n      tag_325\n        /* \"#utility.yul\":4778:4779   */\n      0x00\n        /* \"#utility.yul\":4767:4776   */\n      dup4\n        /* \"#utility.yul\":4763:4780   */\n      add\n        /* \"#utility.yul\":4754:4760   */\n      dup5\n        /* \"#utility.yul\":4716:4781   */\n      tag_233\n      jump\t// in\n    tag_325:\n        /* \"#utility.yul\":4578:4788   */\n      swap3\n      swap2\n      pop\n      pop\n      jump\t// out\n        /* \"#utility.yul\":4794:4893   */\n    tag_234:\n        /* \"#utility.yul\":4846:4852   */\n      0x00\n        /* \"#utility.yul\":4880:4885   */\n      dup2\n        /* \"#utility.yul\":4874:4886   */\n      mload\n        /* \"#utility.yul\":4864:4886   */\n      swap1\n      pop\n        /* \"#utility.yul\":4794:4893   */\n      swap2\n      swap1\n      pop\n      jump\t// out\n        /* \"#utility.yul\":4899:5068   */\n    tag_235:\n        /* \"#utility.yul\":4983:4994   */\n      0x00\n        /* \"#utility.yul\":5017:5023   */\n      dup3\n        /* \"#utility.yul\":5012:5015   */\n      dup3\n        /* \"#utility.yul\":5005:5024   */\n      mstore\n        /* \"#utility.yul\":5057:5061   */\n      0x20\n        /* \"#utility.yul\":5052:5055   */\n      dup3\n        /* \"#utility.yul\":5048:5062   */\n      add\n        /* \"#utility.yul\":5033:5062   */\n      swap1\n      pop\n        /* \"#utility.yul\":4899:5068   */\n      swap3\n      swap2\n      pop\n      pop\n      jump\t// out\n        /* \"#utility.yul\":5074:5320   */\n    tag_236:\n        /* \"#utility.yul\":5155:5156   */\n      0x00\n        /* \"#utility.yul\":5165:5278   */\n    tag_329:\n        /* \"#utility.yul\":5179:5185   */\n      dup4\n        /* \"#utility.yul\":5176:5177   */\n      dup2\n        /* \"#utility.yul\":5173:5186   */\n      lt\n        /* \"#utility.yul\":5165:5278   */\n      iszero\n      tag_331\n      jumpi\n        /* \"#utility.yul\":5264:5265   */\n      dup1\n        /* \"#utility.yul\":5259:5262   */\n      dup3\n        /* \"#utility.yul\":5255:5266   */\n      add\n        /* \"#utility.yul\":5249:5267   */\n      mload\n        /* \"#utility.yul\":5245:5246   */\n      dup2\n        /* \"#utility.yul\":5240:5243   */\n      dup5\n        /* \"#utility.yul\":5236:5247   */\n      add\n        /* \"#utility.yul\":5229:5268   */\n      mstore\n        /* \"#utility.yul\":5201:5203   */\n      0x20\n        /* \"#utility.yul\":5198:5199   */\n      dup2\n        /* \"#utility.yul\":5194:5204   */\n      add\n        /* \"#utility.yul\":5189:5204   */\n      swap1\n      pop\n        /* \"#utility.yul\":5165:5278   */\n      jump(tag_329)\n    tag_331:\n        /* \"#utility.yul\":5312:5313   */\n      0x00\n        /* \"#utility.yul\":5303:5309   */\n      dup5\n        /* \"#utility.yul\":5298:5301   */\n      dup5\n        /* \"#utility.yul\":5294:5310   */\n      add\n        /* \"#utility.yul\":5287:5314   */\n      mstore\n        /* \"#utility.yul\":5136:5320   */\n      pop\n        /* \"#utility.yul\":5074:5320   */\n      pop\n      pop\n      pop\n      jump\t// out\n        /* \"#utility.yul\":5326:5703   */\n    tag_237:\n        /* \"#utility.yul\":5414:5417   */\n      0x00\n        /* \"#utility.yul\":5442:5481   */\n      tag_333\n        /* \"#utility.yul\":5475:5480   */\n      dup3\n        /* \"#utility.yul\":5442:5481   */\n      tag_234\n      jump\t// in\n    tag_333:\n        /* \"#utility.yul\":5497:5568   */\n      tag_334\n        /* \"#utility.yul\":5561:5567   */\n      dup2\n        /* \"#utility.yul\":5556:5559   */\n      dup6\n        /* \"#utility.yul\":5497:5568   */\n      tag_235\n      jump\t// in\n    tag_334:\n        /* \"#utility.yul\":5490:5568   */\n      swap4\n      pop\n        /* \"#utility.yul\":5577:5642   */\n      tag_335\n        /* \"#utility.yul\":5635:5641   */\n      dup2\n        /* \"#utility.yul\":5630:5633   */\n      dup6\n        /* \"#utility.yul\":5623:5627   */\n      0x20\n        /* \"#utility.yul\":5616:5621   */\n      dup7\n        /* \"#utility.yul\":5612:5628   */\n      add\n        /* \"#utility.yul\":5577:5642   */\n      tag_236\n      jump\t// in\n    tag_335:\n        /* \"#utility.yul\":5667:5696   */\n      tag_336\n        /* \"#utility.yul\":5689:5695   */\n      dup2\n        /* \"#utility.yul\":5667:5696   */\n      tag_224\n      jump\t// in\n    tag_336:\n        /* \"#utility.yul\":5662:5665   */\n      dup5\n        /* \"#utility.yul\":5658:5697   */\n      add\n        /* \"#utility.yul\":5651:5697   */\n      swap2\n      pop\n        /* \"#utility.yul\":5418:5703   */\n      pop\n        /* \"#utility.yul\":5326:5703   */\n      swap3\n      swap2\n      pop\n      pop\n      jump\t// out\n        /* \"#utility.yul\":5709:6022   */\n    tag_34:\n        /* \"#utility.yul\":5822:5826   */\n      0x00\n        /* \"#utility.yul\":5860:5862   */\n      0x20\n        /* \"#utility.yul\":5849:5858   */\n      dup3\n        /* \"#utility.yul\":5845:5863   */\n      add\n        /* \"#utility.yul\":5837:5863   */\n      swap1\n      pop\n        /* \"#utility.yul\":5909:5918   */\n      dup2\n        /* \"#utility.yul\":5903:5907   */\n      dup2\n        /* \"#utility.yul\":5899:5919   */\n      sub\n        /* \"#utility.yul\":5895:5896   */\n      0x00\n        /* \"#utility.yul\":5884:5893   */\n      dup4\n        /* \"#utility.yul\":5880:5897   */\n      add\n        /* \"#utility.yul\":5873:5920   */\n      mstore\n        /* \"#utility.yul\":5937:6015   */\n      tag_338\n        /* \"#utility.yul\":6010:6014   */\n      dup2\n        /* \"#utility.yul\":6001:6007   */\n      dup5\n        /* \"#utility.yul\":5937:6015   */\n      tag_237\n      jump\t// in\n    tag_338:\n        /* \"#utility.yul\":5929:6015   */\n      swap1\n      pop\n        /* \"#utility.yul\":5709:6022   */\n      swap3\n      swap2\n      pop\n      pop\n      jump\t// out\n        /* \"#utility.yul\":6028:6827   */\n    tag_37:\n        /* \"#utility.yul\":6115:6121   */\n      0x00\n        /* \"#utility.yul\":6123:6129   */\n      dup1\n        /* \"#utility.yul\":6131:6137   */\n      0x00\n        /* \"#utility.yul\":6180:6182   */\n      0x60\n        /* \"#utility.yul\":6168:6177   */\n      dup5\n        /* \"#utility.yul\":6159:6166   */\n      dup7\n        /* \"#utility.yul\":6155:6178   */\n      sub\n        /* \"#utility.yul\":6151:6183   */\n      slt\n        /* \"#utility.yul\":6148:6267   */\n      iszero\n      tag_340\n      jumpi\n        /* \"#utility.yul\":6186:6265   */\n      tag_341\n      tag_213\n      jump\t// in\n    tag_341:\n        /* \"#utility.yul\":6148:6267   */\n    tag_340:\n        /* \"#utility.yul\":6306:6307   */\n      0x00\n        /* \"#utility.yul\":6331:6384   */\n      tag_342\n        /* \"#utility.yul\":6376:6383   */\n      dup7\n        /* \"#utility.yul\":6367:6373   */\n      dup3\n        /* \"#utility.yul\":6356:6365   */\n      dup8\n        /* \"#utility.yul\":6352:6374   */\n      add\n        /* \"#utility.yul\":6331:6384   */\n      tag_218\n      jump\t// in\n    tag_342:\n        /* \"#utility.yul\":6321:6384   */\n      swap4\n      pop\n        /* \"#utility.yul\":6277:6394   */\n      pop\n        /* \"#utility.yul\":6433:6435   */\n      0x20\n        /* \"#utility.yul\":6459:6512   */\n      tag_343\n        /* \"#utility.yul\":6504:6511   */\n      dup7\n        /* \"#utility.yul\":6495:6501   */\n      dup3\n        /* \"#utility.yul\":6484:6493   */\n      dup8\n        /* \"#utility.yul\":6480:6502   */\n      add\n        /* \"#utility.yul\":6459:6512   */\n      tag_221\n      jump\t// in\n    tag_343:\n        /* \"#utility.yul\":6449:6512   */\n      swap3\n      pop\n        /* \"#utility.yul\":6404:6522   */\n      pop\n        /* \"#utility.yul\":6589:6591   */\n      0x40\n        /* \"#utility.yul\":6578:6587   */\n      dup5\n        /* \"#utility.yul\":6574:6592   */\n      add\n        /* \"#utility.yul\":6561:6593   */\n      calldataload\n        /* \"#utility.yul\":6620:6638   */\n      0xffffffffffffffff\n        /* \"#utility.yul\":6612:6618   */\n      dup2\n        /* \"#utility.yul\":6609:6639   */\n      gt\n        /* \"#utility.yul\":6606:6723   */\n      iszero\n      tag_344\n      jumpi\n        /* \"#utility.yul\":6642:6721   */\n      tag_345\n      tag_214\n      jump\t// in\n    tag_345:\n        /* \"#utility.yul\":6606:6723   */\n    tag_344:\n        /* \"#utility.yul\":6747:6810   */\n      tag_346\n        /* \"#utility.yul\":6802:6809   */\n      dup7\n        /* \"#utility.yul\":6793:6799   */\n      dup3\n        /* \"#utility.yul\":6782:6791   */\n      dup8\n        /* \"#utility.yul\":6778:6800   */\n      add\n        /* \"#utility.yul\":6747:6810   */\n      tag_231\n      jump\t// in\n    tag_346:\n        /* \"#utility.yul\":6737:6810   */\n      swap2\n      pop\n        /* \"#utility.yul\":6532:6820   */\n      pop\n        /* \"#utility.yul\":6028:6827   */\n      swap3\n      pop\n      swap3\n      pop\n      swap3\n      jump\t// out\n        /* \"#utility.yul\":6833:7307   */\n    tag_42:\n        /* \"#utility.yul\":6901:6907   */\n      0x00\n        /* \"#utility.yul\":6909:6915   */\n      dup1\n        /* \"#utility.yul\":6958:6960   */\n      0x40\n        /* \"#utility.yul\":6946:6955   */\n      dup4\n        /* \"#utility.yul\":6937:6944   */\n      dup6\n        /* \"#utility.yul\":6933:6956   */\n      sub\n        /* \"#utility.yul\":6929:6961   */\n      slt\n        /* \"#utility.yul\":6926:7045   */\n      iszero\n      tag_348\n      jumpi\n        /* \"#utility.yul\":6964:7043   */\n      tag_349\n      tag_213\n      jump\t// in\n    tag_349:\n        /* \"#utility.yul\":6926:7045   */\n    tag_348:\n        /* \"#utility.yul\":7084:7085   */\n      0x00\n        /* \"#utility.yul\":7109:7162   */\n      tag_350\n        /* \"#utility.yul\":7154:7161   */\n      dup6\n        /* \"#utility.yul\":7145:7151   */\n      dup3\n        /* \"#utility.yul\":7134:7143   */\n      dup7\n        /* \"#utility.yul\":7130:7152   */\n      add\n        /* \"#utility.yul\":7109:7162   */\n      tag_218\n      jump\t// in\n    tag_350:\n        /* \"#utility.yul\":7099:7162   */\n      swap3\n      pop\n        /* \"#utility.yul\":7055:7172   */\n      pop\n        /* \"#utility.yul\":7211:7213   */\n      0x20\n        /* \"#utility.yul\":7237:7290   */\n      tag_351\n        /* \"#utility.yul\":7282:7289   */\n      dup6\n        /* \"#utility.yul\":7273:7279   */\n      dup3\n        /* \"#utility.yul\":7262:7271   */\n      dup7\n        /* \"#utility.yul\":7258:7280   */\n      add\n        /* \"#utility.yul\":7237:7290   */\n      tag_221\n      jump\t// in\n    tag_351:\n        /* \"#utility.yul\":7227:7290   */\n      swap2\n      pop\n        /* \"#utility.yul\":7182:7300   */\n      pop\n        /* \"#utility.yul\":6833:7307   */\n      swap3\n      pop\n      swap3\n      swap1\n      pop\n      jump\t// out\n        /* \"#utility.yul\":7313:7431   */\n    tag_238:\n        /* \"#utility.yul\":7400:7424   */\n      tag_353\n        /* \"#utility.yul\":7418:7423   */\n      dup2\n        /* \"#utility.yul\":7400:7424   */\n      tag_219\n      jump\t// in\n    tag_353:\n        /* \"#utility.yul\":7395:7398   */\n      dup3\n        /* \"#utility.yul\":7388:7425   */\n      mstore\n        /* \"#utility.yul\":7313:7431   */\n      pop\n      pop\n      jump\t// out\n        /* \"#utility.yul\":7437:7659   */\n    tag_48:\n        /* \"#utility.yul\":7530:7534   */\n      0x00\n        /* \"#utility.yul\":7568:7570   */\n      0x20\n        /* \"#utility.yul\":7557:7566   */\n      dup3\n        /* \"#utility.yul\":7553:7571   */\n      add\n        /* \"#utility.yul\":7545:7571   */\n      swap1\n      pop\n        /* \"#utility.yul\":7581:7652   */\n      tag_355\n        /* \"#utility.yul\":7649:7650   */\n      0x00\n        /* \"#utility.yul\":7638:7647   */\n      dup4\n        /* \"#utility.yul\":7634:7651   */\n      add\n        /* \"#utility.yul\":7625:7631   */\n      dup5\n        /* \"#utility.yul\":7581:7652   */\n      tag_238\n      jump\t// in\n    tag_355:\n        /* \"#utility.yul\":7437:7659   */\n      swap3\n      swap2\n      pop\n      pop\n      jump\t// out\n        /* \"#utility.yul\":7665:8284   */\n    tag_51:\n        /* \"#utility.yul\":7742:7748   */\n      0x00\n        /* \"#utility.yul\":7750:7756   */\n      dup1\n        /* \"#utility.yul\":7758:7764   */\n      0x00\n        /* \"#utility.yul\":7807:7809   */\n      0x60\n        /* \"#utility.yul\":7795:7804   */\n      dup5\n        /* \"#utility.yul\":7786:7793   */\n      dup7\n        /* \"#utility.yul\":7782:7805   */\n      sub\n        /* \"#utility.yul\":7778:7810   */\n      slt\n        /* \"#utility.yul\":7775:7894   */\n      iszero\n      tag_357\n      jumpi\n        /* \"#utility.yul\":7813:7892   */\n      tag_358\n      tag_213\n      jump\t// in\n    tag_358:\n        /* \"#utility.yul\":7775:7894   */\n    tag_357:\n        /* \"#utility.yul\":7933:7934   */\n      0x00\n        /* \"#utility.yul\":7958:8011   */\n      tag_359\n        /* \"#utility.yul\":8003:8010   */\n      dup7\n        /* \"#utility.yul\":7994:8000   */\n      dup3\n        /* \"#utility.yul\":7983:7992   */\n      dup8\n        /* \"#utility.yul\":7979:8001   */\n      add\n        /* \"#utility.yul\":7958:8011   */\n      tag_218\n      jump\t// in\n    tag_359:\n        /* \"#utility.yul\":7948:8011   */\n      swap4\n      pop\n        /* \"#utility.yul\":7904:8021   */\n      pop\n        /* \"#utility.yul\":8060:8062   */\n      0x20\n        /* \"#utility.yul\":8086:8139   */\n      tag_360\n        /* \"#utility.yul\":8131:8138   */\n      dup7\n        /* \"#utility.yul\":8122:8128   */\n      dup3\n        /* \"#utility.yul\":8111:8120   */\n      dup8\n        /* \"#utility.yul\":8107:8129   */\n      add\n        /* \"#utility.yul\":8086:8139   */\n      tag_218\n      jump\t// in\n    tag_360:\n        /* \"#utility.yul\":8076:8139   */\n      swap3\n      pop\n        /* \"#utility.yul\":8031:8149   */\n      pop\n        /* \"#utility.yul\":8188:8190   */\n      0x40\n        /* \"#utility.yul\":8214:8267   */\n      tag_361\n        /* \"#utility.yul\":8259:8266   */\n      dup7\n        /* \"#utility.yul\":8250:8256   */\n      dup3\n        /* \"#utility.yul\":8239:8248   */\n      dup8\n        /* \"#utility.yul\":8235:8257   */\n      add\n        /* \"#utility.yul\":8214:8267   */\n      tag_221\n      jump\t// in\n    tag_361:\n        /* \"#utility.yul\":8204:8267   */\n      swap2\n      pop\n        /* \"#utility.yul\":8159:8277   */\n      pop\n        /* \"#utility.yul\":7665:8284   */\n      swap3\n      pop\n      swap3\n      pop\n      swap3\n      jump\t// out\n        /* \"#utility.yul\":8290:8376   */\n    tag_239:\n        /* \"#utility.yul\":8325:8332   */\n      0x00\n        /* \"#utility.yul\":8365:8369   */\n      0xff\n        /* \"#utility.yul\":8358:8363   */\n      dup3\n        /* \"#utility.yul\":8354:8370   */\n      and\n        /* \"#utility.yul\":8343:8370   */\n      swap1\n      pop\n        /* \"#utility.yul\":8290:8376   */\n      swap2\n      swap1\n      pop\n      jump\t// out\n        /* \"#utility.yul\":8382:8494   */\n    tag_240:\n        /* \"#utility.yul\":8465:8487   */\n      tag_364\n        /* \"#utility.yul\":8481:8486   */\n      dup2\n        /* \"#utility.yul\":8465:8487   */\n      tag_239\n      jump\t// in\n    tag_364:\n        /* \"#utility.yul\":8460:8463   */\n      dup3\n        /* \"#utility.yul\":8453:8488   */\n      mstore\n        /* \"#utility.yul\":8382:8494   */\n      pop\n      pop\n      jump\t// out\n        /* \"#utility.yul\":8500:8714   */\n    tag_57:\n        /* \"#utility.yul\":8589:8593   */\n      0x00\n        /* \"#utility.yul\":8627:8629   */\n      0x20\n        /* \"#utility.yul\":8616:8625   */\n      dup3\n        /* \"#utility.yul\":8612:8630   */\n      add\n        /* \"#utility.yul\":8604:8630   */\n      swap1\n      pop\n        /* \"#utility.yul\":8640:8707   */\n      tag_366\n        /* \"#utility.yul\":8704:8705   */\n      0x00\n        /* \"#utility.yul\":8693:8702   */\n      dup4\n        /* \"#utility.yul\":8689:8706   */\n      add\n        /* \"#utility.yul\":8680:8686   */\n      dup5\n        /* \"#utility.yul\":8640:8707   */\n      tag_240\n      jump\t// in\n    tag_366:\n        /* \"#utility.yul\":8500:8714   */\n      swap3\n      swap2\n      pop\n      pop\n      jump\t// out\n        /* \"#utility.yul\":8720:9229   */\n    tag_60:\n        /* \"#utility.yul\":8789:8795   */\n      0x00\n        /* \"#utility.yul\":8838:8840   */\n      0x20\n        /* \"#utility.yul\":8826:8835   */\n      dup3\n        /* \"#utility.yul\":8817:8824   */\n      dup5\n        /* \"#utility.yul\":8813:8836   */\n      sub\n        /* \"#utility.yul\":8809:8841   */\n      slt\n        /* \"#utility.yul\":8806:8925   */\n      iszero\n      tag_368\n      jumpi\n        /* \"#utility.yul\":8844:8923   */\n      tag_369\n      tag_213\n      jump\t// in\n    tag_369:\n        /* \"#utility.yul\":8806:8925   */\n    tag_368:\n        /* \"#utility.yul\":8992:8993   */\n      0x00\n        /* \"#utility.yul\":8981:8990   */\n      dup3\n        /* \"#utility.yul\":8977:8994   */\n      add\n        /* \"#utility.yul\":8964:8995   */\n      calldataload\n        /* \"#utility.yul\":9022:9040   */\n      0xffffffffffffffff\n        /* \"#utility.yul\":9014:9020   */\n      dup2\n        /* \"#utility.yul\":9011:9041   */\n      gt\n        /* \"#utility.yul\":9008:9125   */\n      iszero\n      tag_370\n      jumpi\n        /* \"#utility.yul\":9044:9123   */\n      tag_371\n      tag_214\n      jump\t// in\n    tag_371:\n        /* \"#utility.yul\":9008:9125   */\n    tag_370:\n        /* \"#utility.yul\":9149:9212   */\n      tag_372\n        /* \"#utility.yul\":9204:9211   */\n      dup5\n        /* \"#utility.yul\":9195:9201   */\n      dup3\n        /* \"#utility.yul\":9184:9193   */\n      dup6\n        /* \"#utility.yul\":9180:9202   */\n      add\n        /* \"#utility.yul\":9149:9212   */\n      tag_231\n      jump\t// in\n    tag_372:\n        /* \"#utility.yul\":9139:9212   */\n      swap2\n      pop\n        /* \"#utility.yul\":8935:9222   */\n      pop\n        /* \"#utility.yul\":8720:9229   */\n      swap3\n      swap2\n      pop\n      pop\n      jump\t// out\n        /* \"#utility.yul\":9235:9353   */\n    tag_241:\n        /* \"#utility.yul\":9322:9346   */\n      tag_374\n        /* \"#utility.yul\":9340:9345   */\n      dup2\n        /* \"#utility.yul\":9322:9346   */\n      tag_216\n      jump\t// in\n    tag_374:\n        /* \"#utility.yul\":9317:9320   */\n      dup3\n        /* \"#utility.yul\":9310:9347   */\n      mstore\n        /* \"#utility.yul\":9235:9353   */\n      pop\n      pop\n      jump\t// out\n        /* \"#utility.yul\":9359:10316   */\n    tag_68:\n        /* \"#utility.yul\":9632:9636   */\n      0x00\n        /* \"#utility.yul\":9670:9673   */\n      0xc0\n        /* \"#utility.yul\":9659:9668   */\n      dup3\n        /* \"#utility.yul\":9655:9674   */\n      add\n        /* \"#utility.yul\":9647:9674   */\n      swap1\n      pop\n        /* \"#utility.yul\":9720:9729   */\n      dup2\n        /* \"#utility.yul\":9714:9718   */\n      dup2\n        /* \"#utility.yul\":9710:9730   */\n      sub\n        /* \"#utility.yul\":9706:9707   */\n      0x00\n        /* \"#utility.yul\":9695:9704   */\n      dup4\n        /* \"#utility.yul\":9691:9708   */\n      add\n        /* \"#utility.yul\":9684:9731   */\n      mstore\n        /* \"#utility.yul\":9748:9826   */\n      tag_376\n        /* \"#utility.yul\":9821:9825   */\n      dup2\n        /* \"#utility.yul\":9812:9818   */\n      dup10\n        /* \"#utility.yul\":9748:9826   */\n      tag_237\n      jump\t// in\n    tag_376:\n        /* \"#utility.yul\":9740:9826   */\n      swap1\n      pop\n        /* \"#utility.yul\":9836:9908   */\n      tag_377\n        /* \"#utility.yul\":9904:9906   */\n      0x20\n        /* \"#utility.yul\":9893:9902   */\n      dup4\n        /* \"#utility.yul\":9889:9907   */\n      add\n        /* \"#utility.yul\":9880:9886   */\n      dup9\n        /* \"#utility.yul\":9836:9908   */\n      tag_241\n      jump\t// in\n    tag_377:\n        /* \"#utility.yul\":9918:9990   */\n      tag_378\n        /* \"#utility.yul\":9986:9988   */\n      0x40\n        /* \"#utility.yul\":9975:9984   */\n      dup4\n        /* \"#utility.yul\":9971:9989   */\n      add\n        /* \"#utility.yul\":9962:9968   */\n      dup8\n        /* \"#utility.yul\":9918:9990   */\n      tag_241\n      jump\t// in\n    tag_378:\n        /* \"#utility.yul\":10000:10072   */\n      tag_379\n        /* \"#utility.yul\":10068:10070   */\n      0x60\n        /* \"#utility.yul\":10057:10066   */\n      dup4\n        /* \"#utility.yul\":10053:10071   */\n      add\n        /* \"#utility.yul\":10044:10050   */\n      dup7\n        /* \"#utility.yul\":10000:10072   */\n      tag_238\n      jump\t// in\n    tag_379:\n        /* \"#utility.yul\":10120:10129   */\n      dup2\n        /* \"#utility.yul\":10114:10118   */\n      dup2\n        /* \"#utility.yul\":10110:10130   */\n      sub\n        /* \"#utility.yul\":10104:10107   */\n      0x80\n        /* \"#utility.yul\":10093:10102   */\n      dup4\n        /* \"#utility.yul\":10089:10108   */\n      add\n        /* \"#utility.yul\":10082:10131   */\n      mstore\n        /* \"#utility.yul\":10148:10226   */\n      tag_380\n        /* \"#utility.yul\":10221:10225   */\n      dup2\n        /* \"#utility.yul\":10212:10218   */\n      dup6\n        /* \"#utility.yul\":10148:10226   */\n      tag_237\n      jump\t// in\n    tag_380:\n        /* \"#utility.yul\":10140:10226   */\n      swap1\n      pop\n        /* \"#utility.yul\":10236:10309   */\n      tag_381\n        /* \"#utility.yul\":10304:10307   */\n      0xa0\n        /* \"#utility.yul\":10293:10302   */\n      dup4\n        /* \"#utility.yul\":10289:10308   */\n      add\n        /* \"#utility.yul\":10280:10286   */\n      dup5\n        /* \"#utility.yul\":10236:10309   */\n      tag_238\n      jump\t// in\n    tag_381:\n        /* \"#utility.yul\":9359:10316   */\n      swap8\n      swap7\n      pop\n      pop\n      pop\n      pop\n      pop\n      pop\n      pop\n      jump\t// out\n        /* \"#utility.yul\":10322:10651   */\n    tag_74:\n        /* \"#utility.yul\":10381:10387   */\n      0x00\n        /* \"#utility.yul\":10430:10432   */\n      0x20\n        /* \"#utility.yul\":10418:10427   */\n      dup3\n        /* \"#utility.yul\":10409:10416   */\n      dup5\n        /* \"#utility.yul\":10405:10428   */\n      sub\n        /* \"#utility.yul\":10401:10433   */\n      slt\n        /* \"#utility.yul\":10398:10517   */\n      iszero\n      tag_383\n      jumpi\n        /* \"#utility.yul\":10436:10515   */\n      tag_384\n      tag_213\n      jump\t// in\n    tag_384:\n        /* \"#utility.yul\":10398:10517   */\n    tag_383:\n        /* \"#utility.yul\":10556:10557   */\n      0x00\n        /* \"#utility.yul\":10581:10634   */\n      tag_385\n        /* \"#utility.yul\":10626:10633   */\n      dup5\n        /* \"#utility.yul\":10617:10623   */\n      dup3\n        /* \"#utility.yul\":10606:10615   */\n      dup6\n        /* \"#utility.yul\":10602:10624   */\n      add\n        /* \"#utility.yul\":10581:10634   */\n      tag_218\n      jump\t// in\n    tag_385:\n        /* \"#utility.yul\":10571:10634   */\n      swap2\n      pop\n        /* \"#utility.yul\":10527:10644   */\n      pop\n        /* \"#utility.yul\":10322:10651   */\n      swap3\n      swap2\n      pop\n      pop\n      jump\t// out\n        /* \"#utility.yul\":10657:10986   */\n    tag_79:\n        /* \"#utility.yul\":10716:10722   */\n      0x00\n        /* \"#utility.yul\":10765:10767   */\n      0x20\n        /* \"#utility.yul\":10753:10762   */\n      dup3\n        /* \"#utility.yul\":10744:10751   */\n      dup5\n        /* \"#utility.yul\":10740:10763   */\n      sub\n        /* \"#utility.yul\":10736:10768   */\n      slt\n        /* \"#utility.yul\":10733:10852   */\n      iszero\n      tag_387\n      jumpi\n        /* \"#utility.yul\":10771:10850   */\n      tag_388\n      tag_213\n      jump\t// in\n    tag_388:\n        /* \"#utility.yul\":10733:10852   */\n    tag_387:\n        /* \"#utility.yul\":10891:10892   */\n      0x00\n        /* \"#utility.yul\":10916:10969   */\n      tag_389\n        /* \"#utility.yul\":10961:10968   */\n      dup5\n        /* \"#utility.yul\":10952:10958   */\n      dup3\n        /* \"#utility.yul\":10941:10950   */\n      dup6\n        /* \"#utility.yul\":10937:10959   */\n      add\n        /* \"#utility.yul\":10916:10969   */\n      tag_221\n      jump\t// in\n    tag_389:\n        /* \"#utility.yul\":10906:10969   */\n      swap2\n      pop\n        /* \"#utility.yul\":10862:10979   */\n      pop\n        /* \"#utility.yul\":10657:10986   */\n      swap3\n      swap2\n      pop\n      pop\n      jump\t// out\n        /* \"#utility.yul\":10992:11747   */\n    tag_82:\n        /* \"#utility.yul\":11217:11221   */\n      0x00\n        /* \"#utility.yul\":11255:11258   */\n      0xa0\n        /* \"#utility.yul\":11244:11253   */\n      dup3\n        /* \"#utility.yul\":11240:11259   */\n      add\n        /* \"#utility.yul\":11232:11259   */\n      swap1\n      pop\n        /* \"#utility.yul\":11269:11340   */\n      tag_391\n        /* \"#utility.yul\":11337:11338   */\n      0x00\n        /* \"#utility.yul\":11326:11335   */\n      dup4\n        /* \"#utility.yul\":11322:11339   */\n      add\n        /* \"#utility.yul\":11313:11319   */\n      dup9\n        /* \"#utility.yul\":11269:11340   */\n      tag_241\n      jump\t// in\n    tag_391:\n        /* \"#utility.yul\":11350:11422   */\n      tag_392\n        /* \"#utility.yul\":11418:11420   */\n      0x20\n        /* \"#utility.yul\":11407:11416   */\n      dup4\n        /* \"#utility.yul\":11403:11421   */\n      add\n        /* \"#utility.yul\":11394:11400   */\n      dup8\n        /* \"#utility.yul\":11350:11422   */\n      tag_241\n      jump\t// in\n    tag_392:\n        /* \"#utility.yul\":11432:11504   */\n      tag_393\n        /* \"#utility.yul\":11500:11502   */\n      0x40\n        /* \"#utility.yul\":11489:11498   */\n      dup4\n        /* \"#utility.yul\":11485:11503   */\n      add\n        /* \"#utility.yul\":11476:11482   */\n      dup7\n        /* \"#utility.yul\":11432:11504   */\n      tag_238\n      jump\t// in\n    tag_393:\n        /* \"#utility.yul\":11551:11560   */\n      dup2\n        /* \"#utility.yul\":11545:11549   */\n      dup2\n        /* \"#utility.yul\":11541:11561   */\n      sub\n        /* \"#utility.yul\":11536:11538   */\n      0x60\n        /* \"#utility.yul\":11525:11534   */\n      dup4\n        /* \"#utility.yul\":11521:11539   */\n      add\n        /* \"#utility.yul\":11514:11562   */\n      mstore\n        /* \"#utility.yul\":11579:11657   */\n      tag_394\n        /* \"#utility.yul\":11652:11656   */\n      dup2\n        /* \"#utility.yul\":11643:11649   */\n      dup6\n        /* \"#utility.yul\":11579:11657   */\n      tag_237\n      jump\t// in\n    tag_394:\n        /* \"#utility.yul\":11571:11657   */\n      swap1\n      pop\n        /* \"#utility.yul\":11667:11740   */\n      tag_395\n        /* \"#utility.yul\":11735:11738   */\n      0x80\n        /* \"#utility.yul\":11724:11733   */\n      dup4\n        /* \"#utility.yul\":11720:11739   */\n      add\n        /* \"#utility.yul\":11711:11717   */\n      dup5\n        /* \"#utility.yul\":11667:11740   */\n      tag_238\n      jump\t// in\n    tag_395:\n        /* \"#utility.yul\":10992:11747   */\n      swap7\n      swap6\n      pop\n      pop\n      pop\n      pop\n      pop\n      pop\n      jump\t// out\n        /* \"#utility.yul\":11753:11975   */\n    tag_90:\n        /* \"#utility.yul\":11846:11850   */\n      0x00\n        /* \"#utility.yul\":11884:11886   */\n      0x20\n        /* \"#utility.yul\":11873:11882   */\n      dup3\n        /* \"#utility.yul\":11869:11887   */\n      add\n        /* \"#utility.yul\":11861:11887   */\n      swap1\n      pop\n        /* \"#utility.yul\":11897:11968   */\n      tag_397\n        /* \"#utility.yul\":11965:11966   */\n      0x00\n        /* \"#utility.yul\":11954:11963   */\n      dup4\n        /* \"#utility.yul\":11950:11967   */\n      add\n        /* \"#utility.yul\":11941:11947   */\n      dup5\n        /* \"#utility.yul\":11897:11968   */\n      tag_241\n      jump\t// in\n    tag_397:\n        /* \"#utility.yul\":11753:11975   */\n      swap3\n      swap2\n      pop\n      pop\n      jump\t// out\n        /* \"#utility.yul\":11981:12455   */\n    tag_103:\n        /* \"#utility.yul\":12049:12055   */\n      0x00\n        /* \"#utility.yul\":12057:12063   */\n      dup1\n        /* \"#utility.yul\":12106:12108   */\n      0x40\n        /* \"#utility.yul\":12094:12103   */\n      dup4\n        /* \"#utility.yul\":12085:12092   */\n      dup6\n        /* \"#utility.yul\":12081:12104   */\n      sub\n        /* \"#utility.yul\":12077:12109   */\n      slt\n        /* \"#utility.yul\":12074:12193   */\n      iszero\n      tag_399\n      jumpi\n        /* \"#utility.yul\":12112:12191   */\n      tag_400\n      tag_213\n      jump\t// in\n    tag_400:\n        /* \"#utility.yul\":12074:12193   */\n    tag_399:\n        /* \"#utility.yul\":12232:12233   */\n      0x00\n        /* \"#utility.yul\":12257:12310   */\n      tag_401\n        /* \"#utility.yul\":12302:12309   */\n      dup6\n        /* \"#utility.yul\":12293:12299   */\n      dup3\n        /* \"#utility.yul\":12282:12291   */\n      dup7\n        /* \"#utility.yul\":12278:12300   */\n      add\n        /* \"#utility.yul\":12257:12310   */\n      tag_218\n      jump\t// in\n    tag_401:\n        /* \"#utility.yul\":12247:12310   */\n      swap3\n      pop\n        /* \"#utility.yul\":12203:12320   */\n      pop\n        /* \"#utility.yul\":12359:12361   */\n      0x20\n        /* \"#utility.yul\":12385:12438   */\n      tag_402\n        /* \"#utility.yul\":12430:12437   */\n      dup6\n        /* \"#utility.yul\":12421:12427   */\n      dup3\n        /* \"#utility.yul\":12410:12419   */\n      dup7\n        /* \"#utility.yul\":12406:12428   */\n      add\n        /* \"#utility.yul\":12385:12438   */\n      tag_218\n      jump\t// in\n    tag_402:\n        /* \"#utility.yul\":12375:12438   */\n      swap2\n      pop\n        /* \"#utility.yul\":12330:12448   */\n      pop\n        /* \"#utility.yul\":11981:12455   */\n      swap3\n      pop\n      swap3\n      swap1\n      pop\n      jump\t// out\n        /* \"#utility.yul\":12461:12629   */\n    tag_242:\n        /* \"#utility.yul\":12601:12621   */\n      0x4e6f7420656e6f7567682062616c616e63650000000000000000000000000000\n        /* \"#utility.yul\":12597:12598   */\n      0x00\n        /* \"#utility.yul\":12589:12595   */\n      dup3\n        /* \"#utility.yul\":12585:12599   */\n      add\n        /* \"#utility.yul\":12578:12622   */\n      mstore\n        /* \"#utility.yul\":12461:12629   */\n      pop\n      jump\t// out\n        /* \"#utility.yul\":12635:13001   */\n    tag_243:\n        /* \"#utility.yul\":12777:12780   */\n      0x00\n        /* \"#utility.yul\":12798:12865   */\n      tag_405\n        /* \"#utility.yul\":12862:12864   */\n      0x12\n        /* \"#utility.yul\":12857:12860   */\n      dup4\n        /* \"#utility.yul\":12798:12865   */\n      tag_235\n      jump\t// in\n    tag_405:\n        /* \"#utility.yul\":12791:12865   */\n      swap2\n      pop\n        /* \"#utility.yul\":12874:12967   */\n      tag_406\n        /* \"#utility.yul\":12963:12966   */\n      dup3\n        /* \"#utility.yul\":12874:12967   */\n      tag_242\n      jump\t// in\n    tag_406:\n        /* \"#utility.yul\":12992:12994   */\n      0x20\n        /* \"#utility.yul\":12987:12990   */\n      dup3\n        /* \"#utility.yul\":12983:12995   */\n      add\n        /* \"#utility.yul\":12976:12995   */\n      swap1\n      pop\n        /* \"#utility.yul\":12635:13001   */\n      swap2\n      swap1\n      pop\n      jump\t// out\n        /* \"#utility.yul\":13007:13426   */\n    tag_109:\n        /* \"#utility.yul\":13173:13177   */\n      0x00\n        /* \"#utility.yul\":13211:13213   */\n      0x20\n        /* \"#utility.yul\":13200:13209   */\n      dup3\n        /* \"#utility.yul\":13196:13214   */\n      add\n        /* \"#utility.yul\":13188:13214   */\n      swap1\n      pop\n        /* \"#utility.yul\":13260:13269   */\n      dup2\n        /* \"#utility.yul\":13254:13258   */\n      dup2\n        /* \"#utility.yul\":13250:13270   */\n      sub\n        /* \"#utility.yul\":13246:13247   */\n      0x00\n        /* \"#utility.yul\":13235:13244   */\n      dup4\n        /* \"#utility.yul\":13231:13248   */\n      add\n        /* \"#utility.yul\":13224:13271   */\n      mstore\n        /* \"#utility.yul\":13288:13419   */\n      tag_408\n        /* \"#utility.yul\":13414:13418   */\n      dup2\n        /* \"#utility.yul\":13288:13419   */\n      tag_243\n      jump\t// in\n    tag_408:\n        /* \"#utility.yul\":13280:13419   */\n      swap1\n      pop\n        /* \"#utility.yul\":13007:13426   */\n      swap2\n      swap1\n      pop\n      jump\t// out\n        /* \"#utility.yul\":13432:13599   */\n    tag_244:\n        /* \"#utility.yul\":13572:13591   */\n      0x416c6c6f77616e636520746f6f206c6f77000000000000000000000000000000\n        /* \"#utility.yul\":13568:13569   */\n      0x00\n        /* \"#utility.yul\":13560:13566   */\n      dup3\n        /* \"#utility.yul\":13556:13570   */\n      add\n        /* \"#utility.yul\":13549:13592   */\n      mstore\n        /* \"#utility.yul\":13432:13599   */\n      pop\n      jump\t// out\n        /* \"#utility.yul\":13605:13971   */\n    tag_245:\n        /* \"#utility.yul\":13747:13750   */\n      0x00\n        /* \"#utility.yul\":13768:13835   */\n      tag_411\n        /* \"#utility.yul\":13832:13834   */\n      0x11\n        /* \"#utility.yul\":13827:13830   */\n      dup4\n        /* \"#utility.yul\":13768:13835   */\n      tag_235\n      jump\t// in\n    tag_411:\n        /* \"#utility.yul\":13761:13835   */\n      swap2\n      pop\n        /* \"#utility.yul\":13844:13937   */\n      tag_412\n        /* \"#utility.yul\":13933:13936   */\n      dup3\n        /* \"#utility.yul\":13844:13937   */\n      tag_244\n      jump\t// in\n    tag_412:\n        /* \"#utility.yul\":13962:13964   */\n      0x20\n        /* \"#utility.yul\":13957:13960   */\n      dup3\n        /* \"#utility.yul\":13953:13965   */\n      add\n        /* \"#utility.yul\":13946:13965   */\n      swap1\n      pop\n        /* \"#utility.yul\":13605:13971   */\n      swap2\n      swap1\n      pop\n      jump\t// out\n        /* \"#utility.yul\":13977:14396   */\n    tag_112:\n        /* \"#utility.yul\":14143:14147   */\n      0x00\n        /* \"#utility.yul\":14181:14183   */\n      0x20\n        /* \"#utility.yul\":14170:14179   */\n      dup3\n        /* \"#utility.yul\":14166:14184   */\n      add\n        /* \"#utility.yul\":14158:14184   */\n      swap1\n      pop\n        /* \"#utility.yul\":14230:14239   */\n      dup2\n        /* \"#utility.yul\":14224:14228   */\n      dup2\n        /* \"#utility.yul\":14220:14240   */\n      sub\n        /* \"#utility.yul\":14216:14217   */\n      0x00\n        /* \"#utility.yul\":14205:14214   */\n      dup4\n        /* \"#utility.yul\":14201:14218   */\n      add\n        /* \"#utility.yul\":14194:14241   */\n      mstore\n        /* \"#utility.yul\":14258:14389   */\n      tag_414\n        /* \"#utility.yul\":14384:14388   */\n      dup2\n        /* \"#utility.yul\":14258:14389   */\n      tag_245\n      jump\t// in\n    tag_414:\n        /* \"#utility.yul\":14250:14389   */\n      swap1\n      pop\n        /* \"#utility.yul\":13977:14396   */\n      swap2\n      swap1\n      pop\n      jump\t// out\n        /* \"#utility.yul\":14402:14582   */\n    tag_246:\n        /* \"#utility.yul\":14450:14527   */\n      0x4e487b7100000000000000000000000000000000000000000000000000000000\n        /* \"#utility.yul\":14447:14448   */\n      0x00\n        /* \"#utility.yul\":14440:14528   */\n      mstore\n        /* \"#utility.yul\":14547:14551   */\n      0x11\n        /* \"#utility.yul\":14544:14545   */\n      0x04\n        /* \"#utility.yul\":14537:14552   */\n      mstore\n        /* \"#utility.yul\":14571:14575   */\n      0x24\n        /* \"#utility.yul\":14568:14569   */\n      0x00\n        /* \"#utility.yul\":14561:14576   */\n      revert\n        /* \"#utility.yul\":14588:14782   */\n    tag_114:\n        /* \"#utility.yul\":14628:14632   */\n      0x00\n        /* \"#utility.yul\":14648:14668   */\n      tag_417\n        /* \"#utility.yul\":14666:14667   */\n      dup3\n        /* \"#utility.yul\":14648:14668   */\n      tag_219\n      jump\t// in\n    tag_417:\n        /* \"#utility.yul\":14643:14668   */\n      swap2\n      pop\n        /* \"#utility.yul\":14682:14702   */\n      tag_418\n        /* \"#utility.yul\":14700:14701   */\n      dup4\n        /* \"#utility.yul\":14682:14702   */\n      tag_219\n      jump\t// in\n    tag_418:\n        /* \"#utility.yul\":14677:14702   */\n      swap3\n      pop\n        /* \"#utility.yul\":14726:14727   */\n      dup3\n        /* \"#utility.yul\":14723:14724   */\n      dup3\n        /* \"#utility.yul\":14719:14728   */\n      sub\n        /* \"#utility.yul\":14711:14728   */\n      swap1\n      pop\n        /* \"#utility.yul\":14750:14751   */\n      dup2\n        /* \"#utility.yul\":14744:14748   */\n      dup2\n        /* \"#utility.yul\":14741:14752   */\n      gt\n        /* \"#utility.yul\":14738:14775   */\n      iszero\n      tag_419\n      jumpi\n        /* \"#utility.yul\":14755:14773   */\n      tag_420\n      tag_246\n      jump\t// in\n    tag_420:\n        /* \"#utility.yul\":14738:14775   */\n    tag_419:\n        /* \"#utility.yul\":14588:14782   */\n      swap3\n      swap2\n      pop\n      pop\n      jump\t// out\n        /* \"#utility.yul\":14788:14979   */\n    tag_116:\n        /* \"#utility.yul\":14828:14831   */\n      0x00\n        /* \"#utility.yul\":14847:14867   */\n      tag_422\n        /* \"#utility.yul\":14865:14866   */\n      dup3\n        /* \"#utility.yul\":14847:14867   */\n      tag_219\n      jump\t// in\n    tag_422:\n        /* \"#utility.yul\":14842:14867   */\n      swap2\n      pop\n        /* \"#utility.yul\":14881:14901   */\n      tag_423\n        /* \"#utility.yul\":14899:14900   */\n      dup4\n        /* \"#utility.yul\":14881:14901   */\n      tag_219\n      jump\t// in\n    tag_423:\n        /* \"#utility.yul\":14876:14901   */\n      swap3\n      pop\n        /* \"#utility.yul\":14924:14925   */\n      dup3\n        /* \"#utility.yul\":14921:14922   */\n      dup3\n        /* \"#utility.yul\":14917:14926   */\n      add\n        /* \"#utility.yul\":14910:14926   */\n      swap1\n      pop\n        /* \"#utility.yul\":14945:14948   */\n      dup1\n        /* \"#utility.yul\":14942:14943   */\n      dup3\n        /* \"#utility.yul\":14939:14949   */\n      gt\n        /* \"#utility.yul\":14936:14972   */\n      iszero\n      tag_424\n      jumpi\n        /* \"#utility.yul\":14952:14970   */\n      tag_425\n      tag_246\n      jump\t// in\n    tag_425:\n        /* \"#utility.yul\":14936:14972   */\n    tag_424:\n        /* \"#utility.yul\":14788:14979   */\n      swap3\n      swap2\n      pop\n      pop\n      jump\t// out\n        /* \"#utility.yul\":14985:15165   */\n    tag_247:\n        /* \"#utility.yul\":15033:15110   */\n      0x4e487b7100000000000000000000000000000000000000000000000000000000\n        /* \"#utility.yul\":15030:15031   */\n      0x00\n        /* \"#utility.yul\":15023:15111   */\n      mstore\n        /* \"#utility.yul\":15130:15134   */\n      0x22\n        /* \"#utility.yul\":15127:15128   */\n      0x04\n        /* \"#utility.yul\":15120:15135   */\n      mstore\n        /* \"#utility.yul\":15154:15158   */\n      0x24\n        /* \"#utility.yul\":15151:15152   */\n      0x00\n        /* \"#utility.yul\":15144:15159   */\n      revert\n        /* \"#utility.yul\":15171:15491   */\n    tag_129:\n        /* \"#utility.yul\":15215:15221   */\n      0x00\n        /* \"#utility.yul\":15252:15253   */\n      0x02\n        /* \"#utility.yul\":15246:15250   */\n      dup3\n        /* \"#utility.yul\":15242:15254   */\n      div\n        /* \"#utility.yul\":15232:15254   */\n      swap1\n      pop\n        /* \"#utility.yul\":15299:15300   */\n      0x01\n        /* \"#utility.yul\":15293:15297   */\n      dup3\n        /* \"#utility.yul\":15289:15301   */\n      and\n        /* \"#utility.yul\":15320:15338   */\n      dup1\n        /* \"#utility.yul\":15310:15391   */\n      tag_428\n      jumpi\n        /* \"#utility.yul\":15376:15380   */\n      0x7f\n        /* \"#utility.yul\":15368:15374   */\n      dup3\n        /* \"#utility.yul\":15364:15381   */\n      and\n        /* \"#utility.yul\":15354:15381   */\n      swap2\n      pop\n        /* \"#utility.yul\":15310:15391   */\n    tag_428:\n        /* \"#utility.yul\":15438:15440   */\n      0x20\n        /* \"#utility.yul\":15430:15436   */\n      dup3\n        /* \"#utility.yul\":15427:15441   */\n      lt\n        /* \"#utility.yul\":15407:15425   */\n      dup2\n        /* \"#utility.yul\":15404:15442   */\n      sub\n        /* \"#utility.yul\":15401:15485   */\n      tag_429\n      jumpi\n        /* \"#utility.yul\":15457:15475   */\n      tag_430\n      tag_247\n      jump\t// in\n    tag_430:\n        /* \"#utility.yul\":15401:15485   */\n    tag_429:\n        /* \"#utility.yul\":15222:15491   */\n      pop\n        /* \"#utility.yul\":15171:15491   */\n      swap2\n      swap1\n      pop\n      jump\t// out\n        /* \"#utility.yul\":15497:15638   */\n    tag_248:\n        /* \"#utility.yul\":15546:15550   */\n      0x00\n        /* \"#utility.yul\":15569:15572   */\n      dup2\n        /* \"#utility.yul\":15561:15572   */\n      swap1\n      pop\n        /* \"#utility.yul\":15592:15595   */\n      dup2\n        /* \"#utility.yul\":15589:15590   */\n      0x00\n        /* \"#utility.yul\":15582:15596   */\n      mstore\n        /* \"#utility.yul\":15626:15630   */\n      0x20\n        /* \"#utility.yul\":15623:15624   */\n      0x00\n        /* \"#utility.yul\":15613:15631   */\n      keccak256\n        /* \"#utility.yul\":15605:15631   */\n      swap1\n      pop\n        /* \"#utility.yul\":15497:15638   */\n      swap2\n      swap1\n      pop\n      jump\t// out\n        /* \"#utility.yul\":15644:15737   */\n    tag_249:\n        /* \"#utility.yul\":15681:15687   */\n      0x00\n        /* \"#utility.yul\":15728:15730   */\n      0x20\n        /* \"#utility.yul\":15723:15725   */\n      0x1f\n        /* \"#utility.yul\":15716:15721   */\n      dup4\n        /* \"#utility.yul\":15712:15726   */\n      add\n        /* \"#utility.yul\":15708:15731   */\n      div\n        /* \"#utility.yul\":15698:15731   */\n      swap1\n      pop\n        /* \"#utility.yul\":15644:15737   */\n      swap2\n      swap1\n      pop\n      jump\t// out\n        /* \"#utility.yul\":15743:15850   */\n    tag_250:\n        /* \"#utility.yul\":15787:15795   */\n      0x00\n        /* \"#utility.yul\":15837:15842   */\n      dup3\n        /* \"#utility.yul\":15831:15835   */\n      dup3\n        /* \"#utility.yul\":15827:15843   */\n      shl\n        /* \"#utility.yul\":15806:15843   */\n      swap1\n      pop\n        /* \"#utility.yul\":15743:15850   */\n      swap3\n      swap2\n      pop\n      pop\n      jump\t// out\n        /* \"#utility.yul\":15856:16249   */\n    tag_251:\n        /* \"#utility.yul\":15925:15931   */\n      0x00\n        /* \"#utility.yul\":15975:15976   */\n      0x08\n        /* \"#utility.yul\":15963:15973   */\n      dup4\n        /* \"#utility.yul\":15959:15977   */\n      mul\n        /* \"#utility.yul\":15998:16095   */\n      tag_435\n        /* \"#utility.yul\":16028:16094   */\n      0xffffffffffffffffffffffffffffffffffffffffffffffffffffffffffffffff\n        /* \"#utility.yul\":16017:16026   */\n      dup3\n        /* \"#utility.yul\":15998:16095   */\n      tag_250\n      jump\t// in\n    tag_435:\n        /* \"#utility.yul\":16116:16155   */\n      tag_436\n        /* \"#utility.yul\":16146:16154   */\n      dup7\n        /* \"#utility.yul\":16135:16144   */\n      dup4\n        /* \"#utility.yul\":16116:16155   */\n      tag_250\n      jump\t// in\n    tag_436:\n        /* \"#utility.yul\":16104:16155   */\n      swap6\n      pop\n        /* \"#utility.yul\":16188:16192   */\n      dup1\n        /* \"#utility.yul\":16184:16193   */\n      not\n        /* \"#utility.yul\":16177:16182   */\n      dup5\n        /* \"#utility.yul\":16173:16194   */\n      and\n        /* \"#utility.yul\":16164:16194   */\n      swap4\n      pop\n        /* \"#utility.yul\":16237:16241   */\n      dup1\n        /* \"#utility.yul\":16227:16235   */\n      dup7\n        /* \"#utility.yul\":16223:16242   */\n      and\n        /* \"#utility.yul\":16216:16221   */\n      dup5\n        /* \"#utility.yul\":16213:16243   */\n      or\n        /* \"#utility.yul\":16203:16243   */\n      swap3\n      pop\n        /* \"#utility.yul\":15932:16249   */\n      pop\n      pop\n        /* \"#utility.yul\":15856:16249   */\n      swap4\n      swap3\n      pop\n      pop\n      pop\n      jump\t// out\n        /* \"#utility.yul\":16255:16315   */\n    tag_252:\n        /* \"#utility.yul\":16283:16286   */\n      0x00\n        /* \"#utility.yul\":16304:16309   */\n      dup2\n        /* \"#utility.yul\":16297:16309   */\n      swap1\n      pop\n        /* \"#utility.yul\":16255:16315   */\n      swap2\n      swap1\n      pop\n      jump\t// out\n        /* \"#utility.yul\":16321:16463   */\n    tag_253:\n        /* \"#utility.yul\":16371:16380   */\n      0x00\n        /* \"#utility.yul\":16404:16457   */\n      tag_439\n        /* \"#utility.yul\":16422:16456   */\n      tag_440\n        /* \"#utility.yul\":16431:16455   */\n      tag_441\n        /* \"#utility.yul\":16449:16454   */\n      dup5\n        /* \"#utility.yul\":16431:16455   */\n      tag_219\n      jump\t// in\n    tag_441:\n        /* \"#utility.yul\":16422:16456   */\n      tag_252\n      jump\t// in\n    tag_440:\n        /* \"#utility.yul\":16404:16457   */\n      tag_219\n      jump\t// in\n    tag_439:\n        /* \"#utility.yul\":16391:16457   */\n      swap1\n      pop\n        /* \"#utility.yul\":16321:16463   */\n      swap2\n      swap1\n      pop\n      jump\t// out\n        /* \"#utility.yul\":16469:16544   */\n    tag_254:\n        /* \"#utility.yul\":16512:16515   */\n      0x00\n        /* \"#utility.yul\":16533:16538   */\n      dup2\n        /* \"#utility.yul\":16526:16538   */\n      swap1\n      pop\n        /* \"#utility.yul\":16469:16544   */\n      swap2\n      swap1\n      pop\n      jump\t// out\n        /* \"#utility.yul\":16550:16819   */\n    tag_255:\n        /* \"#utility.yul\":16660:16699   */\n      tag_444\n        /* \"#utility.yul\":16691:16698   */\n      dup4\n        /* \"#utility.yul\":16660:16699   */\n      tag_253\n      jump\t// in\n    tag_444:\n        /* \"#utility.yul\":16721:16812   */\n      tag_445\n        /* \"#utility.yul\":16770:16811   */\n      tag_446\n        /* \"#utility.yul\":16794:16810   */\n      dup3\n        /* \"#utility.yul\":16770:16811   */\n      tag_254\n      jump\t// in\n    tag_446:\n        /* \"#utility.yul\":16762:16768   */\n      dup5\n        /* \"#utility.yul\":16755:16759   */\n      dup5\n        /* \"#utility.yul\":16749:16760   */\n      sload\n        /* \"#utility.yul\":16721:16812   */\n      tag_251\n      jump\t// in\n    tag_445:\n        /* \"#utility.yul\":16715:16719   */\n      dup3\n        /* \"#utility.yul\":16708:16813   */\n      sstore\n        /* \"#utility.yul\":16626:16819   */\n      pop\n        /* \"#utility.yul\":16550:16819   */\n      pop\n      pop\n      pop\n      jump\t// out\n        /* \"#utility.yul\":16825:16898   */\n    tag_256:\n        /* \"#utility.yul\":16870:16873   */\n      0x00\n        /* \"#utility.yul\":16825:16898   */\n      swap1\n      jump\t// out\n        /* \"#utility.yul\":16904:17093   */\n    tag_257:\n        /* \"#utility.yul\":16981:17013   */\n      tag_449\n      tag_256\n      jump\t// in\n    tag_449:\n        /* \"#utility.yul\":17022:17087   */\n      tag_450\n        /* \"#utility.yul\":17080:17086   */\n      dup2\n        /* \"#utility.yul\":17072:17078   */\n      dup5\n        /* \"#utility.yul\":17066:17070   */\n      dup5\n        /* \"#utility.yul\":17022:17087   */\n      tag_255\n      jump\t// in\n    tag_450:\n        /* \"#utility.yul\":16957:17093   */\n      pop\n        /* \"#utility.yul\":16904:17093   */\n      pop\n      pop\n      jump\t// out\n        /* \"#utility.yul\":17099:17285   */\n    tag_258:\n        /* \"#utility.yul\":17159:17279   */\n    tag_452:\n        /* \"#utility.yul\":17176:17179   */\n      dup2\n        /* \"#utility.yul\":17169:17174   */\n      dup2\n        /* \"#utility.yul\":17166:17180   */\n      lt\n        /* \"#utility.yul\":17159:17279   */\n      iszero\n      tag_454\n      jumpi\n        /* \"#utility.yul\":17230:17269   */\n      tag_455\n        /* \"#utility.yul\":17267:17268   */\n      0x00\n        /* \"#utility.yul\":17260:17265   */\n      dup3\n        /* \"#utility.yul\":17230:17269   */\n      tag_257\n      jump\t// in\n    tag_455:\n        /* \"#utility.yul\":17203:17204   */\n      0x01\n        /* \"#utility.yul\":17196:17201   */\n      dup2\n        /* \"#utility.yul\":17192:17205   */\n      add\n        /* \"#utility.yul\":17183:17205   */\n      swap1\n      pop\n        /* \"#utility.yul\":17159:17279   */\n      jump(tag_452)\n    tag_454:\n        /* \"#utility.yul\":17099:17285   */\n      pop\n      pop\n      jump\t// out\n        /* \"#utility.yul\":17291:17834   */\n    tag_259:\n        /* \"#utility.yul\":17392:17394   */\n      0x1f\n        /* \"#utility.yul\":17387:17390   */\n      dup3\n        /* \"#utility.yul\":17384:17395   */\n      gt\n        /* \"#utility.yul\":17381:17827   */\n      iszero\n      tag_457\n      jumpi\n        /* \"#utility.yul\":17426:17464   */\n      tag_458\n        /* \"#utility.yul\":17458:17463   */\n      dup2\n        /* \"#utility.yul\":17426:17464   */\n      tag_248\n      jump\t// in\n    tag_458:\n        /* \"#utility.yul\":17510:17539   */\n      tag_459\n        /* \"#utility.yul\":17528:17538   */\n      dup5\n        /* \"#utility.yul\":17510:17539   */\n      tag_249\n      jump\t// in\n    tag_459:\n        /* \"#utility.yul\":17500:17508   */\n      dup2\n        /* \"#utility.yul\":17496:17540   */\n      add\n        /* \"#utility.yul\":17693:17695   */\n      0x20\n        /* \"#utility.yul\":17681:17691   */\n      dup6\n        /* \"#utility.yul\":17678:17696   */\n      lt\n        /* \"#utility.yul\":17675:17724   */\n      iszero\n      tag_460\n      jumpi\n        /* \"#utility.yul\":17714:17722   */\n      dup2\n        /* \"#utility.yul\":17699:17722   */\n      swap1\n      pop\n        /* \"#utility.yul\":17675:17724   */\n    tag_460:\n        /* \"#utility.yul\":17737:17817   */\n      tag_461\n        /* \"#utility.yul\":17793:17815   */\n      tag_462\n        /* \"#utility.yul\":17811:17814   */\n      dup6\n        /* \"#utility.yul\":17793:17815   */\n      tag_249\n      jump\t// in\n    tag_462:\n        /* \"#utility.yul\":17783:17791   */\n      dup4\n        /* \"#utility.yul\":17779:17816   */\n      add\n        /* \"#utility.yul\":17766:17777   */\n      dup3\n        /* \"#utility.yul\":17737:17817   */\n      tag_258\n      jump\t// in\n    tag_461:\n        /* \"#utility.yul\":17396:17827   */\n      pop\n      pop\n        /* \"#utility.yul\":17381:17827   */\n    tag_457:\n        /* \"#utility.yul\":17291:17834   */\n      pop\n      pop\n      pop\n      jump\t// out\n        /* \"#utility.yul\":17840:17957   */\n    tag_260:\n        /* \"#utility.yul\":17894:17902   */\n      0x00\n        /* \"#utility.yul\":17944:17949   */\n      dup3\n        /* \"#utility.yul\":17938:17942   */\n      dup3\n        /* \"#utility.yul\":17934:17950   */\n      shr\n        /* \"#utility.yul\":17913:17950   */\n      swap1\n      pop\n        /* \"#utility.yul\":17840:17957   */\n      swap3\n      swap2\n      pop\n      pop\n      jump\t// out\n        /* \"#utility.yul\":17963:18132   */\n    tag_261:\n        /* \"#utility.yul\":18007:18013   */\n      0x00\n        /* \"#utility.yul\":18040:18091   */\n      tag_465\n        /* \"#utility.yul\":18088:18089   */\n      0x00\n        /* \"#utility.yul\":18084:18090   */\n      not\n        /* \"#utility.yul\":18076:18081   */\n      dup5\n        /* \"#utility.yul\":18073:18074   */\n      0x08\n        /* \"#utility.yul\":18069:18082   */\n      mul\n        /* \"#utility.yul\":18040:18091   */\n      tag_260\n      jump\t// in\n    tag_465:\n        /* \"#utility.yul\":18036:18092   */\n      not\n        /* \"#utility.yul\":18121:18125   */\n      dup1\n        /* \"#utility.yul\":18115:18119   */\n      dup4\n        /* \"#utility.yul\":18111:18126   */\n      and\n        /* \"#utility.yul\":18101:18126   */\n      swap2\n      pop\n        /* \"#utility.yul\":18014:18132   */\n      pop\n        /* \"#utility.yul\":17963:18132   */\n      swap3\n      swap2\n      pop\n      pop\n      jump\t// out\n        /* \"#utility.yul\":18137:18432   */\n    tag_262:\n        /* \"#utility.yul\":18213:18217   */\n      0x00\n        /* \"#utility.yul\":18359:18388   */\n      tag_467\n        /* \"#utility.yul\":18384:18387   */\n      dup4\n        /* \"#utility.yul\":18378:18382   */\n      dup4\n        /* \"#utility.yul\":18359:18388   */\n      tag_261\n      jump\t// in\n    tag_467:\n        /* \"#utility.yul\":18351:18388   */\n      swap2\n      pop\n        /* \"#utility.yul\":18421:18424   */\n      dup3\n        /* \"#utility.yul\":18418:18419   */\n      0x02\n        /* \"#utility.yul\":18414:18425   */\n      mul\n        /* \"#utility.yul\":18408:18412   */\n      dup3\n        /* \"#utility.yul\":18405:18426   */\n      or\n        /* \"#utility.yul\":18397:18426   */\n      swap1\n      pop\n        /* \"#utility.yul\":18137:18432   */\n      swap3\n      swap2\n      pop\n      pop\n      jump\t// out\n        /* \"#utility.yul\":18437:19832   */\n    tag_119:\n        /* \"#utility.yul\":18554:18591   */\n      tag_469\n        /* \"#utility.yul\":18587:18590   */\n      dup3\n        /* \"#utility.yul\":18554:18591   */\n      tag_234\n      jump\t// in\n    tag_469:\n        /* \"#utility.yul\":18656:18674   */\n      0xffffffffffffffff\n        /* \"#utility.yul\":18648:18654   */\n      dup2\n        /* \"#utility.yul\":18645:18675   */\n      gt\n        /* \"#utility.yul\":18642:18698   */\n      iszero\n      tag_470\n      jumpi\n        /* \"#utility.yul\":18678:18696   */\n      tag_471\n      tag_225\n      jump\t// in\n    tag_471:\n        /* \"#utility.yul\":18642:18698   */\n    tag_470:\n        /* \"#utility.yul\":18722:18760   */\n      tag_472\n        /* \"#utility.yul\":18754:18758   */\n      dup3\n        /* \"#utility.yul\":18748:18759   */\n      sload\n        /* \"#utility.yul\":18722:18760   */\n      tag_129\n      jump\t// in\n    tag_472:\n        /* \"#utility.yul\":18807:18874   */\n      tag_473\n        /* \"#utility.yul\":18867:18873   */\n      dup3\n        /* \"#utility.yul\":18859:18865   */\n      dup3\n        /* \"#utility.yul\":18853:18857   */\n      dup6\n        /* \"#utility.yul\":18807:18874   */\n      tag_259\n      jump\t// in\n    tag_473:\n        /* \"#utility.yul\":18901:18902   */\n      0x00\n        /* \"#utility.yul\":18925:18929   */\n      0x20\n        /* \"#utility.yul\":18912:18929   */\n      swap1\n      pop\n        /* \"#utility.yul\":18957:18959   */\n      0x1f\n        /* \"#utility.yul\":18949:18955   */\n      dup4\n        /* \"#utility.yul\":18946:18960   */\n      gt\n        /* \"#utility.yul\":18974:18975   */\n      0x01\n        /* \"#utility.yul\":18969:19587   */\n      dup2\n      eq\n      tag_475\n      jumpi\n        /* \"#utility.yul\":19631:19632   */\n      0x00\n        /* \"#utility.yul\":19648:19654   */\n      dup5\n        /* \"#utility.yul\":19645:19722   */\n      iszero\n      tag_476\n      jumpi\n        /* \"#utility.yul\":19697:19706   */\n      dup3\n        /* \"#utility.yul\":19692:19695   */\n      dup8\n        /* \"#utility.yul\":19688:19707   */\n      add\n        /* \"#utility.yul\":19682:19708   */\n      mload\n        /* \"#utility.yul\":19673:19708   */\n      swap1\n      pop\n        /* \"#utility.yul\":19645:19722   */\n    tag_476:\n        /* \"#utility.yul\":19748:19815   */\n      tag_477\n        /* \"#utility.yul\":19808:19814   */\n      dup6\n        /* \"#utility.yul\":19801:19806   */\n      dup3\n        /* \"#utility.yul\":19748:19815   */\n      tag_262\n      jump\t// in\n    tag_477:\n        /* \"#utility.yul\":19742:19746   */\n      dup7\n        /* \"#utility.yul\":19735:19816   */\n      sstore\n        /* \"#utility.yul\":19604:19826   */\n      pop\n        /* \"#utility.yul\":18939:19826   */\n      jump(tag_474)\n        /* \"#utility.yul\":18969:19587   */\n    tag_475:\n        /* \"#utility.yul\":19021:19025   */\n      0x1f\n        /* \"#utility.yul\":19017:19026   */\n      not\n        /* \"#utility.yul\":19009:19015   */\n      dup5\n        /* \"#utility.yul\":19005:19027   */\n      and\n        /* \"#utility.yul\":19055:19092   */\n      tag_478\n        /* \"#utility.yul\":19087:19091   */\n      dup7\n        /* \"#utility.yul\":19055:19092   */\n      tag_248\n      jump\t// in\n    tag_478:\n        /* \"#utility.yul\":19114:19115   */\n      0x00\n        /* \"#utility.yul\":19128:19336   */\n    tag_479:\n        /* \"#utility.yul\":19142:19149   */\n      dup3\n        /* \"#utility.yul\":19139:19140   */\n      dup2\n        /* \"#utility.yul\":19136:19150   */\n      lt\n        /* \"#utility.yul\":19128:19336   */\n      iszero\n      tag_481\n      jumpi\n        /* \"#utility.yul\":19221:19230   */\n      dup5\n        /* \"#utility.yul\":19216:19219   */\n      dup10\n        /* \"#utility.yul\":19212:19231   */\n      add\n        /* \"#utility.yul\":19206:19232   */\n      mload\n        /* \"#utility.yul\":19198:19204   */\n      dup3\n        /* \"#utility.yul\":19191:19233   */\n      sstore\n        /* \"#utility.yul\":19272:19273   */\n      0x01\n        /* \"#utility.yul\":19264:19270   */\n      dup3\n        /* \"#utility.yul\":19260:19274   */\n      add\n        /* \"#utility.yul\":19250:19274   */\n      swap2\n      pop\n        /* \"#utility.yul\":19319:19321   */\n      0x20\n        /* \"#utility.yul\":19308:19317   */\n      dup6\n        /* \"#utility.yul\":19304:19322   */\n      add\n        /* \"#utility.yul\":19291:19322   */\n      swap5\n      pop\n        /* \"#utility.yul\":19165:19169   */\n      0x20\n        /* \"#utility.yul\":19162:19163   */\n      dup2\n        /* \"#utility.yul\":19158:19170   */\n      add\n        /* \"#utility.yul\":19153:19170   */\n      swap1\n      pop\n        /* \"#utility.yul\":19128:19336   */\n      jump(tag_479)\n    tag_481:\n        /* \"#utility.yul\":19364:19370   */\n      dup7\n        /* \"#utility.yul\":19355:19362   */\n      dup4\n        /* \"#utility.yul\":19352:19371   */\n      lt\n        /* \"#utility.yul\":19349:19528   */\n      iszero\n      tag_482\n      jumpi\n        /* \"#utility.yul\":19422:19431   */\n      dup5\n        /* \"#utility.yul\":19417:19420   */\n      dup10\n        /* \"#utility.yul\":19413:19432   */\n      add\n        /* \"#utility.yul\":19407:19433   */\n      mload\n        /* \"#utility.yul\":19465:19513   */\n      tag_483\n        /* \"#utility.yul\":19507:19511   */\n      0x1f\n        /* \"#utility.yul\":19499:19505   */\n      dup10\n        /* \"#utility.yul\":19495:19512   */\n      and\n        /* \"#utility.yul\":19484:19493   */\n      dup3\n        /* \"#utility.yul\":19465:19513   */\n      tag_261\n      jump\t// in\n    tag_483:\n        /* \"#utility.yul\":19457:19463   */\n      dup4\n        /* \"#utility.yul\":19450:19514   */\n      sstore\n        /* \"#utility.yul\":19372:19528   */\n      pop\n        /* \"#utility.yul\":19349:19528   */\n    tag_482:\n        /* \"#utility.yul\":19574:19575   */\n      0x01\n        /* \"#utility.yul\":19570:19571   */\n      0x02\n        /* \"#utility.yul\":19562:19568   */\n      dup9\n        /* \"#utility.yul\":19558:19572   */\n      mul\n        /* \"#utility.yul\":19554:19576   */\n      add\n        /* \"#utility.yul\":19548:19552   */\n      dup9\n        /* \"#utility.yul\":19541:19577   */\n      sstore\n        /* \"#utility.yul\":18976:19587   */\n      pop\n      pop\n      pop\n        /* \"#utility.yul\":18939:19826   */\n    tag_474:\n      pop\n        /* \"#utility.yul\":18529:19832   */\n      pop\n      pop\n      pop\n        /* \"#utility.yul\":18437:19832   */\n      pop\n      pop\n      jump\t// out\n        /* \"#utility.yul\":19838:19987   */\n    tag_263:\n        /* \"#utility.yul\":19887:19893   */\n      0x00\n        /* \"#utility.yul\":19921:19926   */\n      dup2\n        /* \"#utility.yul\":19915:19927   */\n      sload\n        /* \"#utility.yul\":19905:19927   */\n      swap1\n      pop\n        /* \"#utility.yul\":19947:19980   */\n      tag_485\n        /* \"#utility.yul\":19973:19979   */\n      dup2\n        /* \"#utility.yul\":19947:19980   */\n      tag_129\n      jump\t// in\n    tag_485:\n        /* \"#utility.yul\":19937:19980   */\n      swap1\n      pop\n        /* \"#utility.yul\":19838:19987   */\n      swap2\n      swap1\n      pop\n      jump\t// out\n        /* \"#utility.yul\":19993:21444   */\n    tag_122:\n        /* \"#utility.yul\":20104:20107   */\n      dup2\n        /* \"#utility.yul\":20098:20102   */\n      dup2\n        /* \"#utility.yul\":20095:20108   */\n      sub\n        /* \"#utility.yul\":20092:20118   */\n      tag_487\n      jumpi\n        /* \"#utility.yul\":20111:20116   */\n      pop\n      pop\n      jump(tag_486)\n        /* \"#utility.yul\":20092:20118   */\n    tag_487:\n        /* \"#utility.yul\":20142:20176   */\n      tag_488\n        /* \"#utility.yul\":20172:20175   */\n      dup3\n        /* \"#utility.yul\":20142:20176   */\n      tag_263\n      jump\t// in\n    tag_488:\n        /* \"#utility.yul\":20241:20259   */\n      0xffffffffffffffff\n        /* \"#utility.yul\":20233:20239   */\n      dup2\n        /* \"#utility.yul\":20230:20260   */\n      gt\n        /* \"#utility.yul\":20227:20283   */\n      iszero\n      tag_489\n      jumpi\n        /* \"#utility.yul\":20263:20281   */\n      tag_490\n      tag_225\n      jump\t// in\n    tag_490:\n        /* \"#utility.yul\":20227:20283   */\n    tag_489:\n        /* \"#utility.yul\":20307:20345   */\n      tag_491\n        /* \"#utility.yul\":20339:20343   */\n      dup3\n        /* \"#utility.yul\":20333:20344   */\n      sload\n        /* \"#utility.yul\":20307:20345   */\n      tag_129\n      jump\t// in\n    tag_491:\n        /* \"#utility.yul\":20392:20459   */\n      tag_492\n        /* \"#utility.yul\":20452:20458   */\n      dup3\n        /* \"#utility.yul\":20444:20450   */\n      dup3\n        /* \"#utility.yul\":20438:20442   */\n      dup6\n        /* \"#utility.yul\":20392:20459   */\n      tag_259\n      jump\t// in\n    tag_492:\n        /* \"#utility.yul\":20486:20487   */\n      0x00\n        /* \"#utility.yul\":20515:20517   */\n      0x1f\n        /* \"#utility.yul\":20507:20513   */\n      dup4\n        /* \"#utility.yul\":20504:20518   */\n      gt\n        /* \"#utility.yul\":20532:20533   */\n      0x01\n        /* \"#utility.yul\":20527:21199   */\n      dup2\n      eq\n      tag_494\n      jumpi\n        /* \"#utility.yul\":21243:21244   */\n      0x00\n        /* \"#utility.yul\":21260:21266   */\n      dup5\n        /* \"#utility.yul\":21257:21334   */\n      iszero\n      tag_495\n      jumpi\n        /* \"#utility.yul\":21309:21318   */\n      dup3\n        /* \"#utility.yul\":21304:21307   */\n      dup8\n        /* \"#utility.yul\":21300:21319   */\n      add\n        /* \"#utility.yul\":21294:21320   */\n      sload\n        /* \"#utility.yul\":21285:21320   */\n      swap1\n      pop\n        /* \"#utility.yul\":21257:21334   */\n    tag_495:\n        /* \"#utility.yul\":21360:21427   */\n      tag_496\n        /* \"#utility.yul\":21420:21426   */\n      dup6\n        /* \"#utility.yul\":21413:21418   */\n      dup3\n        /* \"#utility.yul\":21360:21427   */\n      tag_262\n      jump\t// in\n    tag_496:\n        /* \"#utility.yul\":21354:21358   */\n      dup7\n        /* \"#utility.yul\":21347:21428   */\n      sstore\n        /* \"#utility.yul\":21216:21438   */\n      pop\n        /* \"#utility.yul\":20497:21438   */\n      jump(tag_493)\n        /* \"#utility.yul\":20527:21199   */\n    tag_494:\n        /* \"#utility.yul\":20579:20583   */\n      0x1f\n        /* \"#utility.yul\":20575:20584   */\n      not\n        /* \"#utility.yul\":20567:20573   */\n      dup5\n        /* \"#utility.yul\":20563:20585   */\n      and\n        /* \"#utility.yul\":20605:20641   */\n      tag_497\n        /* \"#utility.yul\":20637:20640   */\n      dup8\n        /* \"#utility.yul\":20605:20641   */\n      tag_248\n      jump\t// in\n    tag_497:\n        /* \"#utility.yul\":20598:20641   */\n      swap7\n      pop\n        /* \"#utility.yul\":20668:20705   */\n      tag_498\n        /* \"#utility.yul\":20700:20704   */\n      dup7\n        /* \"#utility.yul\":20668:20705   */\n      tag_248\n      jump\t// in\n    tag_498:\n        /* \"#utility.yul\":20727:20728   */\n      0x00\n        /* \"#utility.yul\":20741:20948   */\n    tag_499:\n        /* \"#utility.yul\":20755:20762   */\n      dup3\n        /* \"#utility.yul\":20752:20753   */\n      dup2\n        /* \"#utility.yul\":20749:20763   */\n      lt\n        /* \"#utility.yul\":20741:20948   */\n      iszero\n      tag_501\n      jumpi\n        /* \"#utility.yul\":20834:20843   */\n      dup5\n        /* \"#utility.yul\":20829:20832   */\n      dup10\n        /* \"#utility.yul\":20825:20844   */\n      add\n        /* \"#utility.yul\":20819:20845   */\n      sload\n        /* \"#utility.yul\":20811:20817   */\n      dup3\n        /* \"#utility.yul\":20804:20846   */\n      sstore\n        /* \"#utility.yul\":20885:20886   */\n      0x01\n        /* \"#utility.yul\":20877:20883   */\n      dup3\n        /* \"#utility.yul\":20873:20887   */\n      add\n        /* \"#utility.yul\":20863:20887   */\n      swap2\n      pop\n        /* \"#utility.yul\":20932:20933   */\n      0x01\n        /* \"#utility.yul\":20921:20930   */\n      dup6\n        /* \"#utility.yul\":20917:20934   */\n      add\n        /* \"#utility.yul\":20904:20934   */\n      swap5\n      pop\n        /* \"#utility.yul\":20778:20782   */\n      0x20\n        /* \"#utility.yul\":20775:20776   */\n      dup2\n        /* \"#utility.yul\":20771:20783   */\n      add\n        /* \"#utility.yul\":20766:20783   */\n      swap1\n      pop\n        /* \"#utility.yul\":20741:20948   */\n      jump(tag_499)\n    tag_501:\n        /* \"#utility.yul\":20976:20982   */\n      dup7\n        /* \"#utility.yul\":20967:20974   */\n      dup4\n        /* \"#utility.yul\":20964:20983   */\n      lt\n        /* \"#utility.yul\":20961:21140   */\n      iszero\n      tag_502\n      jumpi\n        /* \"#utility.yul\":21034:21043   */\n      dup5\n        /* \"#utility.yul\":21029:21032   */\n      dup10\n        /* \"#utility.yul\":21025:21044   */\n      add\n        /* \"#utility.yul\":21019:21045   */\n      sload\n        /* \"#utility.yul\":21077:21125   */\n      tag_503\n        /* \"#utility.yul\":21119:21123   */\n      0x1f\n        /* \"#utility.yul\":21111:21117   */\n      dup10\n        /* \"#utility.yul\":21107:21124   */\n      and\n        /* \"#utility.yul\":21096:21105   */\n      dup3\n        /* \"#utility.yul\":21077:21125   */\n      tag_261\n      jump\t// in\n    tag_503:\n        /* \"#utility.yul\":21069:21075   */\n      dup4\n        /* \"#utility.yul\":21062:21126   */\n      sstore\n        /* \"#utility.yul\":20984:21140   */\n      pop\n        /* \"#utility.yul\":20961:21140   */\n    tag_502:\n        /* \"#utility.yul\":21186:21187   */\n      0x01\n        /* \"#utility.yul\":21182:21183   */\n      0x02\n        /* \"#utility.yul\":21174:21180   */\n      dup9\n        /* \"#utility.yul\":21170:21184   */\n      mul\n        /* \"#utility.yul\":21166:21188   */\n      add\n        /* \"#utility.yul\":21160:21164   */\n      dup9\n        /* \"#utility.yul\":21153:21189   */\n      sstore\n        /* \"#utility.yul\":20534:21199   */\n      pop\n      pop\n      pop\n        /* \"#utility.yul\":20497:21438   */\n    tag_493:\n      pop\n        /* \"#utility.yul\":20082:21444   */\n      pop\n      pop\n      pop\n        /* \"#utility.yul\":19993:21444   */\n      pop\n      pop\n    tag_486:\n      jump\t// out\n        /* \"#utility.yul\":21450:21873   */\n    tag_125:\n        /* \"#utility.yul\":21591:21595   */\n      0x00\n        /* \"#utility.yul\":21629:21631   */\n      0x40\n        /* \"#utility.yul\":21618:21627   */\n      dup3\n        /* \"#utility.yul\":21614:21632   */\n      add\n        /* \"#utility.yul\":21606:21632   */\n      swap1\n      pop\n        /* \"#utility.yul\":21642:21713   */\n      tag_505\n        /* \"#utility.yul\":21710:21711   */\n      0x00\n        /* \"#utility.yul\":21699:21708   */\n      dup4\n        /* \"#utility.yul\":21695:21712   */\n      add\n        /* \"#utility.yul\":21686:21692   */\n      dup6\n        /* \"#utility.yul\":21642:21713   */\n      tag_238\n      jump\t// in\n    tag_505:\n        /* \"#utility.yul\":21760:21769   */\n      dup2\n        /* \"#utility.yul\":21754:21758   */\n      dup2\n        /* \"#utility.yul\":21750:21770   */\n      sub\n        /* \"#utility.yul\":21745:21747   */\n      0x20\n        /* \"#utility.yul\":21734:21743   */\n      dup4\n        /* \"#utility.yul\":21730:21748   */\n      add\n        /* \"#utility.yul\":21723:21771   */\n      mstore\n        /* \"#utility.yul\":21788:21866   */\n      tag_506\n        /* \"#utility.yul\":21861:21865   */\n      dup2\n        /* \"#utility.yul\":21852:21858   */\n      dup5\n        /* \"#utility.yul\":21788:21866   */\n      tag_237\n      jump\t// in\n    tag_506:\n        /* \"#utility.yul\":21780:21866   */\n      swap1\n      pop\n        /* \"#utility.yul\":21450:21873   */\n      swap4\n      swap3\n      pop\n      pop\n      pop\n      jump\t// out\n        /* \"#utility.yul\":21879:21993   */\n    tag_264:\n      pop\n      jump\t// out\n        /* \"#utility.yul\":21999:22363   */\n    tag_265:\n        /* \"#utility.yul\":22141:22144   */\n      0x00\n        /* \"#utility.yul\":22162:22228   */\n      tag_509\n        /* \"#utility.yul\":22226:22227   */\n      0x00\n        /* \"#utility.yul\":22221:22224   */\n      dup4\n        /* \"#utility.yul\":22162:22228   */\n      tag_235\n      jump\t// in\n    tag_509:\n        /* \"#utility.yul\":22155:22228   */\n      swap2\n      pop\n        /* \"#utility.yul\":22237:22330   */\n      tag_510\n        /* \"#utility.yul\":22326:22329   */\n      dup3\n        /* \"#utility.yul\":22237:22330   */\n      tag_264\n      jump\t// in\n    tag_510:\n        /* \"#utility.yul\":22355:22356   */\n      0x00\n        /* \"#utility.yul\":22350:22353   */\n      dup3\n        /* \"#utility.yul\":22346:22357   */\n      add\n        /* \"#utility.yul\":22339:22357   */\n      swap1\n      pop\n        /* \"#utility.yul\":21999:22363   */\n      swap2\n      swap1\n      pop\n      jump\t// out\n        /* \"#utility.yul\":22369:22898   */\n    tag_157:\n        /* \"#utility.yul\":22563:22567   */\n      0x00\n        /* \"#utility.yul\":22601:22603   */\n      0x40\n        /* \"#utility.yul\":22590:22599   */\n      dup3\n        /* \"#utility.yul\":22586:22604   */\n      add\n        /* \"#utility.yul\":22578:22604   */\n      swap1\n      pop\n        /* \"#utility.yul\":22614:22685   */\n      tag_512\n        /* \"#utility.yul\":22682:22683   */\n      0x00\n        /* \"#utility.yul\":22671:22680   */\n      dup4\n        /* \"#utility.yul\":22667:22684   */\n      add\n        /* \"#utility.yul\":22658:22664   */\n      dup5\n        /* \"#utility.yul\":22614:22685   */\n      tag_238\n      jump\t// in\n    tag_512:\n        /* \"#utility.yul\":22732:22741   */\n      dup2\n        /* \"#utility.yul\":22726:22730   */\n      dup2\n        /* \"#utility.yul\":22722:22742   */\n      sub\n        /* \"#utility.yul\":22717:22719   */\n      0x20\n        /* \"#utility.yul\":22706:22715   */\n      dup4\n        /* \"#utility.yul\":22702:22720   */\n      add\n        /* \"#utility.yul\":22695:22743   */\n      mstore\n        /* \"#utility.yul\":22760:22891   */\n      tag_513\n        /* \"#utility.yul\":22886:22890   */\n      dup2\n        /* \"#utility.yul\":22760:22891   */\n      tag_265\n      jump\t// in\n    tag_513:\n        /* \"#utility.yul\":22752:22891   */\n      swap1\n      pop\n        /* \"#utility.yul\":22369:22898   */\n      swap3\n      swap2\n      pop\n      pop\n      jump\t// out\n        /* \"#utility.yul\":22904:23073   */\n    tag_266:\n        /* \"#utility.yul\":23044:23065   */\n      0x496e646578206f7574206f6620626f756e647300000000000000000000000000\n        /* \"#utility.yul\":23040:23041   */\n      0x00\n        /* \"#utility.yul\":23032:23038   */\n      dup3\n        /* \"#utility.yul\":23028:23042   */\n      add\n        /* \"#utility.yul\":23021:23066   */\n      mstore\n        /* \"#utility.yul\":22904:23073   */\n      pop\n      jump\t// out\n        /* \"#utility.yul\":23079:23445   */\n    tag_267:\n        /* \"#utility.yul\":23221:23224   */\n      0x00\n        /* \"#utility.yul\":23242:23309   */\n      tag_516\n        /* \"#utility.yul\":23306:23308   */\n      0x13\n        /* \"#utility.yul\":23301:23304   */\n      dup4\n        /* \"#utility.yul\":23242:23309   */\n      tag_235\n      jump\t// in\n    tag_516:\n        /* \"#utility.yul\":23235:23309   */\n      swap2\n      pop\n        /* \"#utility.yul\":23318:23411   */\n      tag_517\n        /* \"#utility.yul\":23407:23410   */\n      dup3\n        /* \"#utility.yul\":23318:23411   */\n      tag_266\n      jump\t// in\n    tag_517:\n        /* \"#utility.yul\":23436:23438   */\n      0x20\n        /* \"#utility.yul\":23431:23434   */\n      dup3\n        /* \"#utility.yul\":23427:23439   */\n      add\n        /* \"#utility.yul\":23420:23439   */\n      swap1\n      pop\n        /* \"#utility.yul\":23079:23445   */\n      swap2\n      swap1\n      pop\n      jump\t// out\n        /* \"#utility.yul\":23451:23870   */\n    tag_182:\n        /* \"#utility.yul\":23617:23621   */\n      0x00\n        /* \"#utility.yul\":23655:23657   */\n      0x20\n        /* \"#utility.yul\":23644:23653   */\n      dup3\n        /* \"#utility.yul\":23640:23658   */\n      add\n        /* \"#utility.yul\":23632:23658   */\n      swap1\n      pop\n        /* \"#utility.yul\":23704:23713   */\n      dup2\n        /* \"#utility.yul\":23698:23702   */\n      dup2\n        /* \"#utility.yul\":23694:23714   */\n      sub\n        /* \"#utility.yul\":23690:23691   */\n      0x00\n        /* \"#utility.yul\":23679:23688   */\n      dup4\n        /* \"#utility.yul\":23675:23692   */\n      add\n        /* \"#utility.yul\":23668:23715   */\n      mstore\n        /* \"#utility.yul\":23732:23863   */\n      tag_519\n        /* \"#utility.yul\":23858:23862   */\n      dup2\n        /* \"#utility.yul\":23732:23863   */\n      tag_267\n      jump\t// in\n    tag_519:\n        /* \"#utility.yul\":23724:23863   */\n      swap1\n      pop\n        /* \"#utility.yul\":23451:23870   */\n      swap2\n      swap1\n      pop\n      jump\t// out\n        /* \"#utility.yul\":23876:24056   */\n    tag_185:\n        /* \"#utility.yul\":23924:24001   */\n      0x4e487b7100000000000000000000000000000000000000000000000000000000\n        /* \"#utility.yul\":23921:23922   */\n      0x00\n        /* \"#utility.yul\":23914:24002   */\n      mstore\n        /* \"#utility.yul\":24021:24025   */\n      0x32\n        /* \"#utility.yul\":24018:24019   */\n      0x04\n        /* \"#utility.yul\":24011:24026   */\n      mstore\n        /* \"#utility.yul\":24045:24049   */\n      0x24\n        /* \"#utility.yul\":24042:24043   */\n      0x00\n        /* \"#utility.yul\":24035:24050   */\n      revert\n\n    auxdata: 0xa264697066735822122073e9876636adab49bbb4cb85ccb86c44471354fa1202ea3fd7032dbb4d2bd12264736f6c63430008150033\n}\n",
				"bytecode": {
					"linkReferences": {},
					"object": "60806040526040518060400160405280600a81526020017f4c6561726e546f6b656e000000000000000000000000000000000000000000008152505f908162000049919062000469565b506040518060400160405280600281526020017f4c520000000000000000000000000000000000000000000000000000000000008152506001908162000090919062000469565b50601260025f6101000a81548160ff021916908360ff160217905550348015620000b8575f80fd5b5060405162002f8238038062002f828339818101604052810190620000de919062000580565b60025f9054906101000a900460ff1660ff16600a620000fe91906200072d565b816200010b91906200077d565b600381905550600354600c5f3373ffffffffffffffffffffffffffffffffffffffff1673ffffffffffffffffffffffffffffffffffffffff1681526020019081526020015f20819055503373ffffffffffffffffffffffffffffffffffffffff163373ffffffffffffffffffffffffffffffffffffffff167fcd6e659e4c2e75c3bfe47fecaccf39aeb368116a0ee52afb532e07f6cba6c0d1600354604051620001b6919062000836565b60405180910390a33360045f6101000a81548173ffffffffffffffffffffffffffffffffffffffff021916908373ffffffffffffffffffffffffffffffffffffffff1602179055505062000866565b5f81519050919050565b7f4e487b71000000000000000000000000000000000000000000000000000000005f52604160045260245ffd5b7f4e487b71000000000000000000000000000000000000000000000000000000005f52602260045260245ffd5b5f60028204905060018216806200028157607f821691505b6020821081036200029757620002966200023c565b5b50919050565b5f819050815f5260205f209050919050565b5f6020601f8301049050919050565b5f82821b905092915050565b5f60088302620002fb7fffffffffffffffffffffffffffffffffffffffffffffffffffffffffffffffff82620002be565b620003078683620002be565b95508019841693508086168417925050509392505050565b5f819050919050565b5f819050919050565b5f620003516200034b62000345846200031f565b62000328565b6200031f565b9050919050565b5f819050919050565b6200036c8362000331565b620003846200037b8262000358565b848454620002ca565b825550505050565b5f90565b6200039a6200038c565b620003a781848462000361565b505050565b5b81811015620003ce57620003c25f8262000390565b600181019050620003ad565b5050565b601f8211156200041d57620003e7816200029d565b620003f284620002af565b8101602085101562000402578190505b6200041a6200041185620002af565b830182620003ac565b50505b505050565b5f82821c905092915050565b5f6200043f5f198460080262000422565b1980831691505092915050565b5f6200045983836200042e565b9150826002028217905092915050565b620004748262000205565b67ffffffffffffffff81111562000490576200048f6200020f565b5b6200049c825462000269565b620004a9828285620003d2565b5f60209050601f831160018114620004df575f8415620004ca578287015190505b620004d685826200044c565b86555062000545565b601f198416620004ef866200029d565b5f5b828110156200051857848901518255600182019150602085019450602081019050620004f1565b8683101562000538578489015162000534601f8916826200042e565b8355505b6001600288020188555050505b505050505050565b5f80fd5b6200055c816200031f565b811462000567575f80fd5b50565b5f815190506200057a8162000551565b92915050565b5f602082840312156200059857620005976200054d565b5b5f620005a7848285016200056a565b91505092915050565b7f4e487b71000000000000000000000000000000000000000000000000000000005f52601160045260245ffd5b5f8160011c9050919050565b5f808291508390505b60018511156200063a57808604811115620006125762000611620005b0565b5b6001851615620006225780820291505b80810290506200063285620005dd565b9450620005f2565b94509492505050565b5f8262000654576001905062000726565b8162000663575f905062000726565b81600181146200067c57600281146200068757620006bd565b600191505062000726565b60ff8411156200069c576200069b620005b0565b5b8360020a915084821115620006b657620006b5620005b0565b5b5062000726565b5060208310610133831016604e8410600b8410161715620006f75782820a905083811115620006f157620006f0620005b0565b5b62000726565b620007068484846001620005e9565b9250905081840481111562000720576200071f620005b0565b5b81810290505b9392505050565b5f62000739826200031f565b915062000746836200031f565b9250620007757fffffffffffffffffffffffffffffffffffffffffffffffffffffffffffffffff848462000643565b905092915050565b5f62000789826200031f565b915062000796836200031f565b9250828202620007a6816200031f565b91508282048414831517620007c057620007bf620005b0565b5b5092915050565b620007d2816200031f565b82525050565b5f82825260208201905092915050565b7f496e697469616c20737570706c790000000000000000000000000000000000005f82015250565b5f6200081e600e83620007d8565b91506200082b82620007e8565b602082019050919050565b5f6040820190506200084b5f830184620007c7565b81810360208301526200085e8162000810565b905092915050565b61270e80620008745f395ff3fe608060405234801561000f575f80fd5b506004361061011f575f3560e01c806357f8a100116100ab5780638da5cb5b1161006f5780638da5cb5b1461035057806395d89b411461036e578063a9059cbb1461038c578063d0d28fc2146103bc578063dd62ed3e146103de5761011f565b806357f8a100146102775780635c52265b1461029a57806370a08231146102b857806371aa85f6146102e8578063816c99de1461031c5761011f565b806318160ddd116100f257806318160ddd146101d157806323b872dd146101ef578063313ce5671461021f578063469c81101461023d578063526bf76e146102595761011f565b806303dd05a71461012357806306fdde03146101535780630818f44b14610171578063095ea7b3146101a1575b5f80fd5b61013d60048036038101906101389190611c35565b61040e565b60405161014a9190611ccf565b60405180910390f35b61015b6109df565b6040516101689190611d62565b60405180910390f35b61018b60048036038101906101869190611d82565b610a6a565b6040516101989190611ccf565b60405180910390f35b6101bb60048036038101906101b69190611dee565b610ef1565b6040516101c89190611ccf565b60405180910390f35b6101d9610fde565b6040516101e69190611e3b565b60405180910390f35b61020960048036038101906102049190611e54565b610fe4565b6040516102169190611ccf565b60405180910390f35b6102276112c4565b6040516102349190611ebf565b60405180910390f35b61025760048036038101906102529190611ed8565b6112d6565b005b610261611337565b60405161026e9190611d62565b60405180910390f35b61027f6113c7565b60405161029196959493929190611f2e565b60405180910390f35b6102a2611553565b6040516102af9190611e3b565b60405180910390f35b6102d260048036038101906102cd9190611f9b565b61155f565b6040516102df9190611e3b565b60405180910390f35b61030260048036038101906102fd9190611fc6565b611574565b604051610313959493929190611ff1565b60405180910390f35b61033660048036038101906103319190611fc6565b611768565b604051610347959493929190611ff1565b60405180910390f35b61035861186d565b6040516103659190612049565b60405180910390f35b610376611892565b6040516103839190611d62565b60405180910390f35b6103a660048036038101906103a19190611dee565b61191e565b6040516103b39190611ccf565b60405180910390f35b6103c4611940565b6040516103d5959493929190611ff1565b60405180910390f35b6103f860048036038101906103f39190612062565b611a3b565b6040516104059190611e3b565b60405180910390f35b5f82600c5f8773ffffffffffffffffffffffffffffffffffffffff1673ffffffffffffffffffffffffffffffffffffffff1681526020019081526020015f2054101561048f576040517f08c379a0000000000000000000000000000000000000000000000000000000008152600401610486906120ea565b60405180910390fd5b82600d5f8773ffffffffffffffffffffffffffffffffffffffff1673ffffffffffffffffffffffffffffffffffffffff1681526020019081526020015f205f3373ffffffffffffffffffffffffffffffffffffffff1673ffffffffffffffffffffffffffffffffffffffff1681526020019081526020015f2054101561054a576040517f08c379a000000000000000000000000000000000000000000000000000000000815260040161054190612152565b60405180910390fd5b82600c5f8773ffffffffffffffffffffffffffffffffffffffff1673ffffffffffffffffffffffffffffffffffffffff1681526020019081526020015f205f828254610596919061219d565b9250508190555082600c5f8673ffffffffffffffffffffffffffffffffffffffff1673ffffffffffffffffffffffffffffffffffffffff1681526020019081526020015f205f8282546105e991906121d0565b9250508190555082600d5f8773ffffffffffffffffffffffffffffffffffffffff1673ffffffffffffffffffffffffffffffffffffffff1681526020019081526020015f205f3373ffffffffffffffffffffffffffffffffffffffff1673ffffffffffffffffffffffffffffffffffffffff1681526020019081526020015f205f828254610677919061219d565b925050819055506040518060a001604052808673ffffffffffffffffffffffffffffffffffffffff1681526020018573ffffffffffffffffffffffffffffffffffffffff1681526020018481526020018381526020014281525060065f820151815f015f6101000a81548173ffffffffffffffffffffffffffffffffffffffff021916908373ffffffffffffffffffffffffffffffffffffffff1602179055506020820151816001015f6101000a81548173ffffffffffffffffffffffffffffffffffffffff021916908373ffffffffffffffffffffffffffffffffffffffff16021790555060408201518160020155606082015181600301908161077c91906123fd565b5060808201518160040155905050600b6006908060018154018082558091505060019003905f5260205f2090600502015f909190919091505f82015f9054906101000a900473ffffffffffffffffffffffffffffffffffffffff16815f015f6101000a81548173ffffffffffffffffffffffffffffffffffffffff021916908373ffffffffffffffffffffffffffffffffffffffff160217905550600182015f9054906101000a900473ffffffffffffffffffffffffffffffffffffffff16816001015f6101000a81548173ffffffffffffffffffffffffffffffffffffffff021916908373ffffffffffffffffffffffffffffffffffffffff160217905550600282015481600201556003820181600301908161089a91906124e1565b5060048201548160040155505081600590816108b691906123fd565b508373ffffffffffffffffffffffffffffffffffffffff168573ffffffffffffffffffffffffffffffffffffffff167fcd6e659e4c2e75c3bfe47fecaccf39aeb368116a0ee52afb532e07f6cba6c0d185856040516109169291906125c6565b60405180910390a38373ffffffffffffffffffffffffffffffffffffffff168573ffffffffffffffffffffffffffffffffffffffff167fe4dedac3a07f2356c44fc19d9395db74f56297c32531d64263ff541abb8ef461858560405161097d9291906125c6565b60405180910390a33373ffffffffffffffffffffffffffffffffffffffff167f0d7fccda06d6eb51c23cbd16d49b9b3f3ebafb002dba1b074895cbb35d0e8130836040516109cb9190611d62565b60405180910390a260019050949350505050565b5f80546109eb90612230565b80601f0160208091040260200160405190810160405280929190818152602001828054610a1790612230565b8015610a625780601f10610a3957610100808354040283529160200191610a62565b820191905f5260205f20905b815481529060010190602001808311610a4557829003601f168201915b505050505081565b5f82600c5f3373ffffffffffffffffffffffffffffffffffffffff1673ffffffffffffffffffffffffffffffffffffffff1681526020019081526020015f20541015610aeb576040517f08c379a0000000000000000000000000000000000000000000000000000000008152600401610ae2906120ea565b60405180910390fd5b82600c5f3373ffffffffffffffffffffffffffffffffffffffff1673ffffffffffffffffffffffffffffffffffffffff1681526020019081526020015f205f828254610b37919061219d565b9250508190555082600c5f8673ffffffffffffffffffffffffffffffffffffffff1673ffffffffffffffffffffffffffffffffffffffff1681526020019081526020015f205f828254610b8a91906121d0565b925050819055506040518060a001604052803373ffffffffffffffffffffffffffffffffffffffff1681526020018573ffffffffffffffffffffffffffffffffffffffff1681526020018481526020018381526020014281525060065f820151815f015f6101000a81548173ffffffffffffffffffffffffffffffffffffffff021916908373ffffffffffffffffffffffffffffffffffffffff1602179055506020820151816001015f6101000a81548173ffffffffffffffffffffffffffffffffffffffff021916908373ffffffffffffffffffffffffffffffffffffffff160217905550604082015181600201556060820151816003019081610c8f91906123fd565b5060808201518160040155905050600b6006908060018154018082558091505060019003905f5260205f2090600502015f909190919091505f82015f9054906101000a900473ffffffffffffffffffffffffffffffffffffffff16815f015f6101000a81548173ffffffffffffffffffffffffffffffffffffffff021916908373ffffffffffffffffffffffffffffffffffffffff160217905550600182015f9054906101000a900473ffffffffffffffffffffffffffffffffffffffff16816001015f6101000a81548173ffffffffffffffffffffffffffffffffffffffff021916908373ffffffffffffffffffffffffffffffffffffffff1602179055506002820154816002015560038201816003019081610dad91906124e1565b506004820154816004015550508160059081610dc991906123fd565b508373ffffffffffffffffffffffffffffffffffffffff163373ffffffffffffffffffffffffffffffffffffffff167fcd6e659e4c2e75c3bfe47fecaccf39aeb368116a0ee52afb532e07f6cba6c0d18585604051610e299291906125c6565b60405180910390a38373ffffffffffffffffffffffffffffffffffffffff163373ffffffffffffffffffffffffffffffffffffffff167fe4dedac3a07f2356c44fc19d9395db74f56297c32531d64263ff541abb8ef4618585604051610e909291906125c6565b60405180910390a33373ffffffffffffffffffffffffffffffffffffffff167f0d7fccda06d6eb51c23cbd16d49b9b3f3ebafb002dba1b074895cbb35d0e813083604051610ede9190611d62565b60405180910390a2600190509392505050565b5f81600d5f3373ffffffffffffffffffffffffffffffffffffffff1673ffffffffffffffffffffffffffffffffffffffff1681526020019081526020015f205f8573ffffffffffffffffffffffffffffffffffffffff1673ffffffffffffffffffffffffffffffffffffffff1681526020019081526020015f20819055508273ffffffffffffffffffffffffffffffffffffffff163373ffffffffffffffffffffffffffffffffffffffff167f8c5be1e5ebec7d5bd14f71427d1e84f3dd0314c0f7b2291e5b200ac8c7c3b92584604051610fcc9190611e3b565b60405180910390a36001905092915050565b60035481565b5f81600c5f8673ffffffffffffffffffffffffffffffffffffffff1673ffffffffffffffffffffffffffffffffffffffff1681526020019081526020015f20541015611065576040517f08c379a000000000000000000000000000000000000000000000000000000000815260040161105c906120ea565b60405180910390fd5b81600d5f8673ffffffffffffffffffffffffffffffffffffffff1673ffffffffffffffffffffffffffffffffffffffff1681526020019081526020015f205f3373ffffffffffffffffffffffffffffffffffffffff1673ffffffffffffffffffffffffffffffffffffffff1681526020019081526020015f20541015611120576040517f08c379a000000000000000000000000000000000000000000000000000000000815260040161111790612152565b60405180910390fd5b81600c5f8673ffffffffffffffffffffffffffffffffffffffff1673ffffffffffffffffffffffffffffffffffffffff1681526020019081526020015f205f82825461116c919061219d565b9250508190555081600c5f8573ffffffffffffffffffffffffffffffffffffffff1673ffffffffffffffffffffffffffffffffffffffff1681526020019081526020015f205f8282546111bf91906121d0565b9250508190555081600d5f8673ffffffffffffffffffffffffffffffffffffffff1673ffffffffffffffffffffffffffffffffffffffff1681526020019081526020015f205f3373ffffffffffffffffffffffffffffffffffffffff1673ffffffffffffffffffffffffffffffffffffffff1681526020019081526020015f205f82825461124d919061219d565b925050819055508273ffffffffffffffffffffffffffffffffffffffff168473ffffffffffffffffffffffffffffffffffffffff167fcd6e659e4c2e75c3bfe47fecaccf39aeb368116a0ee52afb532e07f6cba6c0d1846040516112b19190612617565b60405180910390a3600190509392505050565b60025f9054906101000a900460ff1681565b80600590816112e591906123fd565b503373ffffffffffffffffffffffffffffffffffffffff167f0d7fccda06d6eb51c23cbd16d49b9b3f3ebafb002dba1b074895cbb35d0e81308260405161132c9190611d62565b60405180910390a250565b60606005805461134690612230565b80601f016020809104026020016040519081016040528092919081815260200182805461137290612230565b80156113bd5780601f10611394576101008083540402835291602001916113bd565b820191905f5260205f20905b8154815290600101906020018083116113a057829003601f168201915b5050505050905090565b60605f805f60605f600560065f015f9054906101000a900473ffffffffffffffffffffffffffffffffffffffff1660066001015f9054906101000a900473ffffffffffffffffffffffffffffffffffffffff16600660020154600660030160066004015485805461143790612230565b80601f016020809104026020016040519081016040528092919081815260200182805461146390612230565b80156114ae5780601f10611485576101008083540402835291602001916114ae565b820191905f5260205f20905b81548152906001019060200180831161149157829003601f168201915b505050505095508180546114c190612230565b80601f01602080910402602001604051908101604052809291908181526020018280546114ed90612230565b80156115385780601f1061150f57610100808354040283529160200191611538565b820191905f5260205f20905b81548152906001019060200180831161151b57829003601f168201915b50505050509150955095509550955095509550909192939495565b5f600b80549050905090565b600c602052805f5260405f205f915090505481565b5f805f60605f600b8054905086106115c1576040517f08c379a00000000000000000000000000000000000000000000000000000000081526004016115b89061268d565b60405180910390fd5b5f600b87815481106115d6576115d56126ab565b5b905f5260205f2090600502016040518060a00160405290815f82015f9054906101000a900473ffffffffffffffffffffffffffffffffffffffff1673ffffffffffffffffffffffffffffffffffffffff1673ffffffffffffffffffffffffffffffffffffffff168152602001600182015f9054906101000a900473ffffffffffffffffffffffffffffffffffffffff1673ffffffffffffffffffffffffffffffffffffffff1673ffffffffffffffffffffffffffffffffffffffff168152602001600282015481526020016003820180546116b090612230565b80601f01602080910402602001604051908101604052809291908181526020018280546116dc90612230565b80156117275780601f106116fe57610100808354040283529160200191611727565b820191905f5260205f20905b81548152906001019060200180831161170a57829003601f168201915b505050505081526020016004820154815250509050805f01518160200151826040015183606001518460800151955095509550955095505091939590929450565b600b8181548110611777575f80fd5b905f5260205f2090600502015f91509050805f015f9054906101000a900473ffffffffffffffffffffffffffffffffffffffff1690806001015f9054906101000a900473ffffffffffffffffffffffffffffffffffffffff16908060020154908060030180546117e690612230565b80601f016020809104026020016040519081016040528092919081815260200182805461181290612230565b801561185d5780601f106118345761010080835404028352916020019161185d565b820191905f5260205f20905b81548152906001019060200180831161184057829003601f168201915b5050505050908060040154905085565b60045f9054906101000a900473ffffffffffffffffffffffffffffffffffffffff1681565b6001805461189f90612230565b80601f01602080910402602001604051908101604052809291908181526020018280546118cb90612230565b80156119165780601f106118ed57610100808354040283529160200191611916565b820191905f5260205f20905b8154815290600101906020018083116118f957829003601f168201915b505050505081565b5f611938838360405180602001604052805f815250610a6a565b905092915050565b5f805f60605f60065f015f9054906101000a900473ffffffffffffffffffffffffffffffffffffffff1660066001015f9054906101000a900473ffffffffffffffffffffffffffffffffffffffff1660066002015460066003016006600401548180546119ac90612230565b80601f01602080910402602001604051908101604052809291908181526020018280546119d890612230565b8015611a235780601f106119fa57610100808354040283529160200191611a23565b820191905f5260205f20905b815481529060010190602001808311611a0657829003601f168201915b50505050509150945094509450945094509091929394565b600d602052815f5260405f20602052805f5260405f205f91509150505481565b5f604051905090565b5f80fd5b5f80fd5b5f73ffffffffffffffffffffffffffffffffffffffff82169050919050565b5f611a9582611a6c565b9050919050565b611aa581611a8b565b8114611aaf575f80fd5b50565b5f81359050611ac081611a9c565b92915050565b5f819050919050565b611ad881611ac6565b8114611ae2575f80fd5b50565b5f81359050611af381611acf565b92915050565b5f80fd5b5f80fd5b5f601f19601f8301169050919050565b7f4e487b71000000000000000000000000000000000000000000000000000000005f52604160045260245ffd5b611b4782611b01565b810181811067ffffffffffffffff82111715611b6657611b65611b11565b5b80604052505050565b5f611b78611a5b565b9050611b848282611b3e565b919050565b5f67ffffffffffffffff821115611ba357611ba2611b11565b5b611bac82611b01565b9050602081019050919050565b828183375f83830152505050565b5f611bd9611bd484611b89565b611b6f565b905082815260208101848484011115611bf557611bf4611afd565b5b611c00848285611bb9565b509392505050565b5f82601f830112611c1c57611c1b611af9565b5b8135611c2c848260208601611bc7565b91505092915050565b5f805f8060808587031215611c4d57611c4c611a64565b5b5f611c5a87828801611ab2565b9450506020611c6b87828801611ab2565b9350506040611c7c87828801611ae5565b925050606085013567ffffffffffffffff811115611c9d57611c9c611a68565b5b611ca987828801611c08565b91505092959194509250565b5f8115159050919050565b611cc981611cb5565b82525050565b5f602082019050611ce25f830184611cc0565b92915050565b5f81519050919050565b5f82825260208201905092915050565b5f5b83811015611d1f578082015181840152602081019050611d04565b5f8484015250505050565b5f611d3482611ce8565b611d3e8185611cf2565b9350611d4e818560208601611d02565b611d5781611b01565b840191505092915050565b5f6020820190508181035f830152611d7a8184611d2a565b905092915050565b5f805f60608486031215611d9957611d98611a64565b5b5f611da686828701611ab2565b9350506020611db786828701611ae5565b925050604084013567ffffffffffffffff811115611dd857611dd7611a68565b5b611de486828701611c08565b9150509250925092565b5f8060408385031215611e0457611e03611a64565b5b5f611e1185828601611ab2565b9250506020611e2285828601611ae5565b9150509250929050565b611e3581611ac6565b82525050565b5f602082019050611e4e5f830184611e2c565b92915050565b5f805f60608486031215611e6b57611e6a611a64565b5b5f611e7886828701611ab2565b9350506020611e8986828701611ab2565b9250506040611e9a86828701611ae5565b9150509250925092565b5f60ff82169050919050565b611eb981611ea4565b82525050565b5f602082019050611ed25f830184611eb0565b92915050565b5f60208284031215611eed57611eec611a64565b5b5f82013567ffffffffffffffff811115611f0a57611f09611a68565b5b611f1684828501611c08565b91505092915050565b611f2881611a8b565b82525050565b5f60c0820190508181035f830152611f468189611d2a565b9050611f556020830188611f1f565b611f626040830187611f1f565b611f6f6060830186611e2c565b8181036080830152611f818185611d2a565b9050611f9060a0830184611e2c565b979650505050505050565b5f60208284031215611fb057611faf611a64565b5b5f611fbd84828501611ab2565b91505092915050565b5f60208284031215611fdb57611fda611a64565b5b5f611fe884828501611ae5565b91505092915050565b5f60a0820190506120045f830188611f1f565b6120116020830187611f1f565b61201e6040830186611e2c565b81810360608301526120308185611d2a565b905061203f6080830184611e2c565b9695505050505050565b5f60208201905061205c5f830184611f1f565b92915050565b5f806040838503121561207857612077611a64565b5b5f61208585828601611ab2565b925050602061209685828601611ab2565b9150509250929050565b7f4e6f7420656e6f7567682062616c616e636500000000000000000000000000005f82015250565b5f6120d4601283611cf2565b91506120df826120a0565b602082019050919050565b5f6020820190508181035f830152612101816120c8565b9050919050565b7f416c6c6f77616e636520746f6f206c6f770000000000000000000000000000005f82015250565b5f61213c601183611cf2565b915061214782612108565b602082019050919050565b5f6020820190508181035f83015261216981612130565b9050919050565b7f4e487b71000000000000000000000000000000000000000000000000000000005f52601160045260245ffd5b5f6121a782611ac6565b91506121b283611ac6565b92508282039050818111156121ca576121c9612170565b5b92915050565b5f6121da82611ac6565b91506121e583611ac6565b92508282019050808211156121fd576121fc612170565b5b92915050565b7f4e487b71000000000000000000000000000000000000000000000000000000005f52602260045260245ffd5b5f600282049050600182168061224757607f821691505b60208210810361225a57612259612203565b5b50919050565b5f819050815f5260205f209050919050565b5f6020601f8301049050919050565b5f82821b905092915050565b5f600883026122bc7fffffffffffffffffffffffffffffffffffffffffffffffffffffffffffffffff82612281565b6122c68683612281565b95508019841693508086168417925050509392505050565b5f819050919050565b5f6123016122fc6122f784611ac6565b6122de565b611ac6565b9050919050565b5f819050919050565b61231a836122e7565b61232e61232682612308565b84845461228d565b825550505050565b5f90565b612342612336565b61234d818484612311565b505050565b5b81811015612370576123655f8261233a565b600181019050612353565b5050565b601f8211156123b55761238681612260565b61238f84612272565b8101602085101561239e578190505b6123b26123aa85612272565b830182612352565b50505b505050565b5f82821c905092915050565b5f6123d55f19846008026123ba565b1980831691505092915050565b5f6123ed83836123c6565b9150826002028217905092915050565b61240682611ce8565b67ffffffffffffffff81111561241f5761241e611b11565b5b6124298254612230565b612434828285612374565b5f60209050601f831160018114612465575f8415612453578287015190505b61245d85826123e2565b8655506124c4565b601f19841661247386612260565b5f5b8281101561249a57848901518255600182019150602085019450602081019050612475565b868310156124b757848901516124b3601f8916826123c6565b8355505b6001600288020188555050505b505050505050565b5f815490506124da81612230565b9050919050565b8181036124ef5750506125c4565b6124f8826124cc565b67ffffffffffffffff81111561251157612510611b11565b5b61251b8254612230565b612526828285612374565b5f601f831160018114612553575f8415612541578287015490505b61254b85826123e2565b8655506125bd565b601f19841661256187612260565b965061256c86612260565b5f5b828110156125935784890154825560018201915060018501945060208101905061256e565b868310156125b057848901546125ac601f8916826123c6565b8355505b6001600288020188555050505b5050505050505b565b5f6040820190506125d95f830185611e2c565b81810360208301526125eb8184611d2a565b90509392505050565b50565b5f6126025f83611cf2565b915061260d826125f4565b5f82019050919050565b5f60408201905061262a5f830184611e2c565b818103602083015261263b816125f7565b905092915050565b7f496e646578206f7574206f6620626f756e6473000000000000000000000000005f82015250565b5f612677601383611cf2565b915061268282612643565b602082019050919050565b5f6020820190508181035f8301526126a48161266b565b9050919050565b7f4e487b71000000000000000000000000000000000000000000000000000000005f52603260045260245ffdfea264697066735822122073e9876636adab49bbb4cb85ccb86c44471354fa1202ea3fd7032dbb4d2bd12264736f6c63430008150033",
					"opcodes": "PUSH1 0x80 PUSH1 0x40 MSTORE PUSH1 0x40 MLOAD DUP1 PUSH1 0x40 ADD PUSH1 0x40 MSTORE DUP1 PUSH1 0xA DUP2 MSTORE PUSH1 0x20 ADD PUSH32 0x4C6561726E546F6B656E00000000000000000000000000000000000000000000 DUP2 MSTORE POP PUSH0 SWAP1 DUP2 PUSH3 0x49 SWAP2 SWAP1 PUSH3 0x469 JUMP JUMPDEST POP PUSH1 0x40 MLOAD DUP1 PUSH1 0x40 ADD PUSH1 0x40 MSTORE DUP1 PUSH1 0x2 DUP2 MSTORE PUSH1 0x20 ADD PUSH32 0x4C52000000000000000000000000000000000000000000000000000000000000 DUP2 MSTORE POP PUSH1 0x1 SWAP1 DUP2 PUSH3 0x90 SWAP2 SWAP1 PUSH3 0x469 JUMP JUMPDEST POP PUSH1 0x12 PUSH1 0x2 PUSH0 PUSH2 0x100 EXP DUP2 SLOAD DUP2 PUSH1 0xFF MUL NOT AND SWAP1 DUP4 PUSH1 0xFF AND MUL OR SWAP1 SSTORE POP CALLVALUE DUP1 ISZERO PUSH3 0xB8 JUMPI PUSH0 DUP1 REVERT JUMPDEST POP PUSH1 0x40 MLOAD PUSH3 0x2F82 CODESIZE SUB DUP1 PUSH3 0x2F82 DUP4 CODECOPY DUP2 DUP2 ADD PUSH1 0x40 MSTORE DUP2 ADD SWAP1 PUSH3 0xDE SWAP2 SWAP1 PUSH3 0x580 JUMP JUMPDEST PUSH1 0x2 PUSH0 SWAP1 SLOAD SWAP1 PUSH2 0x100 EXP SWAP1 DIV PUSH1 0xFF AND PUSH1 0xFF AND PUSH1 0xA PUSH3 0xFE SWAP2 SWAP1 PUSH3 0x72D JUMP JUMPDEST DUP2 PUSH3 0x10B SWAP2 SWAP1 PUSH3 0x77D JUMP JUMPDEST PUSH1 0x3 DUP2 SWAP1 SSTORE POP PUSH1 0x3 SLOAD PUSH1 0xC PUSH0 CALLER PUSH20 0xFFFFFFFFFFFFFFFFFFFFFFFFFFFFFFFFFFFFFFFF AND PUSH20 0xFFFFFFFFFFFFFFFFFFFFFFFFFFFFFFFFFFFFFFFF AND DUP2 MSTORE PUSH1 0x20 ADD SWAP1 DUP2 MSTORE PUSH1 0x20 ADD PUSH0 KECCAK256 DUP2 SWAP1 SSTORE POP CALLER PUSH20 0xFFFFFFFFFFFFFFFFFFFFFFFFFFFFFFFFFFFFFFFF AND CALLER PUSH20 0xFFFFFFFFFFFFFFFFFFFFFFFFFFFFFFFFFFFFFFFF AND PUSH32 0xCD6E659E4C2E75C3BFE47FECACCF39AEB368116A0EE52AFB532E07F6CBA6C0D1 PUSH1 0x3 SLOAD PUSH1 0x40 MLOAD PUSH3 0x1B6 SWAP2 SWAP1 PUSH3 0x836 JUMP JUMPDEST PUSH1 0x40 MLOAD DUP1 SWAP2 SUB SWAP1 LOG3 CALLER PUSH1 0x4 PUSH0 PUSH2 0x100 EXP DUP2 SLOAD DUP2 PUSH20 0xFFFFFFFFFFFFFFFFFFFFFFFFFFFFFFFFFFFFFFFF MUL NOT AND SWAP1 DUP4 PUSH20 0xFFFFFFFFFFFFFFFFFFFFFFFFFFFFFFFFFFFFFFFF AND MUL OR SWAP1 SSTORE POP POP PUSH3 0x866 JUMP JUMPDEST PUSH0 DUP2 MLOAD SWAP1 POP SWAP2 SWAP1 POP JUMP JUMPDEST PUSH32 0x4E487B7100000000000000000000000000000000000000000000000000000000 PUSH0 MSTORE PUSH1 0x41 PUSH1 0x4 MSTORE PUSH1 0x24 PUSH0 REVERT JUMPDEST PUSH32 0x4E487B7100000000000000000000000000000000000000000000000000000000 PUSH0 MSTORE PUSH1 0x22 PUSH1 0x4 MSTORE PUSH1 0x24 PUSH0 REVERT JUMPDEST PUSH0 PUSH1 0x2 DUP3 DIV SWAP1 POP PUSH1 0x1 DUP3 AND DUP1 PUSH3 0x281 JUMPI PUSH1 0x7F DUP3 AND SWAP2 POP JUMPDEST PUSH1 0x20 DUP3 LT DUP2 SUB PUSH3 0x297 JUMPI PUSH3 0x296 PUSH3 0x23C JUMP JUMPDEST JUMPDEST POP SWAP2 SWAP1 POP JUMP JUMPDEST PUSH0 DUP2 SWAP1 POP DUP2 PUSH0 MSTORE PUSH1 0x20 PUSH0 KECCAK256 SWAP1 POP SWAP2 SWAP1 POP JUMP JUMPDEST PUSH0 PUSH1 0x20 PUSH1 0x1F DUP4 ADD DIV SWAP1 POP SWAP2 SWAP1 POP JUMP JUMPDEST PUSH0 DUP3 DUP3 SHL SWAP1 POP SWAP3 SWAP2 POP POP JUMP JUMPDEST PUSH0 PUSH1 0x8 DUP4 MUL PUSH3 0x2FB PUSH32 0xFFFFFFFFFFFFFFFFFFFFFFFFFFFFFFFFFFFFFFFFFFFFFFFFFFFFFFFFFFFFFFFF DUP3 PUSH3 0x2BE JUMP JUMPDEST PUSH3 0x307 DUP7 DUP4 PUSH3 0x2BE JUMP JUMPDEST SWAP6 POP DUP1 NOT DUP5 AND SWAP4 POP DUP1 DUP7 AND DUP5 OR SWAP3 POP POP POP SWAP4 SWAP3 POP POP POP JUMP JUMPDEST PUSH0 DUP2 SWAP1 POP SWAP2 SWAP1 POP JUMP JUMPDEST PUSH0 DUP2 SWAP1 POP SWAP2 SWAP1 POP JUMP JUMPDEST PUSH0 PUSH3 0x351 PUSH3 0x34B PUSH3 0x345 DUP5 PUSH3 0x31F JUMP JUMPDEST PUSH3 0x328 JUMP JUMPDEST PUSH3 0x31F JUMP JUMPDEST SWAP1 POP SWAP2 SWAP1 POP JUMP JUMPDEST PUSH0 DUP2 SWAP1 POP SWAP2 SWAP1 POP JUMP JUMPDEST PUSH3 0x36C DUP4 PUSH3 0x331 JUMP JUMPDEST PUSH3 0x384 PUSH3 0x37B DUP3 PUSH3 0x358 JUMP JUMPDEST DUP5 DUP5 SLOAD PUSH3 0x2CA JUMP JUMPDEST DUP3 SSTORE POP POP POP POP JUMP JUMPDEST PUSH0 SWAP1 JUMP JUMPDEST PUSH3 0x39A PUSH3 0x38C JUMP JUMPDEST PUSH3 0x3A7 DUP2 DUP5 DUP5 PUSH3 0x361 JUMP JUMPDEST POP POP POP JUMP JUMPDEST JUMPDEST DUP2 DUP2 LT ISZERO PUSH3 0x3CE JUMPI PUSH3 0x3C2 PUSH0 DUP3 PUSH3 0x390 JUMP JUMPDEST PUSH1 0x1 DUP2 ADD SWAP1 POP PUSH3 0x3AD JUMP JUMPDEST POP POP JUMP JUMPDEST PUSH1 0x1F DUP3 GT ISZERO PUSH3 0x41D JUMPI PUSH3 0x3E7 DUP2 PUSH3 0x29D JUMP JUMPDEST PUSH3 0x3F2 DUP5 PUSH3 0x2AF JUMP JUMPDEST DUP2 ADD PUSH1 0x20 DUP6 LT ISZERO PUSH3 0x402 JUMPI DUP2 SWAP1 POP JUMPDEST PUSH3 0x41A PUSH3 0x411 DUP6 PUSH3 0x2AF JUMP JUMPDEST DUP4 ADD DUP3 PUSH3 0x3AC JUMP JUMPDEST POP POP JUMPDEST POP POP POP JUMP JUMPDEST PUSH0 DUP3 DUP3 SHR SWAP1 POP SWAP3 SWAP2 POP POP JUMP JUMPDEST PUSH0 PUSH3 0x43F PUSH0 NOT DUP5 PUSH1 0x8 MUL PUSH3 0x422 JUMP JUMPDEST NOT DUP1 DUP4 AND SWAP2 POP POP SWAP3 SWAP2 POP POP JUMP JUMPDEST PUSH0 PUSH3 0x459 DUP4 DUP4 PUSH3 0x42E JUMP JUMPDEST SWAP2 POP DUP3 PUSH1 0x2 MUL DUP3 OR SWAP1 POP SWAP3 SWAP2 POP POP JUMP JUMPDEST PUSH3 0x474 DUP3 PUSH3 0x205 JUMP JUMPDEST PUSH8 0xFFFFFFFFFFFFFFFF DUP2 GT ISZERO PUSH3 0x490 JUMPI PUSH3 0x48F PUSH3 0x20F JUMP JUMPDEST JUMPDEST PUSH3 0x49C DUP3 SLOAD PUSH3 0x269 JUMP JUMPDEST PUSH3 0x4A9 DUP3 DUP3 DUP6 PUSH3 0x3D2 JUMP JUMPDEST PUSH0 PUSH1 0x20 SWAP1 POP PUSH1 0x1F DUP4 GT PUSH1 0x1 DUP2 EQ PUSH3 0x4DF JUMPI PUSH0 DUP5 ISZERO PUSH3 0x4CA JUMPI DUP3 DUP8 ADD MLOAD SWAP1 POP JUMPDEST PUSH3 0x4D6 DUP6 DUP3 PUSH3 0x44C JUMP JUMPDEST DUP7 SSTORE POP PUSH3 0x545 JUMP JUMPDEST PUSH1 0x1F NOT DUP5 AND PUSH3 0x4EF DUP7 PUSH3 0x29D JUMP JUMPDEST PUSH0 JUMPDEST DUP3 DUP2 LT ISZERO PUSH3 0x518 JUMPI DUP5 DUP10 ADD MLOAD DUP3 SSTORE PUSH1 0x1 DUP3 ADD SWAP2 POP PUSH1 0x20 DUP6 ADD SWAP5 POP PUSH1 0x20 DUP2 ADD SWAP1 POP PUSH3 0x4F1 JUMP JUMPDEST DUP7 DUP4 LT ISZERO PUSH3 0x538 JUMPI DUP5 DUP10 ADD MLOAD PUSH3 0x534 PUSH1 0x1F DUP10 AND DUP3 PUSH3 0x42E JUMP JUMPDEST DUP4 SSTORE POP JUMPDEST PUSH1 0x1 PUSH1 0x2 DUP9 MUL ADD DUP9 SSTORE POP POP POP JUMPDEST POP POP POP POP POP POP JUMP JUMPDEST PUSH0 DUP1 REVERT JUMPDEST PUSH3 0x55C DUP2 PUSH3 0x31F JUMP JUMPDEST DUP2 EQ PUSH3 0x567 JUMPI PUSH0 DUP1 REVERT JUMPDEST POP JUMP JUMPDEST PUSH0 DUP2 MLOAD SWAP1 POP PUSH3 0x57A DUP2 PUSH3 0x551 JUMP JUMPDEST SWAP3 SWAP2 POP POP JUMP JUMPDEST PUSH0 PUSH1 0x20 DUP3 DUP5 SUB SLT ISZERO PUSH3 0x598 JUMPI PUSH3 0x597 PUSH3 0x54D JUMP JUMPDEST JUMPDEST PUSH0 PUSH3 0x5A7 DUP5 DUP3 DUP6 ADD PUSH3 0x56A JUMP JUMPDEST SWAP2 POP POP SWAP3 SWAP2 POP POP JUMP JUMPDEST PUSH32 0x4E487B7100000000000000000000000000000000000000000000000000000000 PUSH0 MSTORE PUSH1 0x11 PUSH1 0x4 MSTORE PUSH1 0x24 PUSH0 REVERT JUMPDEST PUSH0 DUP2 PUSH1 0x1 SHR SWAP1 POP SWAP2 SWAP1 POP JUMP JUMPDEST PUSH0 DUP1 DUP3 SWAP2 POP DUP4 SWAP1 POP JUMPDEST PUSH1 0x1 DUP6 GT ISZERO PUSH3 0x63A JUMPI DUP1 DUP7 DIV DUP2 GT ISZERO PUSH3 0x612 JUMPI PUSH3 0x611 PUSH3 0x5B0 JUMP JUMPDEST JUMPDEST PUSH1 0x1 DUP6 AND ISZERO PUSH3 0x622 JUMPI DUP1 DUP3 MUL SWAP2 POP JUMPDEST DUP1 DUP2 MUL SWAP1 POP PUSH3 0x632 DUP6 PUSH3 0x5DD JUMP JUMPDEST SWAP5 POP PUSH3 0x5F2 JUMP JUMPDEST SWAP5 POP SWAP5 SWAP3 POP POP POP JUMP JUMPDEST PUSH0 DUP3 PUSH3 0x654 JUMPI PUSH1 0x1 SWAP1 POP PUSH3 0x726 JUMP JUMPDEST DUP2 PUSH3 0x663 JUMPI PUSH0 SWAP1 POP PUSH3 0x726 JUMP JUMPDEST DUP2 PUSH1 0x1 DUP2 EQ PUSH3 0x67C JUMPI PUSH1 0x2 DUP2 EQ PUSH3 0x687 JUMPI PUSH3 0x6BD JUMP JUMPDEST PUSH1 0x1 SWAP2 POP POP PUSH3 0x726 JUMP JUMPDEST PUSH1 0xFF DUP5 GT ISZERO PUSH3 0x69C JUMPI PUSH3 0x69B PUSH3 0x5B0 JUMP JUMPDEST JUMPDEST DUP4 PUSH1 0x2 EXP SWAP2 POP DUP5 DUP3 GT ISZERO PUSH3 0x6B6 JUMPI PUSH3 0x6B5 PUSH3 0x5B0 JUMP JUMPDEST JUMPDEST POP PUSH3 0x726 JUMP JUMPDEST POP PUSH1 0x20 DUP4 LT PUSH2 0x133 DUP4 LT AND PUSH1 0x4E DUP5 LT PUSH1 0xB DUP5 LT AND OR ISZERO PUSH3 0x6F7 JUMPI DUP3 DUP3 EXP SWAP1 POP DUP4 DUP2 GT ISZERO PUSH3 0x6F1 JUMPI PUSH3 0x6F0 PUSH3 0x5B0 JUMP JUMPDEST JUMPDEST PUSH3 0x726 JUMP JUMPDEST PUSH3 0x706 DUP5 DUP5 DUP5 PUSH1 0x1 PUSH3 0x5E9 JUMP JUMPDEST SWAP3 POP SWAP1 POP DUP2 DUP5 DIV DUP2 GT ISZERO PUSH3 0x720 JUMPI PUSH3 0x71F PUSH3 0x5B0 JUMP JUMPDEST JUMPDEST DUP2 DUP2 MUL SWAP1 POP JUMPDEST SWAP4 SWAP3 POP POP POP JUMP JUMPDEST PUSH0 PUSH3 0x739 DUP3 PUSH3 0x31F JUMP JUMPDEST SWAP2 POP PUSH3 0x746 DUP4 PUSH3 0x31F JUMP JUMPDEST SWAP3 POP PUSH3 0x775 PUSH32 0xFFFFFFFFFFFFFFFFFFFFFFFFFFFFFFFFFFFFFFFFFFFFFFFFFFFFFFFFFFFFFFFF DUP5 DUP5 PUSH3 0x643 JUMP JUMPDEST SWAP1 POP SWAP3 SWAP2 POP POP JUMP JUMPDEST PUSH0 PUSH3 0x789 DUP3 PUSH3 0x31F JUMP JUMPDEST SWAP2 POP PUSH3 0x796 DUP4 PUSH3 0x31F JUMP JUMPDEST SWAP3 POP DUP3 DUP3 MUL PUSH3 0x7A6 DUP2 PUSH3 0x31F JUMP JUMPDEST SWAP2 POP DUP3 DUP3 DIV DUP5 EQ DUP4 ISZERO OR PUSH3 0x7C0 JUMPI PUSH3 0x7BF PUSH3 0x5B0 JUMP JUMPDEST JUMPDEST POP SWAP3 SWAP2 POP POP JUMP JUMPDEST PUSH3 0x7D2 DUP2 PUSH3 0x31F JUMP JUMPDEST DUP3 MSTORE POP POP JUMP JUMPDEST PUSH0 DUP3 DUP3 MSTORE PUSH1 0x20 DUP3 ADD SWAP1 POP SWAP3 SWAP2 POP POP JUMP JUMPDEST PUSH32 0x496E697469616C20737570706C79000000000000000000000000000000000000 PUSH0 DUP3 ADD MSTORE POP JUMP JUMPDEST PUSH0 PUSH3 0x81E PUSH1 0xE DUP4 PUSH3 0x7D8 JUMP JUMPDEST SWAP2 POP PUSH3 0x82B DUP3 PUSH3 0x7E8 JUMP JUMPDEST PUSH1 0x20 DUP3 ADD SWAP1 POP SWAP2 SWAP1 POP JUMP JUMPDEST PUSH0 PUSH1 0x40 DUP3 ADD SWAP1 POP PUSH3 0x84B PUSH0 DUP4 ADD DUP5 PUSH3 0x7C7 JUMP JUMPDEST DUP2 DUP2 SUB PUSH1 0x20 DUP4 ADD MSTORE PUSH3 0x85E DUP2 PUSH3 0x810 JUMP JUMPDEST SWAP1 POP SWAP3 SWAP2 POP POP JUMP JUMPDEST PUSH2 0x270E DUP1 PUSH3 0x874 PUSH0 CODECOPY PUSH0 RETURN INVALID PUSH1 0x80 PUSH1 0x40 MSTORE CALLVALUE DUP1 ISZERO PUSH2 0xF JUMPI PUSH0 DUP1 REVERT JUMPDEST POP PUSH1 0x4 CALLDATASIZE LT PUSH2 0x11F JUMPI PUSH0 CALLDATALOAD PUSH1 0xE0 SHR DUP1 PUSH4 0x57F8A100 GT PUSH2 0xAB JUMPI DUP1 PUSH4 0x8DA5CB5B GT PUSH2 0x6F JUMPI DUP1 PUSH4 0x8DA5CB5B EQ PUSH2 0x350 JUMPI DUP1 PUSH4 0x95D89B41 EQ PUSH2 0x36E JUMPI DUP1 PUSH4 0xA9059CBB EQ PUSH2 0x38C JUMPI DUP1 PUSH4 0xD0D28FC2 EQ PUSH2 0x3BC JUMPI DUP1 PUSH4 0xDD62ED3E EQ PUSH2 0x3DE JUMPI PUSH2 0x11F JUMP JUMPDEST DUP1 PUSH4 0x57F8A100 EQ PUSH2 0x277 JUMPI DUP1 PUSH4 0x5C52265B EQ PUSH2 0x29A JUMPI DUP1 PUSH4 0x70A08231 EQ PUSH2 0x2B8 JUMPI DUP1 PUSH4 0x71AA85F6 EQ PUSH2 0x2E8 JUMPI DUP1 PUSH4 0x816C99DE EQ PUSH2 0x31C JUMPI PUSH2 0x11F JUMP JUMPDEST DUP1 PUSH4 0x18160DDD GT PUSH2 0xF2 JUMPI DUP1 PUSH4 0x18160DDD EQ PUSH2 0x1D1 JUMPI DUP1 PUSH4 0x23B872DD EQ PUSH2 0x1EF JUMPI DUP1 PUSH4 0x313CE567 EQ PUSH2 0x21F JUMPI DUP1 PUSH4 0x469C8110 EQ PUSH2 0x23D JUMPI DUP1 PUSH4 0x526BF76E EQ PUSH2 0x259 JUMPI PUSH2 0x11F JUMP JUMPDEST DUP1 PUSH4 0x3DD05A7 EQ PUSH2 0x123 JUMPI DUP1 PUSH4 0x6FDDE03 EQ PUSH2 0x153 JUMPI DUP1 PUSH4 0x818F44B EQ PUSH2 0x171 JUMPI DUP1 PUSH4 0x95EA7B3 EQ PUSH2 0x1A1 JUMPI JUMPDEST PUSH0 DUP1 REVERT JUMPDEST PUSH2 0x13D PUSH1 0x4 DUP1 CALLDATASIZE SUB DUP2 ADD SWAP1 PUSH2 0x138 SWAP2 SWAP1 PUSH2 0x1C35 JUMP JUMPDEST PUSH2 0x40E JUMP JUMPDEST PUSH1 0x40 MLOAD PUSH2 0x14A SWAP2 SWAP1 PUSH2 0x1CCF JUMP JUMPDEST PUSH1 0x40 MLOAD DUP1 SWAP2 SUB SWAP1 RETURN JUMPDEST PUSH2 0x15B PUSH2 0x9DF JUMP JUMPDEST PUSH1 0x40 MLOAD PUSH2 0x168 SWAP2 SWAP1 PUSH2 0x1D62 JUMP JUMPDEST PUSH1 0x40 MLOAD DUP1 SWAP2 SUB SWAP1 RETURN JUMPDEST PUSH2 0x18B PUSH1 0x4 DUP1 CALLDATASIZE SUB DUP2 ADD SWAP1 PUSH2 0x186 SWAP2 SWAP1 PUSH2 0x1D82 JUMP JUMPDEST PUSH2 0xA6A JUMP JUMPDEST PUSH1 0x40 MLOAD PUSH2 0x198 SWAP2 SWAP1 PUSH2 0x1CCF JUMP JUMPDEST PUSH1 0x40 MLOAD DUP1 SWAP2 SUB SWAP1 RETURN JUMPDEST PUSH2 0x1BB PUSH1 0x4 DUP1 CALLDATASIZE SUB DUP2 ADD SWAP1 PUSH2 0x1B6 SWAP2 SWAP1 PUSH2 0x1DEE JUMP JUMPDEST PUSH2 0xEF1 JUMP JUMPDEST PUSH1 0x40 MLOAD PUSH2 0x1C8 SWAP2 SWAP1 PUSH2 0x1CCF JUMP JUMPDEST PUSH1 0x40 MLOAD DUP1 SWAP2 SUB SWAP1 RETURN JUMPDEST PUSH2 0x1D9 PUSH2 0xFDE JUMP JUMPDEST PUSH1 0x40 MLOAD PUSH2 0x1E6 SWAP2 SWAP1 PUSH2 0x1E3B JUMP JUMPDEST PUSH1 0x40 MLOAD DUP1 SWAP2 SUB SWAP1 RETURN JUMPDEST PUSH2 0x209 PUSH1 0x4 DUP1 CALLDATASIZE SUB DUP2 ADD SWAP1 PUSH2 0x204 SWAP2 SWAP1 PUSH2 0x1E54 JUMP JUMPDEST PUSH2 0xFE4 JUMP JUMPDEST PUSH1 0x40 MLOAD PUSH2 0x216 SWAP2 SWAP1 PUSH2 0x1CCF JUMP JUMPDEST PUSH1 0x40 MLOAD DUP1 SWAP2 SUB SWAP1 RETURN JUMPDEST PUSH2 0x227 PUSH2 0x12C4 JUMP JUMPDEST PUSH1 0x40 MLOAD PUSH2 0x234 SWAP2 SWAP1 PUSH2 0x1EBF JUMP JUMPDEST PUSH1 0x40 MLOAD DUP1 SWAP2 SUB SWAP1 RETURN JUMPDEST PUSH2 0x257 PUSH1 0x4 DUP1 CALLDATASIZE SUB DUP2 ADD SWAP1 PUSH2 0x252 SWAP2 SWAP1 PUSH2 0x1ED8 JUMP JUMPDEST PUSH2 0x12D6 JUMP JUMPDEST STOP JUMPDEST PUSH2 0x261 PUSH2 0x1337 JUMP JUMPDEST PUSH1 0x40 MLOAD PUSH2 0x26E SWAP2 SWAP1 PUSH2 0x1D62 JUMP JUMPDEST PUSH1 0x40 MLOAD DUP1 SWAP2 SUB SWAP1 RETURN JUMPDEST PUSH2 0x27F PUSH2 0x13C7 JUMP JUMPDEST PUSH1 0x40 MLOAD PUSH2 0x291 SWAP7 SWAP6 SWAP5 SWAP4 SWAP3 SWAP2 SWAP1 PUSH2 0x1F2E JUMP JUMPDEST PUSH1 0x40 MLOAD DUP1 SWAP2 SUB SWAP1 RETURN JUMPDEST PUSH2 0x2A2 PUSH2 0x1553 JUMP JUMPDEST PUSH1 0x40 MLOAD PUSH2 0x2AF SWAP2 SWAP1 PUSH2 0x1E3B JUMP JUMPDEST PUSH1 0x40 MLOAD DUP1 SWAP2 SUB SWAP1 RETURN JUMPDEST PUSH2 0x2D2 PUSH1 0x4 DUP1 CALLDATASIZE SUB DUP2 ADD SWAP1 PUSH2 0x2CD SWAP2 SWAP1 PUSH2 0x1F9B JUMP JUMPDEST PUSH2 0x155F JUMP JUMPDEST PUSH1 0x40 MLOAD PUSH2 0x2DF SWAP2 SWAP1 PUSH2 0x1E3B JUMP JUMPDEST PUSH1 0x40 MLOAD DUP1 SWAP2 SUB SWAP1 RETURN JUMPDEST PUSH2 0x302 PUSH1 0x4 DUP1 CALLDATASIZE SUB DUP2 ADD SWAP1 PUSH2 0x2FD SWAP2 SWAP1 PUSH2 0x1FC6 JUMP JUMPDEST PUSH2 0x1574 JUMP JUMPDEST PUSH1 0x40 MLOAD PUSH2 0x313 SWAP6 SWAP5 SWAP4 SWAP3 SWAP2 SWAP1 PUSH2 0x1FF1 JUMP JUMPDEST PUSH1 0x40 MLOAD DUP1 SWAP2 SUB SWAP1 RETURN JUMPDEST PUSH2 0x336 PUSH1 0x4 DUP1 CALLDATASIZE SUB DUP2 ADD SWAP1 PUSH2 0x331 SWAP2 SWAP1 PUSH2 0x1FC6 JUMP JUMPDEST PUSH2 0x1768 JUMP JUMPDEST PUSH1 0x40 MLOAD PUSH2 0x347 SWAP6 SWAP5 SWAP4 SWAP3 SWAP2 SWAP1 PUSH2 0x1FF1 JUMP JUMPDEST PUSH1 0x40 MLOAD DUP1 SWAP2 SUB SWAP1 RETURN JUMPDEST PUSH2 0x358 PUSH2 0x186D JUMP JUMPDEST PUSH1 0x40 MLOAD PUSH2 0x365 SWAP2 SWAP1 PUSH2 0x2049 JUMP JUMPDEST PUSH1 0x40 MLOAD DUP1 SWAP2 SUB SWAP1 RETURN JUMPDEST PUSH2 0x376 PUSH2 0x1892 JUMP JUMPDEST PUSH1 0x40 MLOAD PUSH2 0x383 SWAP2 SWAP1 PUSH2 0x1D62 JUMP JUMPDEST PUSH1 0x40 MLOAD DUP1 SWAP2 SUB SWAP1 RETURN JUMPDEST PUSH2 0x3A6 PUSH1 0x4 DUP1 CALLDATASIZE SUB DUP2 ADD SWAP1 PUSH2 0x3A1 SWAP2 SWAP1 PUSH2 0x1DEE JUMP JUMPDEST PUSH2 0x191E JUMP JUMPDEST PUSH1 0x40 MLOAD PUSH2 0x3B3 SWAP2 SWAP1 PUSH2 0x1CCF JUMP JUMPDEST PUSH1 0x40 MLOAD DUP1 SWAP2 SUB SWAP1 RETURN JUMPDEST PUSH2 0x3C4 PUSH2 0x1940 JUMP JUMPDEST PUSH1 0x40 MLOAD PUSH2 0x3D5 SWAP6 SWAP5 SWAP4 SWAP3 SWAP2 SWAP1 PUSH2 0x1FF1 JUMP JUMPDEST PUSH1 0x40 MLOAD DUP1 SWAP2 SUB SWAP1 RETURN JUMPDEST PUSH2 0x3F8 PUSH1 0x4 DUP1 CALLDATASIZE SUB DUP2 ADD SWAP1 PUSH2 0x3F3 SWAP2 SWAP1 PUSH2 0x2062 JUMP JUMPDEST PUSH2 0x1A3B JUMP JUMPDEST PUSH1 0x40 MLOAD PUSH2 0x405 SWAP2 SWAP1 PUSH2 0x1E3B JUMP JUMPDEST PUSH1 0x40 MLOAD DUP1 SWAP2 SUB SWAP1 RETURN JUMPDEST PUSH0 DUP3 PUSH1 0xC PUSH0 DUP8 PUSH20 0xFFFFFFFFFFFFFFFFFFFFFFFFFFFFFFFFFFFFFFFF AND PUSH20 0xFFFFFFFFFFFFFFFFFFFFFFFFFFFFFFFFFFFFFFFF AND DUP2 MSTORE PUSH1 0x20 ADD SWAP1 DUP2 MSTORE PUSH1 0x20 ADD PUSH0 KECCAK256 SLOAD LT ISZERO PUSH2 0x48F JUMPI PUSH1 0x40 MLOAD PUSH32 0x8C379A000000000000000000000000000000000000000000000000000000000 DUP2 MSTORE PUSH1 0x4 ADD PUSH2 0x486 SWAP1 PUSH2 0x20EA JUMP JUMPDEST PUSH1 0x40 MLOAD DUP1 SWAP2 SUB SWAP1 REVERT JUMPDEST DUP3 PUSH1 0xD PUSH0 DUP8 PUSH20 0xFFFFFFFFFFFFFFFFFFFFFFFFFFFFFFFFFFFFFFFF AND PUSH20 0xFFFFFFFFFFFFFFFFFFFFFFFFFFFFFFFFFFFFFFFF AND DUP2 MSTORE PUSH1 0x20 ADD SWAP1 DUP2 MSTORE PUSH1 0x20 ADD PUSH0 KECCAK256 PUSH0 CALLER PUSH20 0xFFFFFFFFFFFFFFFFFFFFFFFFFFFFFFFFFFFFFFFF AND PUSH20 0xFFFFFFFFFFFFFFFFFFFFFFFFFFFFFFFFFFFFFFFF AND DUP2 MSTORE PUSH1 0x20 ADD SWAP1 DUP2 MSTORE PUSH1 0x20 ADD PUSH0 KECCAK256 SLOAD LT ISZERO PUSH2 0x54A JUMPI PUSH1 0x40 MLOAD PUSH32 0x8C379A000000000000000000000000000000000000000000000000000000000 DUP2 MSTORE PUSH1 0x4 ADD PUSH2 0x541 SWAP1 PUSH2 0x2152 JUMP JUMPDEST PUSH1 0x40 MLOAD DUP1 SWAP2 SUB SWAP1 REVERT JUMPDEST DUP3 PUSH1 0xC PUSH0 DUP8 PUSH20 0xFFFFFFFFFFFFFFFFFFFFFFFFFFFFFFFFFFFFFFFF AND PUSH20 0xFFFFFFFFFFFFFFFFFFFFFFFFFFFFFFFFFFFFFFFF AND DUP2 MSTORE PUSH1 0x20 ADD SWAP1 DUP2 MSTORE PUSH1 0x20 ADD PUSH0 KECCAK256 PUSH0 DUP3 DUP3 SLOAD PUSH2 0x596 SWAP2 SWAP1 PUSH2 0x219D JUMP JUMPDEST SWAP3 POP POP DUP2 SWAP1 SSTORE POP DUP3 PUSH1 0xC PUSH0 DUP7 PUSH20 0xFFFFFFFFFFFFFFFFFFFFFFFFFFFFFFFFFFFFFFFF AND PUSH20 0xFFFFFFFFFFFFFFFFFFFFFFFFFFFFFFFFFFFFFFFF AND DUP2 MSTORE PUSH1 0x20 ADD SWAP1 DUP2 MSTORE PUSH1 0x20 ADD PUSH0 KECCAK256 PUSH0 DUP3 DUP3 SLOAD PUSH2 0x5E9 SWAP2 SWAP1 PUSH2 0x21D0 JUMP JUMPDEST SWAP3 POP POP DUP2 SWAP1 SSTORE POP DUP3 PUSH1 0xD PUSH0 DUP8 PUSH20 0xFFFFFFFFFFFFFFFFFFFFFFFFFFFFFFFFFFFFFFFF AND PUSH20 0xFFFFFFFFFFFFFFFFFFFFFFFFFFFFFFFFFFFFFFFF AND DUP2 MSTORE PUSH1 0x20 ADD SWAP1 DUP2 MSTORE PUSH1 0x20 ADD PUSH0 KECCAK256 PUSH0 CALLER PUSH20 0xFFFFFFFFFFFFFFFFFFFFFFFFFFFFFFFFFFFFFFFF AND PUSH20 0xFFFFFFFFFFFFFFFFFFFFFFFFFFFFFFFFFFFFFFFF AND DUP2 MSTORE PUSH1 0x20 ADD SWAP1 DUP2 MSTORE PUSH1 0x20 ADD PUSH0 KECCAK256 PUSH0 DUP3 DUP3 SLOAD PUSH2 0x677 SWAP2 SWAP1 PUSH2 0x219D JUMP JUMPDEST SWAP3 POP POP DUP2 SWAP1 SSTORE POP PUSH1 0x40 MLOAD DUP1 PUSH1 0xA0 ADD PUSH1 0x40 MSTORE DUP1 DUP7 PUSH20 0xFFFFFFFFFFFFFFFFFFFFFFFFFFFFFFFFFFFFFFFF AND DUP2 MSTORE PUSH1 0x20 ADD DUP6 PUSH20 0xFFFFFFFFFFFFFFFFFFFFFFFFFFFFFFFFFFFFFFFF AND DUP2 MSTORE PUSH1 0x20 ADD DUP5 DUP2 MSTORE PUSH1 0x20 ADD DUP4 DUP2 MSTORE PUSH1 0x20 ADD TIMESTAMP DUP2 MSTORE POP PUSH1 0x6 PUSH0 DUP3 ADD MLOAD DUP2 PUSH0 ADD PUSH0 PUSH2 0x100 EXP DUP2 SLOAD DUP2 PUSH20 0xFFFFFFFFFFFFFFFFFFFFFFFFFFFFFFFFFFFFFFFF MUL NOT AND SWAP1 DUP4 PUSH20 0xFFFFFFFFFFFFFFFFFFFFFFFFFFFFFFFFFFFFFFFF AND MUL OR SWAP1 SSTORE POP PUSH1 0x20 DUP3 ADD MLOAD DUP2 PUSH1 0x1 ADD PUSH0 PUSH2 0x100 EXP DUP2 SLOAD DUP2 PUSH20 0xFFFFFFFFFFFFFFFFFFFFFFFFFFFFFFFFFFFFFFFF MUL NOT AND SWAP1 DUP4 PUSH20 0xFFFFFFFFFFFFFFFFFFFFFFFFFFFFFFFFFFFFFFFF AND MUL OR SWAP1 SSTORE POP PUSH1 0x40 DUP3 ADD MLOAD DUP2 PUSH1 0x2 ADD SSTORE PUSH1 0x60 DUP3 ADD MLOAD DUP2 PUSH1 0x3 ADD SWAP1 DUP2 PUSH2 0x77C SWAP2 SWAP1 PUSH2 0x23FD JUMP JUMPDEST POP PUSH1 0x80 DUP3 ADD MLOAD DUP2 PUSH1 0x4 ADD SSTORE SWAP1 POP POP PUSH1 0xB PUSH1 0x6 SWAP1 DUP1 PUSH1 0x1 DUP2 SLOAD ADD DUP1 DUP3 SSTORE DUP1 SWAP2 POP POP PUSH1 0x1 SWAP1 SUB SWAP1 PUSH0 MSTORE PUSH1 0x20 PUSH0 KECCAK256 SWAP1 PUSH1 0x5 MUL ADD PUSH0 SWAP1 SWAP2 SWAP1 SWAP2 SWAP1 SWAP2 POP PUSH0 DUP3 ADD PUSH0 SWAP1 SLOAD SWAP1 PUSH2 0x100 EXP SWAP1 DIV PUSH20 0xFFFFFFFFFFFFFFFFFFFFFFFFFFFFFFFFFFFFFFFF AND DUP2 PUSH0 ADD PUSH0 PUSH2 0x100 EXP DUP2 SLOAD DUP2 PUSH20 0xFFFFFFFFFFFFFFFFFFFFFFFFFFFFFFFFFFFFFFFF MUL NOT AND SWAP1 DUP4 PUSH20 0xFFFFFFFFFFFFFFFFFFFFFFFFFFFFFFFFFFFFFFFF AND MUL OR SWAP1 SSTORE POP PUSH1 0x1 DUP3 ADD PUSH0 SWAP1 SLOAD SWAP1 PUSH2 0x100 EXP SWAP1 DIV PUSH20 0xFFFFFFFFFFFFFFFFFFFFFFFFFFFFFFFFFFFFFFFF AND DUP2 PUSH1 0x1 ADD PUSH0 PUSH2 0x100 EXP DUP2 SLOAD DUP2 PUSH20 0xFFFFFFFFFFFFFFFFFFFFFFFFFFFFFFFFFFFFFFFF MUL NOT AND SWAP1 DUP4 PUSH20 0xFFFFFFFFFFFFFFFFFFFFFFFFFFFFFFFFFFFFFFFF AND MUL OR SWAP1 SSTORE POP PUSH1 0x2 DUP3 ADD SLOAD DUP2 PUSH1 0x2 ADD SSTORE PUSH1 0x3 DUP3 ADD DUP2 PUSH1 0x3 ADD SWAP1 DUP2 PUSH2 0x89A SWAP2 SWAP1 PUSH2 0x24E1 JUMP JUMPDEST POP PUSH1 0x4 DUP3 ADD SLOAD DUP2 PUSH1 0x4 ADD SSTORE POP POP DUP2 PUSH1 0x5 SWAP1 DUP2 PUSH2 0x8B6 SWAP2 SWAP1 PUSH2 0x23FD JUMP JUMPDEST POP DUP4 PUSH20 0xFFFFFFFFFFFFFFFFFFFFFFFFFFFFFFFFFFFFFFFF AND DUP6 PUSH20 0xFFFFFFFFFFFFFFFFFFFFFFFFFFFFFFFFFFFFFFFF AND PUSH32 0xCD6E659E4C2E75C3BFE47FECACCF39AEB368116A0EE52AFB532E07F6CBA6C0D1 DUP6 DUP6 PUSH1 0x40 MLOAD PUSH2 0x916 SWAP3 SWAP2 SWAP1 PUSH2 0x25C6 JUMP JUMPDEST PUSH1 0x40 MLOAD DUP1 SWAP2 SUB SWAP1 LOG3 DUP4 PUSH20 0xFFFFFFFFFFFFFFFFFFFFFFFFFFFFFFFFFFFFFFFF AND DUP6 PUSH20 0xFFFFFFFFFFFFFFFFFFFFFFFFFFFFFFFFFFFFFFFF AND PUSH32 0xE4DEDAC3A07F2356C44FC19D9395DB74F56297C32531D64263FF541ABB8EF461 DUP6 DUP6 PUSH1 0x40 MLOAD PUSH2 0x97D SWAP3 SWAP2 SWAP1 PUSH2 0x25C6 JUMP JUMPDEST PUSH1 0x40 MLOAD DUP1 SWAP2 SUB SWAP1 LOG3 CALLER PUSH20 0xFFFFFFFFFFFFFFFFFFFFFFFFFFFFFFFFFFFFFFFF AND PUSH32 0xD7FCCDA06D6EB51C23CBD16D49B9B3F3EBAFB002DBA1B074895CBB35D0E8130 DUP4 PUSH1 0x40 MLOAD PUSH2 0x9CB SWAP2 SWAP1 PUSH2 0x1D62 JUMP JUMPDEST PUSH1 0x40 MLOAD DUP1 SWAP2 SUB SWAP1 LOG2 PUSH1 0x1 SWAP1 POP SWAP5 SWAP4 POP POP POP POP JUMP JUMPDEST PUSH0 DUP1 SLOAD PUSH2 0x9EB SWAP1 PUSH2 0x2230 JUMP JUMPDEST DUP1 PUSH1 0x1F ADD PUSH1 0x20 DUP1 SWAP2 DIV MUL PUSH1 0x20 ADD PUSH1 0x40 MLOAD SWAP1 DUP2 ADD PUSH1 0x40 MSTORE DUP1 SWAP3 SWAP2 SWAP1 DUP2 DUP2 MSTORE PUSH1 0x20 ADD DUP3 DUP1 SLOAD PUSH2 0xA17 SWAP1 PUSH2 0x2230 JUMP JUMPDEST DUP1 ISZERO PUSH2 0xA62 JUMPI DUP1 PUSH1 0x1F LT PUSH2 0xA39 JUMPI PUSH2 0x100 DUP1 DUP4 SLOAD DIV MUL DUP4 MSTORE SWAP2 PUSH1 0x20 ADD SWAP2 PUSH2 0xA62 JUMP JUMPDEST DUP3 ADD SWAP2 SWAP1 PUSH0 MSTORE PUSH1 0x20 PUSH0 KECCAK256 SWAP1 JUMPDEST DUP2 SLOAD DUP2 MSTORE SWAP1 PUSH1 0x1 ADD SWAP1 PUSH1 0x20 ADD DUP1 DUP4 GT PUSH2 0xA45 JUMPI DUP3 SWAP1 SUB PUSH1 0x1F AND DUP3 ADD SWAP2 JUMPDEST POP POP POP POP POP DUP2 JUMP JUMPDEST PUSH0 DUP3 PUSH1 0xC PUSH0 CALLER PUSH20 0xFFFFFFFFFFFFFFFFFFFFFFFFFFFFFFFFFFFFFFFF AND PUSH20 0xFFFFFFFFFFFFFFFFFFFFFFFFFFFFFFFFFFFFFFFF AND DUP2 MSTORE PUSH1 0x20 ADD SWAP1 DUP2 MSTORE PUSH1 0x20 ADD PUSH0 KECCAK256 SLOAD LT ISZERO PUSH2 0xAEB JUMPI PUSH1 0x40 MLOAD PUSH32 0x8C379A000000000000000000000000000000000000000000000000000000000 DUP2 MSTORE PUSH1 0x4 ADD PUSH2 0xAE2 SWAP1 PUSH2 0x20EA JUMP JUMPDEST PUSH1 0x40 MLOAD DUP1 SWAP2 SUB SWAP1 REVERT JUMPDEST DUP3 PUSH1 0xC PUSH0 CALLER PUSH20 0xFFFFFFFFFFFFFFFFFFFFFFFFFFFFFFFFFFFFFFFF AND PUSH20 0xFFFFFFFFFFFFFFFFFFFFFFFFFFFFFFFFFFFFFFFF AND DUP2 MSTORE PUSH1 0x20 ADD SWAP1 DUP2 MSTORE PUSH1 0x20 ADD PUSH0 KECCAK256 PUSH0 DUP3 DUP3 SLOAD PUSH2 0xB37 SWAP2 SWAP1 PUSH2 0x219D JUMP JUMPDEST SWAP3 POP POP DUP2 SWAP1 SSTORE POP DUP3 PUSH1 0xC PUSH0 DUP7 PUSH20 0xFFFFFFFFFFFFFFFFFFFFFFFFFFFFFFFFFFFFFFFF AND PUSH20 0xFFFFFFFFFFFFFFFFFFFFFFFFFFFFFFFFFFFFFFFF AND DUP2 MSTORE PUSH1 0x20 ADD SWAP1 DUP2 MSTORE PUSH1 0x20 ADD PUSH0 KECCAK256 PUSH0 DUP3 DUP3 SLOAD PUSH2 0xB8A SWAP2 SWAP1 PUSH2 0x21D0 JUMP JUMPDEST SWAP3 POP POP DUP2 SWAP1 SSTORE POP PUSH1 0x40 MLOAD DUP1 PUSH1 0xA0 ADD PUSH1 0x40 MSTORE DUP1 CALLER PUSH20 0xFFFFFFFFFFFFFFFFFFFFFFFFFFFFFFFFFFFFFFFF AND DUP2 MSTORE PUSH1 0x20 ADD DUP6 PUSH20 0xFFFFFFFFFFFFFFFFFFFFFFFFFFFFFFFFFFFFFFFF AND DUP2 MSTORE PUSH1 0x20 ADD DUP5 DUP2 MSTORE PUSH1 0x20 ADD DUP4 DUP2 MSTORE PUSH1 0x20 ADD TIMESTAMP DUP2 MSTORE POP PUSH1 0x6 PUSH0 DUP3 ADD MLOAD DUP2 PUSH0 ADD PUSH0 PUSH2 0x100 EXP DUP2 SLOAD DUP2 PUSH20 0xFFFFFFFFFFFFFFFFFFFFFFFFFFFFFFFFFFFFFFFF MUL NOT AND SWAP1 DUP4 PUSH20 0xFFFFFFFFFFFFFFFFFFFFFFFFFFFFFFFFFFFFFFFF AND MUL OR SWAP1 SSTORE POP PUSH1 0x20 DUP3 ADD MLOAD DUP2 PUSH1 0x1 ADD PUSH0 PUSH2 0x100 EXP DUP2 SLOAD DUP2 PUSH20 0xFFFFFFFFFFFFFFFFFFFFFFFFFFFFFFFFFFFFFFFF MUL NOT AND SWAP1 DUP4 PUSH20 0xFFFFFFFFFFFFFFFFFFFFFFFFFFFFFFFFFFFFFFFF AND MUL OR SWAP1 SSTORE POP PUSH1 0x40 DUP3 ADD MLOAD DUP2 PUSH1 0x2 ADD SSTORE PUSH1 0x60 DUP3 ADD MLOAD DUP2 PUSH1 0x3 ADD SWAP1 DUP2 PUSH2 0xC8F SWAP2 SWAP1 PUSH2 0x23FD JUMP JUMPDEST POP PUSH1 0x80 DUP3 ADD MLOAD DUP2 PUSH1 0x4 ADD SSTORE SWAP1 POP POP PUSH1 0xB PUSH1 0x6 SWAP1 DUP1 PUSH1 0x1 DUP2 SLOAD ADD DUP1 DUP3 SSTORE DUP1 SWAP2 POP POP PUSH1 0x1 SWAP1 SUB SWAP1 PUSH0 MSTORE PUSH1 0x20 PUSH0 KECCAK256 SWAP1 PUSH1 0x5 MUL ADD PUSH0 SWAP1 SWAP2 SWAP1 SWAP2 SWAP1 SWAP2 POP PUSH0 DUP3 ADD PUSH0 SWAP1 SLOAD SWAP1 PUSH2 0x100 EXP SWAP1 DIV PUSH20 0xFFFFFFFFFFFFFFFFFFFFFFFFFFFFFFFFFFFFFFFF AND DUP2 PUSH0 ADD PUSH0 PUSH2 0x100 EXP DUP2 SLOAD DUP2 PUSH20 0xFFFFFFFFFFFFFFFFFFFFFFFFFFFFFFFFFFFFFFFF MUL NOT AND SWAP1 DUP4 PUSH20 0xFFFFFFFFFFFFFFFFFFFFFFFFFFFFFFFFFFFFFFFF AND MUL OR SWAP1 SSTORE POP PUSH1 0x1 DUP3 ADD PUSH0 SWAP1 SLOAD SWAP1 PUSH2 0x100 EXP SWAP1 DIV PUSH20 0xFFFFFFFFFFFFFFFFFFFFFFFFFFFFFFFFFFFFFFFF AND DUP2 PUSH1 0x1 ADD PUSH0 PUSH2 0x100 EXP DUP2 SLOAD DUP2 PUSH20 0xFFFFFFFFFFFFFFFFFFFFFFFFFFFFFFFFFFFFFFFF MUL NOT AND SWAP1 DUP4 PUSH20 0xFFFFFFFFFFFFFFFFFFFFFFFFFFFFFFFFFFFFFFFF AND MUL OR SWAP1 SSTORE POP PUSH1 0x2 DUP3 ADD SLOAD DUP2 PUSH1 0x2 ADD SSTORE PUSH1 0x3 DUP3 ADD DUP2 PUSH1 0x3 ADD SWAP1 DUP2 PUSH2 0xDAD SWAP2 SWAP1 PUSH2 0x24E1 JUMP JUMPDEST POP PUSH1 0x4 DUP3 ADD SLOAD DUP2 PUSH1 0x4 ADD SSTORE POP POP DUP2 PUSH1 0x5 SWAP1 DUP2 PUSH2 0xDC9 SWAP2 SWAP1 PUSH2 0x23FD JUMP JUMPDEST POP DUP4 PUSH20 0xFFFFFFFFFFFFFFFFFFFFFFFFFFFFFFFFFFFFFFFF AND CALLER PUSH20 0xFFFFFFFFFFFFFFFFFFFFFFFFFFFFFFFFFFFFFFFF AND PUSH32 0xCD6E659E4C2E75C3BFE47FECACCF39AEB368116A0EE52AFB532E07F6CBA6C0D1 DUP6 DUP6 PUSH1 0x40 MLOAD PUSH2 0xE29 SWAP3 SWAP2 SWAP1 PUSH2 0x25C6 JUMP JUMPDEST PUSH1 0x40 MLOAD DUP1 SWAP2 SUB SWAP1 LOG3 DUP4 PUSH20 0xFFFFFFFFFFFFFFFFFFFFFFFFFFFFFFFFFFFFFFFF AND CALLER PUSH20 0xFFFFFFFFFFFFFFFFFFFFFFFFFFFFFFFFFFFFFFFF AND PUSH32 0xE4DEDAC3A07F2356C44FC19D9395DB74F56297C32531D64263FF541ABB8EF461 DUP6 DUP6 PUSH1 0x40 MLOAD PUSH2 0xE90 SWAP3 SWAP2 SWAP1 PUSH2 0x25C6 JUMP JUMPDEST PUSH1 0x40 MLOAD DUP1 SWAP2 SUB SWAP1 LOG3 CALLER PUSH20 0xFFFFFFFFFFFFFFFFFFFFFFFFFFFFFFFFFFFFFFFF AND PUSH32 0xD7FCCDA06D6EB51C23CBD16D49B9B3F3EBAFB002DBA1B074895CBB35D0E8130 DUP4 PUSH1 0x40 MLOAD PUSH2 0xEDE SWAP2 SWAP1 PUSH2 0x1D62 JUMP JUMPDEST PUSH1 0x40 MLOAD DUP1 SWAP2 SUB SWAP1 LOG2 PUSH1 0x1 SWAP1 POP SWAP4 SWAP3 POP POP POP JUMP JUMPDEST PUSH0 DUP2 PUSH1 0xD PUSH0 CALLER PUSH20 0xFFFFFFFFFFFFFFFFFFFFFFFFFFFFFFFFFFFFFFFF AND PUSH20 0xFFFFFFFFFFFFFFFFFFFFFFFFFFFFFFFFFFFFFFFF AND DUP2 MSTORE PUSH1 0x20 ADD SWAP1 DUP2 MSTORE PUSH1 0x20 ADD PUSH0 KECCAK256 PUSH0 DUP6 PUSH20 0xFFFFFFFFFFFFFFFFFFFFFFFFFFFFFFFFFFFFFFFF AND PUSH20 0xFFFFFFFFFFFFFFFFFFFFFFFFFFFFFFFFFFFFFFFF AND DUP2 MSTORE PUSH1 0x20 ADD SWAP1 DUP2 MSTORE PUSH1 0x20 ADD PUSH0 KECCAK256 DUP2 SWAP1 SSTORE POP DUP3 PUSH20 0xFFFFFFFFFFFFFFFFFFFFFFFFFFFFFFFFFFFFFFFF AND CALLER PUSH20 0xFFFFFFFFFFFFFFFFFFFFFFFFFFFFFFFFFFFFFFFF AND PUSH32 0x8C5BE1E5EBEC7D5BD14F71427D1E84F3DD0314C0F7B2291E5B200AC8C7C3B925 DUP5 PUSH1 0x40 MLOAD PUSH2 0xFCC SWAP2 SWAP1 PUSH2 0x1E3B JUMP JUMPDEST PUSH1 0x40 MLOAD DUP1 SWAP2 SUB SWAP1 LOG3 PUSH1 0x1 SWAP1 POP SWAP3 SWAP2 POP POP JUMP JUMPDEST PUSH1 0x3 SLOAD DUP2 JUMP JUMPDEST PUSH0 DUP2 PUSH1 0xC PUSH0 DUP7 PUSH20 0xFFFFFFFFFFFFFFFFFFFFFFFFFFFFFFFFFFFFFFFF AND PUSH20 0xFFFFFFFFFFFFFFFFFFFFFFFFFFFFFFFFFFFFFFFF AND DUP2 MSTORE PUSH1 0x20 ADD SWAP1 DUP2 MSTORE PUSH1 0x20 ADD PUSH0 KECCAK256 SLOAD LT ISZERO PUSH2 0x1065 JUMPI PUSH1 0x40 MLOAD PUSH32 0x8C379A000000000000000000000000000000000000000000000000000000000 DUP2 MSTORE PUSH1 0x4 ADD PUSH2 0x105C SWAP1 PUSH2 0x20EA JUMP JUMPDEST PUSH1 0x40 MLOAD DUP1 SWAP2 SUB SWAP1 REVERT JUMPDEST DUP2 PUSH1 0xD PUSH0 DUP7 PUSH20 0xFFFFFFFFFFFFFFFFFFFFFFFFFFFFFFFFFFFFFFFF AND PUSH20 0xFFFFFFFFFFFFFFFFFFFFFFFFFFFFFFFFFFFFFFFF AND DUP2 MSTORE PUSH1 0x20 ADD SWAP1 DUP2 MSTORE PUSH1 0x20 ADD PUSH0 KECCAK256 PUSH0 CALLER PUSH20 0xFFFFFFFFFFFFFFFFFFFFFFFFFFFFFFFFFFFFFFFF AND PUSH20 0xFFFFFFFFFFFFFFFFFFFFFFFFFFFFFFFFFFFFFFFF AND DUP2 MSTORE PUSH1 0x20 ADD SWAP1 DUP2 MSTORE PUSH1 0x20 ADD PUSH0 KECCAK256 SLOAD LT ISZERO PUSH2 0x1120 JUMPI PUSH1 0x40 MLOAD PUSH32 0x8C379A000000000000000000000000000000000000000000000000000000000 DUP2 MSTORE PUSH1 0x4 ADD PUSH2 0x1117 SWAP1 PUSH2 0x2152 JUMP JUMPDEST PUSH1 0x40 MLOAD DUP1 SWAP2 SUB SWAP1 REVERT JUMPDEST DUP2 PUSH1 0xC PUSH0 DUP7 PUSH20 0xFFFFFFFFFFFFFFFFFFFFFFFFFFFFFFFFFFFFFFFF AND PUSH20 0xFFFFFFFFFFFFFFFFFFFFFFFFFFFFFFFFFFFFFFFF AND DUP2 MSTORE PUSH1 0x20 ADD SWAP1 DUP2 MSTORE PUSH1 0x20 ADD PUSH0 KECCAK256 PUSH0 DUP3 DUP3 SLOAD PUSH2 0x116C SWAP2 SWAP1 PUSH2 0x219D JUMP JUMPDEST SWAP3 POP POP DUP2 SWAP1 SSTORE POP DUP2 PUSH1 0xC PUSH0 DUP6 PUSH20 0xFFFFFFFFFFFFFFFFFFFFFFFFFFFFFFFFFFFFFFFF AND PUSH20 0xFFFFFFFFFFFFFFFFFFFFFFFFFFFFFFFFFFFFFFFF AND DUP2 MSTORE PUSH1 0x20 ADD SWAP1 DUP2 MSTORE PUSH1 0x20 ADD PUSH0 KECCAK256 PUSH0 DUP3 DUP3 SLOAD PUSH2 0x11BF SWAP2 SWAP1 PUSH2 0x21D0 JUMP JUMPDEST SWAP3 POP POP DUP2 SWAP1 SSTORE POP DUP2 PUSH1 0xD PUSH0 DUP7 PUSH20 0xFFFFFFFFFFFFFFFFFFFFFFFFFFFFFFFFFFFFFFFF AND PUSH20 0xFFFFFFFFFFFFFFFFFFFFFFFFFFFFFFFFFFFFFFFF AND DUP2 MSTORE PUSH1 0x20 ADD SWAP1 DUP2 MSTORE PUSH1 0x20 ADD PUSH0 KECCAK256 PUSH0 CALLER PUSH20 0xFFFFFFFFFFFFFFFFFFFFFFFFFFFFFFFFFFFFFFFF AND PUSH20 0xFFFFFFFFFFFFFFFFFFFFFFFFFFFFFFFFFFFFFFFF AND DUP2 MSTORE PUSH1 0x20 ADD SWAP1 DUP2 MSTORE PUSH1 0x20 ADD PUSH0 KECCAK256 PUSH0 DUP3 DUP3 SLOAD PUSH2 0x124D SWAP2 SWAP1 PUSH2 0x219D JUMP JUMPDEST SWAP3 POP POP DUP2 SWAP1 SSTORE POP DUP3 PUSH20 0xFFFFFFFFFFFFFFFFFFFFFFFFFFFFFFFFFFFFFFFF AND DUP5 PUSH20 0xFFFFFFFFFFFFFFFFFFFFFFFFFFFFFFFFFFFFFFFF AND PUSH32 0xCD6E659E4C2E75C3BFE47FECACCF39AEB368116A0EE52AFB532E07F6CBA6C0D1 DUP5 PUSH1 0x40 MLOAD PUSH2 0x12B1 SWAP2 SWAP1 PUSH2 0x2617 JUMP JUMPDEST PUSH1 0x40 MLOAD DUP1 SWAP2 SUB SWAP1 LOG3 PUSH1 0x1 SWAP1 POP SWAP4 SWAP3 POP POP POP JUMP JUMPDEST PUSH1 0x2 PUSH0 SWAP1 SLOAD SWAP1 PUSH2 0x100 EXP SWAP1 DIV PUSH1 0xFF AND DUP2 JUMP JUMPDEST DUP1 PUSH1 0x5 SWAP1 DUP2 PUSH2 0x12E5 SWAP2 SWAP1 PUSH2 0x23FD JUMP JUMPDEST POP CALLER PUSH20 0xFFFFFFFFFFFFFFFFFFFFFFFFFFFFFFFFFFFFFFFF AND PUSH32 0xD7FCCDA06D6EB51C23CBD16D49B9B3F3EBAFB002DBA1B074895CBB35D0E8130 DUP3 PUSH1 0x40 MLOAD PUSH2 0x132C SWAP2 SWAP1 PUSH2 0x1D62 JUMP JUMPDEST PUSH1 0x40 MLOAD DUP1 SWAP2 SUB SWAP1 LOG2 POP JUMP JUMPDEST PUSH1 0x60 PUSH1 0x5 DUP1 SLOAD PUSH2 0x1346 SWAP1 PUSH2 0x2230 JUMP JUMPDEST DUP1 PUSH1 0x1F ADD PUSH1 0x20 DUP1 SWAP2 DIV MUL PUSH1 0x20 ADD PUSH1 0x40 MLOAD SWAP1 DUP2 ADD PUSH1 0x40 MSTORE DUP1 SWAP3 SWAP2 SWAP1 DUP2 DUP2 MSTORE PUSH1 0x20 ADD DUP3 DUP1 SLOAD PUSH2 0x1372 SWAP1 PUSH2 0x2230 JUMP JUMPDEST DUP1 ISZERO PUSH2 0x13BD JUMPI DUP1 PUSH1 0x1F LT PUSH2 0x1394 JUMPI PUSH2 0x100 DUP1 DUP4 SLOAD DIV MUL DUP4 MSTORE SWAP2 PUSH1 0x20 ADD SWAP2 PUSH2 0x13BD JUMP JUMPDEST DUP3 ADD SWAP2 SWAP1 PUSH0 MSTORE PUSH1 0x20 PUSH0 KECCAK256 SWAP1 JUMPDEST DUP2 SLOAD DUP2 MSTORE SWAP1 PUSH1 0x1 ADD SWAP1 PUSH1 0x20 ADD DUP1 DUP4 GT PUSH2 0x13A0 JUMPI DUP3 SWAP1 SUB PUSH1 0x1F AND DUP3 ADD SWAP2 JUMPDEST POP POP POP POP POP SWAP1 POP SWAP1 JUMP JUMPDEST PUSH1 0x60 PUSH0 DUP1 PUSH0 PUSH1 0x60 PUSH0 PUSH1 0x5 PUSH1 0x6 PUSH0 ADD PUSH0 SWAP1 SLOAD SWAP1 PUSH2 0x100 EXP SWAP1 DIV PUSH20 0xFFFFFFFFFFFFFFFFFFFFFFFFFFFFFFFFFFFFFFFF AND PUSH1 0x6 PUSH1 0x1 ADD PUSH0 SWAP1 SLOAD SWAP1 PUSH2 0x100 EXP SWAP1 DIV PUSH20 0xFFFFFFFFFFFFFFFFFFFFFFFFFFFFFFFFFFFFFFFF AND PUSH1 0x6 PUSH1 0x2 ADD SLOAD PUSH1 0x6 PUSH1 0x3 ADD PUSH1 0x6 PUSH1 0x4 ADD SLOAD DUP6 DUP1 SLOAD PUSH2 0x1437 SWAP1 PUSH2 0x2230 JUMP JUMPDEST DUP1 PUSH1 0x1F ADD PUSH1 0x20 DUP1 SWAP2 DIV MUL PUSH1 0x20 ADD PUSH1 0x40 MLOAD SWAP1 DUP2 ADD PUSH1 0x40 MSTORE DUP1 SWAP3 SWAP2 SWAP1 DUP2 DUP2 MSTORE PUSH1 0x20 ADD DUP3 DUP1 SLOAD PUSH2 0x1463 SWAP1 PUSH2 0x2230 JUMP JUMPDEST DUP1 ISZERO PUSH2 0x14AE JUMPI DUP1 PUSH1 0x1F LT PUSH2 0x1485 JUMPI PUSH2 0x100 DUP1 DUP4 SLOAD DIV MUL DUP4 MSTORE SWAP2 PUSH1 0x20 ADD SWAP2 PUSH2 0x14AE JUMP JUMPDEST DUP3 ADD SWAP2 SWAP1 PUSH0 MSTORE PUSH1 0x20 PUSH0 KECCAK256 SWAP1 JUMPDEST DUP2 SLOAD DUP2 MSTORE SWAP1 PUSH1 0x1 ADD SWAP1 PUSH1 0x20 ADD DUP1 DUP4 GT PUSH2 0x1491 JUMPI DUP3 SWAP1 SUB PUSH1 0x1F AND DUP3 ADD SWAP2 JUMPDEST POP POP POP POP POP SWAP6 POP DUP2 DUP1 SLOAD PUSH2 0x14C1 SWAP1 PUSH2 0x2230 JUMP JUMPDEST DUP1 PUSH1 0x1F ADD PUSH1 0x20 DUP1 SWAP2 DIV MUL PUSH1 0x20 ADD PUSH1 0x40 MLOAD SWAP1 DUP2 ADD PUSH1 0x40 MSTORE DUP1 SWAP3 SWAP2 SWAP1 DUP2 DUP2 MSTORE PUSH1 0x20 ADD DUP3 DUP1 SLOAD PUSH2 0x14ED SWAP1 PUSH2 0x2230 JUMP JUMPDEST DUP1 ISZERO PUSH2 0x1538 JUMPI DUP1 PUSH1 0x1F LT PUSH2 0x150F JUMPI PUSH2 0x100 DUP1 DUP4 SLOAD DIV MUL DUP4 MSTORE SWAP2 PUSH1 0x20 ADD SWAP2 PUSH2 0x1538 JUMP JUMPDEST DUP3 ADD SWAP2 SWAP1 PUSH0 MSTORE PUSH1 0x20 PUSH0 KECCAK256 SWAP1 JUMPDEST DUP2 SLOAD DUP2 MSTORE SWAP1 PUSH1 0x1 ADD SWAP1 PUSH1 0x20 ADD DUP1 DUP4 GT PUSH2 0x151B JUMPI DUP3 SWAP1 SUB PUSH1 0x1F AND DUP3 ADD SWAP2 JUMPDEST POP POP POP POP POP SWAP2 POP SWAP6 POP SWAP6 POP SWAP6 POP SWAP6 POP SWAP6 POP SWAP6 POP SWAP1 SWAP2 SWAP3 SWAP4 SWAP5 SWAP6 JUMP JUMPDEST PUSH0 PUSH1 0xB DUP1 SLOAD SWAP1 POP SWAP1 POP SWAP1 JUMP JUMPDEST PUSH1 0xC PUSH1 0x20 MSTORE DUP1 PUSH0 MSTORE PUSH1 0x40 PUSH0 KECCAK256 PUSH0 SWAP2 POP SWAP1 POP SLOAD DUP2 JUMP JUMPDEST PUSH0 DUP1 PUSH0 PUSH1 0x60 PUSH0 PUSH1 0xB DUP1 SLOAD SWAP1 POP DUP7 LT PUSH2 0x15C1 JUMPI PUSH1 0x40 MLOAD PUSH32 0x8C379A000000000000000000000000000000000000000000000000000000000 DUP2 MSTORE PUSH1 0x4 ADD PUSH2 0x15B8 SWAP1 PUSH2 0x268D JUMP JUMPDEST PUSH1 0x40 MLOAD DUP1 SWAP2 SUB SWAP1 REVERT JUMPDEST PUSH0 PUSH1 0xB DUP8 DUP2 SLOAD DUP2 LT PUSH2 0x15D6 JUMPI PUSH2 0x15D5 PUSH2 0x26AB JUMP JUMPDEST JUMPDEST SWAP1 PUSH0 MSTORE PUSH1 0x20 PUSH0 KECCAK256 SWAP1 PUSH1 0x5 MUL ADD PUSH1 0x40 MLOAD DUP1 PUSH1 0xA0 ADD PUSH1 0x40 MSTORE SWAP1 DUP2 PUSH0 DUP3 ADD PUSH0 SWAP1 SLOAD SWAP1 PUSH2 0x100 EXP SWAP1 DIV PUSH20 0xFFFFFFFFFFFFFFFFFFFFFFFFFFFFFFFFFFFFFFFF AND PUSH20 0xFFFFFFFFFFFFFFFFFFFFFFFFFFFFFFFFFFFFFFFF AND PUSH20 0xFFFFFFFFFFFFFFFFFFFFFFFFFFFFFFFFFFFFFFFF AND DUP2 MSTORE PUSH1 0x20 ADD PUSH1 0x1 DUP3 ADD PUSH0 SWAP1 SLOAD SWAP1 PUSH2 0x100 EXP SWAP1 DIV PUSH20 0xFFFFFFFFFFFFFFFFFFFFFFFFFFFFFFFFFFFFFFFF AND PUSH20 0xFFFFFFFFFFFFFFFFFFFFFFFFFFFFFFFFFFFFFFFF AND PUSH20 0xFFFFFFFFFFFFFFFFFFFFFFFFFFFFFFFFFFFFFFFF AND DUP2 MSTORE PUSH1 0x20 ADD PUSH1 0x2 DUP3 ADD SLOAD DUP2 MSTORE PUSH1 0x20 ADD PUSH1 0x3 DUP3 ADD DUP1 SLOAD PUSH2 0x16B0 SWAP1 PUSH2 0x2230 JUMP JUMPDEST DUP1 PUSH1 0x1F ADD PUSH1 0x20 DUP1 SWAP2 DIV MUL PUSH1 0x20 ADD PUSH1 0x40 MLOAD SWAP1 DUP2 ADD PUSH1 0x40 MSTORE DUP1 SWAP3 SWAP2 SWAP1 DUP2 DUP2 MSTORE PUSH1 0x20 ADD DUP3 DUP1 SLOAD PUSH2 0x16DC SWAP1 PUSH2 0x2230 JUMP JUMPDEST DUP1 ISZERO PUSH2 0x1727 JUMPI DUP1 PUSH1 0x1F LT PUSH2 0x16FE JUMPI PUSH2 0x100 DUP1 DUP4 SLOAD DIV MUL DUP4 MSTORE SWAP2 PUSH1 0x20 ADD SWAP2 PUSH2 0x1727 JUMP JUMPDEST DUP3 ADD SWAP2 SWAP1 PUSH0 MSTORE PUSH1 0x20 PUSH0 KECCAK256 SWAP1 JUMPDEST DUP2 SLOAD DUP2 MSTORE SWAP1 PUSH1 0x1 ADD SWAP1 PUSH1 0x20 ADD DUP1 DUP4 GT PUSH2 0x170A JUMPI DUP3 SWAP1 SUB PUSH1 0x1F AND DUP3 ADD SWAP2 JUMPDEST POP POP POP POP POP DUP2 MSTORE PUSH1 0x20 ADD PUSH1 0x4 DUP3 ADD SLOAD DUP2 MSTORE POP POP SWAP1 POP DUP1 PUSH0 ADD MLOAD DUP2 PUSH1 0x20 ADD MLOAD DUP3 PUSH1 0x40 ADD MLOAD DUP4 PUSH1 0x60 ADD MLOAD DUP5 PUSH1 0x80 ADD MLOAD SWAP6 POP SWAP6 POP SWAP6 POP SWAP6 POP SWAP6 POP POP SWAP2 SWAP4 SWAP6 SWAP1 SWAP3 SWAP5 POP JUMP JUMPDEST PUSH1 0xB DUP2 DUP2 SLOAD DUP2 LT PUSH2 0x1777 JUMPI PUSH0 DUP1 REVERT JUMPDEST SWAP1 PUSH0 MSTORE PUSH1 0x20 PUSH0 KECCAK256 SWAP1 PUSH1 0x5 MUL ADD PUSH0 SWAP2 POP SWAP1 POP DUP1 PUSH0 ADD PUSH0 SWAP1 SLOAD SWAP1 PUSH2 0x100 EXP SWAP1 DIV PUSH20 0xFFFFFFFFFFFFFFFFFFFFFFFFFFFFFFFFFFFFFFFF AND SWAP1 DUP1 PUSH1 0x1 ADD PUSH0 SWAP1 SLOAD SWAP1 PUSH2 0x100 EXP SWAP1 DIV PUSH20 0xFFFFFFFFFFFFFFFFFFFFFFFFFFFFFFFFFFFFFFFF AND SWAP1 DUP1 PUSH1 0x2 ADD SLOAD SWAP1 DUP1 PUSH1 0x3 ADD DUP1 SLOAD PUSH2 0x17E6 SWAP1 PUSH2 0x2230 JUMP JUMPDEST DUP1 PUSH1 0x1F ADD PUSH1 0x20 DUP1 SWAP2 DIV MUL PUSH1 0x20 ADD PUSH1 0x40 MLOAD SWAP1 DUP2 ADD PUSH1 0x40 MSTORE DUP1 SWAP3 SWAP2 SWAP1 DUP2 DUP2 MSTORE PUSH1 0x20 ADD DUP3 DUP1 SLOAD PUSH2 0x1812 SWAP1 PUSH2 0x2230 JUMP JUMPDEST DUP1 ISZERO PUSH2 0x185D JUMPI DUP1 PUSH1 0x1F LT PUSH2 0x1834 JUMPI PUSH2 0x100 DUP1 DUP4 SLOAD DIV MUL DUP4 MSTORE SWAP2 PUSH1 0x20 ADD SWAP2 PUSH2 0x185D JUMP JUMPDEST DUP3 ADD SWAP2 SWAP1 PUSH0 MSTORE PUSH1 0x20 PUSH0 KECCAK256 SWAP1 JUMPDEST DUP2 SLOAD DUP2 MSTORE SWAP1 PUSH1 0x1 ADD SWAP1 PUSH1 0x20 ADD DUP1 DUP4 GT PUSH2 0x1840 JUMPI DUP3 SWAP1 SUB PUSH1 0x1F AND DUP3 ADD SWAP2 JUMPDEST POP POP POP POP POP SWAP1 DUP1 PUSH1 0x4 ADD SLOAD SWAP1 POP DUP6 JUMP JUMPDEST PUSH1 0x4 PUSH0 SWAP1 SLOAD SWAP1 PUSH2 0x100 EXP SWAP1 DIV PUSH20 0xFFFFFFFFFFFFFFFFFFFFFFFFFFFFFFFFFFFFFFFF AND DUP2 JUMP JUMPDEST PUSH1 0x1 DUP1 SLOAD PUSH2 0x189F SWAP1 PUSH2 0x2230 JUMP JUMPDEST DUP1 PUSH1 0x1F ADD PUSH1 0x20 DUP1 SWAP2 DIV MUL PUSH1 0x20 ADD PUSH1 0x40 MLOAD SWAP1 DUP2 ADD PUSH1 0x40 MSTORE DUP1 SWAP3 SWAP2 SWAP1 DUP2 DUP2 MSTORE PUSH1 0x20 ADD DUP3 DUP1 SLOAD PUSH2 0x18CB SWAP1 PUSH2 0x2230 JUMP JUMPDEST DUP1 ISZERO PUSH2 0x1916 JUMPI DUP1 PUSH1 0x1F LT PUSH2 0x18ED JUMPI PUSH2 0x100 DUP1 DUP4 SLOAD DIV MUL DUP4 MSTORE SWAP2 PUSH1 0x20 ADD SWAP2 PUSH2 0x1916 JUMP JUMPDEST DUP3 ADD SWAP2 SWAP1 PUSH0 MSTORE PUSH1 0x20 PUSH0 KECCAK256 SWAP1 JUMPDEST DUP2 SLOAD DUP2 MSTORE SWAP1 PUSH1 0x1 ADD SWAP1 PUSH1 0x20 ADD DUP1 DUP4 GT PUSH2 0x18F9 JUMPI DUP3 SWAP1 SUB PUSH1 0x1F AND DUP3 ADD SWAP2 JUMPDEST POP POP POP POP POP DUP2 JUMP JUMPDEST PUSH0 PUSH2 0x1938 DUP4 DUP4 PUSH1 0x40 MLOAD DUP1 PUSH1 0x20 ADD PUSH1 0x40 MSTORE DUP1 PUSH0 DUP2 MSTORE POP PUSH2 0xA6A JUMP JUMPDEST SWAP1 POP SWAP3 SWAP2 POP POP JUMP JUMPDEST PUSH0 DUP1 PUSH0 PUSH1 0x60 PUSH0 PUSH1 0x6 PUSH0 ADD PUSH0 SWAP1 SLOAD SWAP1 PUSH2 0x100 EXP SWAP1 DIV PUSH20 0xFFFFFFFFFFFFFFFFFFFFFFFFFFFFFFFFFFFFFFFF AND PUSH1 0x6 PUSH1 0x1 ADD PUSH0 SWAP1 SLOAD SWAP1 PUSH2 0x100 EXP SWAP1 DIV PUSH20 0xFFFFFFFFFFFFFFFFFFFFFFFFFFFFFFFFFFFFFFFF AND PUSH1 0x6 PUSH1 0x2 ADD SLOAD PUSH1 0x6 PUSH1 0x3 ADD PUSH1 0x6 PUSH1 0x4 ADD SLOAD DUP2 DUP1 SLOAD PUSH2 0x19AC SWAP1 PUSH2 0x2230 JUMP JUMPDEST DUP1 PUSH1 0x1F ADD PUSH1 0x20 DUP1 SWAP2 DIV MUL PUSH1 0x20 ADD PUSH1 0x40 MLOAD SWAP1 DUP2 ADD PUSH1 0x40 MSTORE DUP1 SWAP3 SWAP2 SWAP1 DUP2 DUP2 MSTORE PUSH1 0x20 ADD DUP3 DUP1 SLOAD PUSH2 0x19D8 SWAP1 PUSH2 0x2230 JUMP JUMPDEST DUP1 ISZERO PUSH2 0x1A23 JUMPI DUP1 PUSH1 0x1F LT PUSH2 0x19FA JUMPI PUSH2 0x100 DUP1 DUP4 SLOAD DIV MUL DUP4 MSTORE SWAP2 PUSH1 0x20 ADD SWAP2 PUSH2 0x1A23 JUMP JUMPDEST DUP3 ADD SWAP2 SWAP1 PUSH0 MSTORE PUSH1 0x20 PUSH0 KECCAK256 SWAP1 JUMPDEST DUP2 SLOAD DUP2 MSTORE SWAP1 PUSH1 0x1 ADD SWAP1 PUSH1 0x20 ADD DUP1 DUP4 GT PUSH2 0x1A06 JUMPI DUP3 SWAP1 SUB PUSH1 0x1F AND DUP3 ADD SWAP2 JUMPDEST POP POP POP POP POP SWAP2 POP SWAP5 POP SWAP5 POP SWAP5 POP SWAP5 POP SWAP5 POP SWAP1 SWAP2 SWAP3 SWAP4 SWAP5 JUMP JUMPDEST PUSH1 0xD PUSH1 0x20 MSTORE DUP2 PUSH0 MSTORE PUSH1 0x40 PUSH0 KECCAK256 PUSH1 0x20 MSTORE DUP1 PUSH0 MSTORE PUSH1 0x40 PUSH0 KECCAK256 PUSH0 SWAP2 POP SWAP2 POP POP SLOAD DUP2 JUMP JUMPDEST PUSH0 PUSH1 0x40 MLOAD SWAP1 POP SWAP1 JUMP JUMPDEST PUSH0 DUP1 REVERT JUMPDEST PUSH0 DUP1 REVERT JUMPDEST PUSH0 PUSH20 0xFFFFFFFFFFFFFFFFFFFFFFFFFFFFFFFFFFFFFFFF DUP3 AND SWAP1 POP SWAP2 SWAP1 POP JUMP JUMPDEST PUSH0 PUSH2 0x1A95 DUP3 PUSH2 0x1A6C JUMP JUMPDEST SWAP1 POP SWAP2 SWAP1 POP JUMP JUMPDEST PUSH2 0x1AA5 DUP2 PUSH2 0x1A8B JUMP JUMPDEST DUP2 EQ PUSH2 0x1AAF JUMPI PUSH0 DUP1 REVERT JUMPDEST POP JUMP JUMPDEST PUSH0 DUP2 CALLDATALOAD SWAP1 POP PUSH2 0x1AC0 DUP2 PUSH2 0x1A9C JUMP JUMPDEST SWAP3 SWAP2 POP POP JUMP JUMPDEST PUSH0 DUP2 SWAP1 POP SWAP2 SWAP1 POP JUMP JUMPDEST PUSH2 0x1AD8 DUP2 PUSH2 0x1AC6 JUMP JUMPDEST DUP2 EQ PUSH2 0x1AE2 JUMPI PUSH0 DUP1 REVERT JUMPDEST POP JUMP JUMPDEST PUSH0 DUP2 CALLDATALOAD SWAP1 POP PUSH2 0x1AF3 DUP2 PUSH2 0x1ACF JUMP JUMPDEST SWAP3 SWAP2 POP POP JUMP JUMPDEST PUSH0 DUP1 REVERT JUMPDEST PUSH0 DUP1 REVERT JUMPDEST PUSH0 PUSH1 0x1F NOT PUSH1 0x1F DUP4 ADD AND SWAP1 POP SWAP2 SWAP1 POP JUMP JUMPDEST PUSH32 0x4E487B7100000000000000000000000000000000000000000000000000000000 PUSH0 MSTORE PUSH1 0x41 PUSH1 0x4 MSTORE PUSH1 0x24 PUSH0 REVERT JUMPDEST PUSH2 0x1B47 DUP3 PUSH2 0x1B01 JUMP JUMPDEST DUP2 ADD DUP2 DUP2 LT PUSH8 0xFFFFFFFFFFFFFFFF DUP3 GT OR ISZERO PUSH2 0x1B66 JUMPI PUSH2 0x1B65 PUSH2 0x1B11 JUMP JUMPDEST JUMPDEST DUP1 PUSH1 0x40 MSTORE POP POP POP JUMP JUMPDEST PUSH0 PUSH2 0x1B78 PUSH2 0x1A5B JUMP JUMPDEST SWAP1 POP PUSH2 0x1B84 DUP3 DUP3 PUSH2 0x1B3E JUMP JUMPDEST SWAP2 SWAP1 POP JUMP JUMPDEST PUSH0 PUSH8 0xFFFFFFFFFFFFFFFF DUP3 GT ISZERO PUSH2 0x1BA3 JUMPI PUSH2 0x1BA2 PUSH2 0x1B11 JUMP JUMPDEST JUMPDEST PUSH2 0x1BAC DUP3 PUSH2 0x1B01 JUMP JUMPDEST SWAP1 POP PUSH1 0x20 DUP2 ADD SWAP1 POP SWAP2 SWAP1 POP JUMP JUMPDEST DUP3 DUP2 DUP4 CALLDATACOPY PUSH0 DUP4 DUP4 ADD MSTORE POP POP POP JUMP JUMPDEST PUSH0 PUSH2 0x1BD9 PUSH2 0x1BD4 DUP5 PUSH2 0x1B89 JUMP JUMPDEST PUSH2 0x1B6F JUMP JUMPDEST SWAP1 POP DUP3 DUP2 MSTORE PUSH1 0x20 DUP2 ADD DUP5 DUP5 DUP5 ADD GT ISZERO PUSH2 0x1BF5 JUMPI PUSH2 0x1BF4 PUSH2 0x1AFD JUMP JUMPDEST JUMPDEST PUSH2 0x1C00 DUP5 DUP3 DUP6 PUSH2 0x1BB9 JUMP JUMPDEST POP SWAP4 SWAP3 POP POP POP JUMP JUMPDEST PUSH0 DUP3 PUSH1 0x1F DUP4 ADD SLT PUSH2 0x1C1C JUMPI PUSH2 0x1C1B PUSH2 0x1AF9 JUMP JUMPDEST JUMPDEST DUP2 CALLDATALOAD PUSH2 0x1C2C DUP5 DUP3 PUSH1 0x20 DUP7 ADD PUSH2 0x1BC7 JUMP JUMPDEST SWAP2 POP POP SWAP3 SWAP2 POP POP JUMP JUMPDEST PUSH0 DUP1 PUSH0 DUP1 PUSH1 0x80 DUP6 DUP8 SUB SLT ISZERO PUSH2 0x1C4D JUMPI PUSH2 0x1C4C PUSH2 0x1A64 JUMP JUMPDEST JUMPDEST PUSH0 PUSH2 0x1C5A DUP8 DUP3 DUP9 ADD PUSH2 0x1AB2 JUMP JUMPDEST SWAP5 POP POP PUSH1 0x20 PUSH2 0x1C6B DUP8 DUP3 DUP9 ADD PUSH2 0x1AB2 JUMP JUMPDEST SWAP4 POP POP PUSH1 0x40 PUSH2 0x1C7C DUP8 DUP3 DUP9 ADD PUSH2 0x1AE5 JUMP JUMPDEST SWAP3 POP POP PUSH1 0x60 DUP6 ADD CALLDATALOAD PUSH8 0xFFFFFFFFFFFFFFFF DUP2 GT ISZERO PUSH2 0x1C9D JUMPI PUSH2 0x1C9C PUSH2 0x1A68 JUMP JUMPDEST JUMPDEST PUSH2 0x1CA9 DUP8 DUP3 DUP9 ADD PUSH2 0x1C08 JUMP JUMPDEST SWAP2 POP POP SWAP3 SWAP6 SWAP2 SWAP5 POP SWAP3 POP JUMP JUMPDEST PUSH0 DUP2 ISZERO ISZERO SWAP1 POP SWAP2 SWAP1 POP JUMP JUMPDEST PUSH2 0x1CC9 DUP2 PUSH2 0x1CB5 JUMP JUMPDEST DUP3 MSTORE POP POP JUMP JUMPDEST PUSH0 PUSH1 0x20 DUP3 ADD SWAP1 POP PUSH2 0x1CE2 PUSH0 DUP4 ADD DUP5 PUSH2 0x1CC0 JUMP JUMPDEST SWAP3 SWAP2 POP POP JUMP JUMPDEST PUSH0 DUP2 MLOAD SWAP1 POP SWAP2 SWAP1 POP JUMP JUMPDEST PUSH0 DUP3 DUP3 MSTORE PUSH1 0x20 DUP3 ADD SWAP1 POP SWAP3 SWAP2 POP POP JUMP JUMPDEST PUSH0 JUMPDEST DUP4 DUP2 LT ISZERO PUSH2 0x1D1F JUMPI DUP1 DUP3 ADD MLOAD DUP2 DUP5 ADD MSTORE PUSH1 0x20 DUP2 ADD SWAP1 POP PUSH2 0x1D04 JUMP JUMPDEST PUSH0 DUP5 DUP5 ADD MSTORE POP POP POP POP JUMP JUMPDEST PUSH0 PUSH2 0x1D34 DUP3 PUSH2 0x1CE8 JUMP JUMPDEST PUSH2 0x1D3E DUP2 DUP6 PUSH2 0x1CF2 JUMP JUMPDEST SWAP4 POP PUSH2 0x1D4E DUP2 DUP6 PUSH1 0x20 DUP7 ADD PUSH2 0x1D02 JUMP JUMPDEST PUSH2 0x1D57 DUP2 PUSH2 0x1B01 JUMP JUMPDEST DUP5 ADD SWAP2 POP POP SWAP3 SWAP2 POP POP JUMP JUMPDEST PUSH0 PUSH1 0x20 DUP3 ADD SWAP1 POP DUP2 DUP2 SUB PUSH0 DUP4 ADD MSTORE PUSH2 0x1D7A DUP2 DUP5 PUSH2 0x1D2A JUMP JUMPDEST SWAP1 POP SWAP3 SWAP2 POP POP JUMP JUMPDEST PUSH0 DUP1 PUSH0 PUSH1 0x60 DUP5 DUP7 SUB SLT ISZERO PUSH2 0x1D99 JUMPI PUSH2 0x1D98 PUSH2 0x1A64 JUMP JUMPDEST JUMPDEST PUSH0 PUSH2 0x1DA6 DUP7 DUP3 DUP8 ADD PUSH2 0x1AB2 JUMP JUMPDEST SWAP4 POP POP PUSH1 0x20 PUSH2 0x1DB7 DUP7 DUP3 DUP8 ADD PUSH2 0x1AE5 JUMP JUMPDEST SWAP3 POP POP PUSH1 0x40 DUP5 ADD CALLDATALOAD PUSH8 0xFFFFFFFFFFFFFFFF DUP2 GT ISZERO PUSH2 0x1DD8 JUMPI PUSH2 0x1DD7 PUSH2 0x1A68 JUMP JUMPDEST JUMPDEST PUSH2 0x1DE4 DUP7 DUP3 DUP8 ADD PUSH2 0x1C08 JUMP JUMPDEST SWAP2 POP POP SWAP3 POP SWAP3 POP SWAP3 JUMP JUMPDEST PUSH0 DUP1 PUSH1 0x40 DUP4 DUP6 SUB SLT ISZERO PUSH2 0x1E04 JUMPI PUSH2 0x1E03 PUSH2 0x1A64 JUMP JUMPDEST JUMPDEST PUSH0 PUSH2 0x1E11 DUP6 DUP3 DUP7 ADD PUSH2 0x1AB2 JUMP JUMPDEST SWAP3 POP POP PUSH1 0x20 PUSH2 0x1E22 DUP6 DUP3 DUP7 ADD PUSH2 0x1AE5 JUMP JUMPDEST SWAP2 POP POP SWAP3 POP SWAP3 SWAP1 POP JUMP JUMPDEST PUSH2 0x1E35 DUP2 PUSH2 0x1AC6 JUMP JUMPDEST DUP3 MSTORE POP POP JUMP JUMPDEST PUSH0 PUSH1 0x20 DUP3 ADD SWAP1 POP PUSH2 0x1E4E PUSH0 DUP4 ADD DUP5 PUSH2 0x1E2C JUMP JUMPDEST SWAP3 SWAP2 POP POP JUMP JUMPDEST PUSH0 DUP1 PUSH0 PUSH1 0x60 DUP5 DUP7 SUB SLT ISZERO PUSH2 0x1E6B JUMPI PUSH2 0x1E6A PUSH2 0x1A64 JUMP JUMPDEST JUMPDEST PUSH0 PUSH2 0x1E78 DUP7 DUP3 DUP8 ADD PUSH2 0x1AB2 JUMP JUMPDEST SWAP4 POP POP PUSH1 0x20 PUSH2 0x1E89 DUP7 DUP3 DUP8 ADD PUSH2 0x1AB2 JUMP JUMPDEST SWAP3 POP POP PUSH1 0x40 PUSH2 0x1E9A DUP7 DUP3 DUP8 ADD PUSH2 0x1AE5 JUMP JUMPDEST SWAP2 POP POP SWAP3 POP SWAP3 POP SWAP3 JUMP JUMPDEST PUSH0 PUSH1 0xFF DUP3 AND SWAP1 POP SWAP2 SWAP1 POP JUMP JUMPDEST PUSH2 0x1EB9 DUP2 PUSH2 0x1EA4 JUMP JUMPDEST DUP3 MSTORE POP POP JUMP JUMPDEST PUSH0 PUSH1 0x20 DUP3 ADD SWAP1 POP PUSH2 0x1ED2 PUSH0 DUP4 ADD DUP5 PUSH2 0x1EB0 JUMP JUMPDEST SWAP3 SWAP2 POP POP JUMP JUMPDEST PUSH0 PUSH1 0x20 DUP3 DUP5 SUB SLT ISZERO PUSH2 0x1EED JUMPI PUSH2 0x1EEC PUSH2 0x1A64 JUMP JUMPDEST JUMPDEST PUSH0 DUP3 ADD CALLDATALOAD PUSH8 0xFFFFFFFFFFFFFFFF DUP2 GT ISZERO PUSH2 0x1F0A JUMPI PUSH2 0x1F09 PUSH2 0x1A68 JUMP JUMPDEST JUMPDEST PUSH2 0x1F16 DUP5 DUP3 DUP6 ADD PUSH2 0x1C08 JUMP JUMPDEST SWAP2 POP POP SWAP3 SWAP2 POP POP JUMP JUMPDEST PUSH2 0x1F28 DUP2 PUSH2 0x1A8B JUMP JUMPDEST DUP3 MSTORE POP POP JUMP JUMPDEST PUSH0 PUSH1 0xC0 DUP3 ADD SWAP1 POP DUP2 DUP2 SUB PUSH0 DUP4 ADD MSTORE PUSH2 0x1F46 DUP2 DUP10 PUSH2 0x1D2A JUMP JUMPDEST SWAP1 POP PUSH2 0x1F55 PUSH1 0x20 DUP4 ADD DUP9 PUSH2 0x1F1F JUMP JUMPDEST PUSH2 0x1F62 PUSH1 0x40 DUP4 ADD DUP8 PUSH2 0x1F1F JUMP JUMPDEST PUSH2 0x1F6F PUSH1 0x60 DUP4 ADD DUP7 PUSH2 0x1E2C JUMP JUMPDEST DUP2 DUP2 SUB PUSH1 0x80 DUP4 ADD MSTORE PUSH2 0x1F81 DUP2 DUP6 PUSH2 0x1D2A JUMP JUMPDEST SWAP1 POP PUSH2 0x1F90 PUSH1 0xA0 DUP4 ADD DUP5 PUSH2 0x1E2C JUMP JUMPDEST SWAP8 SWAP7 POP POP POP POP POP POP POP JUMP JUMPDEST PUSH0 PUSH1 0x20 DUP3 DUP5 SUB SLT ISZERO PUSH2 0x1FB0 JUMPI PUSH2 0x1FAF PUSH2 0x1A64 JUMP JUMPDEST JUMPDEST PUSH0 PUSH2 0x1FBD DUP5 DUP3 DUP6 ADD PUSH2 0x1AB2 JUMP JUMPDEST SWAP2 POP POP SWAP3 SWAP2 POP POP JUMP JUMPDEST PUSH0 PUSH1 0x20 DUP3 DUP5 SUB SLT ISZERO PUSH2 0x1FDB JUMPI PUSH2 0x1FDA PUSH2 0x1A64 JUMP JUMPDEST JUMPDEST PUSH0 PUSH2 0x1FE8 DUP5 DUP3 DUP6 ADD PUSH2 0x1AE5 JUMP JUMPDEST SWAP2 POP POP SWAP3 SWAP2 POP POP JUMP JUMPDEST PUSH0 PUSH1 0xA0 DUP3 ADD SWAP1 POP PUSH2 0x2004 PUSH0 DUP4 ADD DUP9 PUSH2 0x1F1F JUMP JUMPDEST PUSH2 0x2011 PUSH1 0x20 DUP4 ADD DUP8 PUSH2 0x1F1F JUMP JUMPDEST PUSH2 0x201E PUSH1 0x40 DUP4 ADD DUP7 PUSH2 0x1E2C JUMP JUMPDEST DUP2 DUP2 SUB PUSH1 0x60 DUP4 ADD MSTORE PUSH2 0x2030 DUP2 DUP6 PUSH2 0x1D2A JUMP JUMPDEST SWAP1 POP PUSH2 0x203F PUSH1 0x80 DUP4 ADD DUP5 PUSH2 0x1E2C JUMP JUMPDEST SWAP7 SWAP6 POP POP POP POP POP POP JUMP JUMPDEST PUSH0 PUSH1 0x20 DUP3 ADD SWAP1 POP PUSH2 0x205C PUSH0 DUP4 ADD DUP5 PUSH2 0x1F1F JUMP JUMPDEST SWAP3 SWAP2 POP POP JUMP JUMPDEST PUSH0 DUP1 PUSH1 0x40 DUP4 DUP6 SUB SLT ISZERO PUSH2 0x2078 JUMPI PUSH2 0x2077 PUSH2 0x1A64 JUMP JUMPDEST JUMPDEST PUSH0 PUSH2 0x2085 DUP6 DUP3 DUP7 ADD PUSH2 0x1AB2 JUMP JUMPDEST SWAP3 POP POP PUSH1 0x20 PUSH2 0x2096 DUP6 DUP3 DUP7 ADD PUSH2 0x1AB2 JUMP JUMPDEST SWAP2 POP POP SWAP3 POP SWAP3 SWAP1 POP JUMP JUMPDEST PUSH32 0x4E6F7420656E6F7567682062616C616E63650000000000000000000000000000 PUSH0 DUP3 ADD MSTORE POP JUMP JUMPDEST PUSH0 PUSH2 0x20D4 PUSH1 0x12 DUP4 PUSH2 0x1CF2 JUMP JUMPDEST SWAP2 POP PUSH2 0x20DF DUP3 PUSH2 0x20A0 JUMP JUMPDEST PUSH1 0x20 DUP3 ADD SWAP1 POP SWAP2 SWAP1 POP JUMP JUMPDEST PUSH0 PUSH1 0x20 DUP3 ADD SWAP1 POP DUP2 DUP2 SUB PUSH0 DUP4 ADD MSTORE PUSH2 0x2101 DUP2 PUSH2 0x20C8 JUMP JUMPDEST SWAP1 POP SWAP2 SWAP1 POP JUMP JUMPDEST PUSH32 0x416C6C6F77616E636520746F6F206C6F77000000000000000000000000000000 PUSH0 DUP3 ADD MSTORE POP JUMP JUMPDEST PUSH0 PUSH2 0x213C PUSH1 0x11 DUP4 PUSH2 0x1CF2 JUMP JUMPDEST SWAP2 POP PUSH2 0x2147 DUP3 PUSH2 0x2108 JUMP JUMPDEST PUSH1 0x20 DUP3 ADD SWAP1 POP SWAP2 SWAP1 POP JUMP JUMPDEST PUSH0 PUSH1 0x20 DUP3 ADD SWAP1 POP DUP2 DUP2 SUB PUSH0 DUP4 ADD MSTORE PUSH2 0x2169 DUP2 PUSH2 0x2130 JUMP JUMPDEST SWAP1 POP SWAP2 SWAP1 POP JUMP JUMPDEST PUSH32 0x4E487B7100000000000000000000000000000000000000000000000000000000 PUSH0 MSTORE PUSH1 0x11 PUSH1 0x4 MSTORE PUSH1 0x24 PUSH0 REVERT JUMPDEST PUSH0 PUSH2 0x21A7 DUP3 PUSH2 0x1AC6 JUMP JUMPDEST SWAP2 POP PUSH2 0x21B2 DUP4 PUSH2 0x1AC6 JUMP JUMPDEST SWAP3 POP DUP3 DUP3 SUB SWAP1 POP DUP2 DUP2 GT ISZERO PUSH2 0x21CA JUMPI PUSH2 0x21C9 PUSH2 0x2170 JUMP JUMPDEST JUMPDEST SWAP3 SWAP2 POP POP JUMP JUMPDEST PUSH0 PUSH2 0x21DA DUP3 PUSH2 0x1AC6 JUMP JUMPDEST SWAP2 POP PUSH2 0x21E5 DUP4 PUSH2 0x1AC6 JUMP JUMPDEST SWAP3 POP DUP3 DUP3 ADD SWAP1 POP DUP1 DUP3 GT ISZERO PUSH2 0x21FD JUMPI PUSH2 0x21FC PUSH2 0x2170 JUMP JUMPDEST JUMPDEST SWAP3 SWAP2 POP POP JUMP JUMPDEST PUSH32 0x4E487B7100000000000000000000000000000000000000000000000000000000 PUSH0 MSTORE PUSH1 0x22 PUSH1 0x4 MSTORE PUSH1 0x24 PUSH0 REVERT JUMPDEST PUSH0 PUSH1 0x2 DUP3 DIV SWAP1 POP PUSH1 0x1 DUP3 AND DUP1 PUSH2 0x2247 JUMPI PUSH1 0x7F DUP3 AND SWAP2 POP JUMPDEST PUSH1 0x20 DUP3 LT DUP2 SUB PUSH2 0x225A JUMPI PUSH2 0x2259 PUSH2 0x2203 JUMP JUMPDEST JUMPDEST POP SWAP2 SWAP1 POP JUMP JUMPDEST PUSH0 DUP2 SWAP1 POP DUP2 PUSH0 MSTORE PUSH1 0x20 PUSH0 KECCAK256 SWAP1 POP SWAP2 SWAP1 POP JUMP JUMPDEST PUSH0 PUSH1 0x20 PUSH1 0x1F DUP4 ADD DIV SWAP1 POP SWAP2 SWAP1 POP JUMP JUMPDEST PUSH0 DUP3 DUP3 SHL SWAP1 POP SWAP3 SWAP2 POP POP JUMP JUMPDEST PUSH0 PUSH1 0x8 DUP4 MUL PUSH2 0x22BC PUSH32 0xFFFFFFFFFFFFFFFFFFFFFFFFFFFFFFFFFFFFFFFFFFFFFFFFFFFFFFFFFFFFFFFF DUP3 PUSH2 0x2281 JUMP JUMPDEST PUSH2 0x22C6 DUP7 DUP4 PUSH2 0x2281 JUMP JUMPDEST SWAP6 POP DUP1 NOT DUP5 AND SWAP4 POP DUP1 DUP7 AND DUP5 OR SWAP3 POP POP POP SWAP4 SWAP3 POP POP POP JUMP JUMPDEST PUSH0 DUP2 SWAP1 POP SWAP2 SWAP1 POP JUMP JUMPDEST PUSH0 PUSH2 0x2301 PUSH2 0x22FC PUSH2 0x22F7 DUP5 PUSH2 0x1AC6 JUMP JUMPDEST PUSH2 0x22DE JUMP JUMPDEST PUSH2 0x1AC6 JUMP JUMPDEST SWAP1 POP SWAP2 SWAP1 POP JUMP JUMPDEST PUSH0 DUP2 SWAP1 POP SWAP2 SWAP1 POP JUMP JUMPDEST PUSH2 0x231A DUP4 PUSH2 0x22E7 JUMP JUMPDEST PUSH2 0x232E PUSH2 0x2326 DUP3 PUSH2 0x2308 JUMP JUMPDEST DUP5 DUP5 SLOAD PUSH2 0x228D JUMP JUMPDEST DUP3 SSTORE POP POP POP POP JUMP JUMPDEST PUSH0 SWAP1 JUMP JUMPDEST PUSH2 0x2342 PUSH2 0x2336 JUMP JUMPDEST PUSH2 0x234D DUP2 DUP5 DUP5 PUSH2 0x2311 JUMP JUMPDEST POP POP POP JUMP JUMPDEST JUMPDEST DUP2 DUP2 LT ISZERO PUSH2 0x2370 JUMPI PUSH2 0x2365 PUSH0 DUP3 PUSH2 0x233A JUMP JUMPDEST PUSH1 0x1 DUP2 ADD SWAP1 POP PUSH2 0x2353 JUMP JUMPDEST POP POP JUMP JUMPDEST PUSH1 0x1F DUP3 GT ISZERO PUSH2 0x23B5 JUMPI PUSH2 0x2386 DUP2 PUSH2 0x2260 JUMP JUMPDEST PUSH2 0x238F DUP5 PUSH2 0x2272 JUMP JUMPDEST DUP2 ADD PUSH1 0x20 DUP6 LT ISZERO PUSH2 0x239E JUMPI DUP2 SWAP1 POP JUMPDEST PUSH2 0x23B2 PUSH2 0x23AA DUP6 PUSH2 0x2272 JUMP JUMPDEST DUP4 ADD DUP3 PUSH2 0x2352 JUMP JUMPDEST POP POP JUMPDEST POP POP POP JUMP JUMPDEST PUSH0 DUP3 DUP3 SHR SWAP1 POP SWAP3 SWAP2 POP POP JUMP JUMPDEST PUSH0 PUSH2 0x23D5 PUSH0 NOT DUP5 PUSH1 0x8 MUL PUSH2 0x23BA JUMP JUMPDEST NOT DUP1 DUP4 AND SWAP2 POP POP SWAP3 SWAP2 POP POP JUMP JUMPDEST PUSH0 PUSH2 0x23ED DUP4 DUP4 PUSH2 0x23C6 JUMP JUMPDEST SWAP2 POP DUP3 PUSH1 0x2 MUL DUP3 OR SWAP1 POP SWAP3 SWAP2 POP POP JUMP JUMPDEST PUSH2 0x2406 DUP3 PUSH2 0x1CE8 JUMP JUMPDEST PUSH8 0xFFFFFFFFFFFFFFFF DUP2 GT ISZERO PUSH2 0x241F JUMPI PUSH2 0x241E PUSH2 0x1B11 JUMP JUMPDEST JUMPDEST PUSH2 0x2429 DUP3 SLOAD PUSH2 0x2230 JUMP JUMPDEST PUSH2 0x2434 DUP3 DUP3 DUP6 PUSH2 0x2374 JUMP JUMPDEST PUSH0 PUSH1 0x20 SWAP1 POP PUSH1 0x1F DUP4 GT PUSH1 0x1 DUP2 EQ PUSH2 0x2465 JUMPI PUSH0 DUP5 ISZERO PUSH2 0x2453 JUMPI DUP3 DUP8 ADD MLOAD SWAP1 POP JUMPDEST PUSH2 0x245D DUP6 DUP3 PUSH2 0x23E2 JUMP JUMPDEST DUP7 SSTORE POP PUSH2 0x24C4 JUMP JUMPDEST PUSH1 0x1F NOT DUP5 AND PUSH2 0x2473 DUP7 PUSH2 0x2260 JUMP JUMPDEST PUSH0 JUMPDEST DUP3 DUP2 LT ISZERO PUSH2 0x249A JUMPI DUP5 DUP10 ADD MLOAD DUP3 SSTORE PUSH1 0x1 DUP3 ADD SWAP2 POP PUSH1 0x20 DUP6 ADD SWAP5 POP PUSH1 0x20 DUP2 ADD SWAP1 POP PUSH2 0x2475 JUMP JUMPDEST DUP7 DUP4 LT ISZERO PUSH2 0x24B7 JUMPI DUP5 DUP10 ADD MLOAD PUSH2 0x24B3 PUSH1 0x1F DUP10 AND DUP3 PUSH2 0x23C6 JUMP JUMPDEST DUP4 SSTORE POP JUMPDEST PUSH1 0x1 PUSH1 0x2 DUP9 MUL ADD DUP9 SSTORE POP POP POP JUMPDEST POP POP POP POP POP POP JUMP JUMPDEST PUSH0 DUP2 SLOAD SWAP1 POP PUSH2 0x24DA DUP2 PUSH2 0x2230 JUMP JUMPDEST SWAP1 POP SWAP2 SWAP1 POP JUMP JUMPDEST DUP2 DUP2 SUB PUSH2 0x24EF JUMPI POP POP PUSH2 0x25C4 JUMP JUMPDEST PUSH2 0x24F8 DUP3 PUSH2 0x24CC JUMP JUMPDEST PUSH8 0xFFFFFFFFFFFFFFFF DUP2 GT ISZERO PUSH2 0x2511 JUMPI PUSH2 0x2510 PUSH2 0x1B11 JUMP JUMPDEST JUMPDEST PUSH2 0x251B DUP3 SLOAD PUSH2 0x2230 JUMP JUMPDEST PUSH2 0x2526 DUP3 DUP3 DUP6 PUSH2 0x2374 JUMP JUMPDEST PUSH0 PUSH1 0x1F DUP4 GT PUSH1 0x1 DUP2 EQ PUSH2 0x2553 JUMPI PUSH0 DUP5 ISZERO PUSH2 0x2541 JUMPI DUP3 DUP8 ADD SLOAD SWAP1 POP JUMPDEST PUSH2 0x254B DUP6 DUP3 PUSH2 0x23E2 JUMP JUMPDEST DUP7 SSTORE POP PUSH2 0x25BD JUMP JUMPDEST PUSH1 0x1F NOT DUP5 AND PUSH2 0x2561 DUP8 PUSH2 0x2260 JUMP JUMPDEST SWAP7 POP PUSH2 0x256C DUP7 PUSH2 0x2260 JUMP JUMPDEST PUSH0 JUMPDEST DUP3 DUP2 LT ISZERO PUSH2 0x2593 JUMPI DUP5 DUP10 ADD SLOAD DUP3 SSTORE PUSH1 0x1 DUP3 ADD SWAP2 POP PUSH1 0x1 DUP6 ADD SWAP5 POP PUSH1 0x20 DUP2 ADD SWAP1 POP PUSH2 0x256E JUMP JUMPDEST DUP7 DUP4 LT ISZERO PUSH2 0x25B0 JUMPI DUP5 DUP10 ADD SLOAD PUSH2 0x25AC PUSH1 0x1F DUP10 AND DUP3 PUSH2 0x23C6 JUMP JUMPDEST DUP4 SSTORE POP JUMPDEST PUSH1 0x1 PUSH1 0x2 DUP9 MUL ADD DUP9 SSTORE POP POP POP JUMPDEST POP POP POP POP POP POP JUMPDEST JUMP JUMPDEST PUSH0 PUSH1 0x40 DUP3 ADD SWAP1 POP PUSH2 0x25D9 PUSH0 DUP4 ADD DUP6 PUSH2 0x1E2C JUMP JUMPDEST DUP2 DUP2 SUB PUSH1 0x20 DUP4 ADD MSTORE PUSH2 0x25EB DUP2 DUP5 PUSH2 0x1D2A JUMP JUMPDEST SWAP1 POP SWAP4 SWAP3 POP POP POP JUMP JUMPDEST POP JUMP JUMPDEST PUSH0 PUSH2 0x2602 PUSH0 DUP4 PUSH2 0x1CF2 JUMP JUMPDEST SWAP2 POP PUSH2 0x260D DUP3 PUSH2 0x25F4 JUMP JUMPDEST PUSH0 DUP3 ADD SWAP1 POP SWAP2 SWAP1 POP JUMP JUMPDEST PUSH0 PUSH1 0x40 DUP3 ADD SWAP1 POP PUSH2 0x262A PUSH0 DUP4 ADD DUP5 PUSH2 0x1E2C JUMP JUMPDEST DUP2 DUP2 SUB PUSH1 0x20 DUP4 ADD MSTORE PUSH2 0x263B DUP2 PUSH2 0x25F7 JUMP JUMPDEST SWAP1 POP SWAP3 SWAP2 POP POP JUMP JUMPDEST PUSH32 0x496E646578206F7574206F6620626F756E647300000000000000000000000000 PUSH0 DUP3 ADD MSTORE POP JUMP JUMPDEST PUSH0 PUSH2 0x2677 PUSH1 0x13 DUP4 PUSH2 0x1CF2 JUMP JUMPDEST SWAP2 POP PUSH2 0x2682 DUP3 PUSH2 0x2643 JUMP JUMPDEST PUSH1 0x20 DUP3 ADD SWAP1 POP SWAP2 SWAP1 POP JUMP JUMPDEST PUSH0 PUSH1 0x20 DUP3 ADD SWAP1 POP DUP2 DUP2 SUB PUSH0 DUP4 ADD MSTORE PUSH2 0x26A4 DUP2 PUSH2 0x266B JUMP JUMPDEST SWAP1 POP SWAP2 SWAP1 POP JUMP JUMPDEST PUSH32 0x4E487B7100000000000000000000000000000000000000000000000000000000 PUSH0 MSTORE PUSH1 0x32 PUSH1 0x4 MSTORE PUSH1 0x24 PUSH0 REVERT INVALID LOG2 PUSH5 0x6970667358 0x22 SLT KECCAK256 PUSH20 0xE9876636ADAB49BBB4CB85CCB86C44471354FA12 MUL 0xEA EXTCODEHASH 0xD7 SUB 0x2D 0xBB 0x4D 0x2B 0xD1 0x22 PUSH5 0x736F6C6343 STOP ADDMOD ISZERO STOP CALLER "
				},
				"gasEstimates": {
					"creation": {
						"codeDepositCost": "1999600",
						"executionCost": "infinite",
						"totalCost": "infinite"
					},
					"external": {
						"allowance(address,address)": "infinite",
						"approve(address,uint256)": "infinite",
						"balanceOf(address)": "2869",
						"decimals()": "2533",
						"getLastMessage()": "infinite",
						"getLastMessageAndTransfer()": "infinite",
						"getLastTransferWithMessage()": "infinite",
						"getTransferHistoryCount()": "2485",
						"getTransferWithMessage(uint256)": "infinite",
						"name()": "infinite",
						"owner()": "2530",
						"sendMessage(string)": "infinite",
						"symbol()": "infinite",
						"totalSupply()": "2448",
						"transfer(address,uint256)": "infinite",
						"transferFrom(address,address,uint256)": "infinite",
						"transferFromWithMessage(address,address,uint256,string)": "infinite",
						"transferHistory(uint256)": "infinite",
						"transferWithMessage(address,uint256,string)": "infinite"
					}
				},
				"methodIdentifiers": {
					"allowance(address,address)": "dd62ed3e",
					"approve(address,uint256)": "095ea7b3",
					"balanceOf(address)": "70a08231",
					"decimals()": "313ce567",
					"getLastMessage()": "526bf76e",
					"getLastMessageAndTransfer()": "57f8a100",
					"getLastTransferWithMessage()": "d0d28fc2",
					"getTransferHistoryCount()": "5c52265b",
					"getTransferWithMessage(uint256)": "71aa85f6",
					"name()": "06fdde03",
					"owner()": "8da5cb5b",
					"sendMessage(string)": "469c8110",
					"symbol()": "95d89b41",
					"totalSupply()": "18160ddd",
					"transfer(address,uint256)": "a9059cbb",
					"transferFrom(address,address,uint256)": "23b872dd",
					"transferFromWithMessage(address,address,uint256,string)": "03dd05a7",
					"transferHistory(uint256)": "816c99de",
					"transferWithMessage(address,uint256,string)": "0818f44b"
				}
			},
			"storageLayout": {
				"storage": [
					{
						"astId": 4,
						"contract": "MyToken.sol:MyToken",
						"label": "name",
						"offset": 0,
						"slot": "0",
						"type": "t_string_storage"
					},
					{
						"astId": 7,
						"contract": "MyToken.sol:MyToken",
						"label": "symbol",
						"offset": 0,
						"slot": "1",
						"type": "t_string_storage"
					},
					{
						"astId": 10,
						"contract": "MyToken.sol:MyToken",
						"label": "decimals",
						"offset": 0,
						"slot": "2",
						"type": "t_uint8"
					},
					{
						"astId": 12,
						"contract": "MyToken.sol:MyToken",
						"label": "totalSupply",
						"offset": 0,
						"slot": "3",
						"type": "t_uint256"
					},
					{
						"astId": 14,
						"contract": "MyToken.sol:MyToken",
						"label": "owner",
						"offset": 0,
						"slot": "4",
						"type": "t_address"
					},
					{
						"astId": 16,
						"contract": "MyToken.sol:MyToken",
						"label": "lastMessage",
						"offset": 0,
						"slot": "5",
						"type": "t_string_storage"
					},
					{
						"astId": 30,
						"contract": "MyToken.sol:MyToken",
						"label": "lastTransferWithMessage",
						"offset": 0,
						"slot": "6",
						"type": "t_struct(TransferWithMessage)27_storage"
					},
					{
						"astId": 34,
						"contract": "MyToken.sol:MyToken",
						"label": "transferHistory",
						"offset": 0,
						"slot": "11",
						"type": "t_array(t_struct(TransferWithMessage)27_storage)dyn_storage"
					},
					{
						"astId": 38,
						"contract": "MyToken.sol:MyToken",
						"label": "balanceOf",
						"offset": 0,
						"slot": "12",
						"type": "t_mapping(t_address,t_uint256)"
					},
					{
						"astId": 44,
						"contract": "MyToken.sol:MyToken",
						"label": "allowance",
						"offset": 0,
						"slot": "13",
						"type": "t_mapping(t_address,t_mapping(t_address,t_uint256))"
					}
				],
				"types": {
					"t_address": {
						"encoding": "inplace",
						"label": "address",
						"numberOfBytes": "20"
					},
					"t_array(t_struct(TransferWithMessage)27_storage)dyn_storage": {
						"base": "t_struct(TransferWithMessage)27_storage",
						"encoding": "dynamic_array",
						"label": "struct MyToken.TransferWithMessage[]",
						"numberOfBytes": "32"
					},
					"t_mapping(t_address,t_mapping(t_address,t_uint256))": {
						"encoding": "mapping",
						"key": "t_address",
						"label": "mapping(address => mapping(address => uint256))",
						"numberOfBytes": "32",
						"value": "t_mapping(t_address,t_uint256)"
					},
					"t_mapping(t_address,t_uint256)": {
						"encoding": "mapping",
						"key": "t_address",
						"label": "mapping(address => uint256)",
						"numberOfBytes": "32",
						"value": "t_uint256"
					},
					"t_string_storage": {
						"encoding": "bytes",
						"label": "string",
						"numberOfBytes": "32"
					},
					"t_struct(TransferWithMessage)27_storage": {
						"encoding": "inplace",
						"label": "struct MyToken.TransferWithMessage",
						"members": [
							{
								"astId": 18,
								"contract": "MyToken.sol:MyToken",
								"label": "from",
								"offset": 0,
								"slot": "0",
								"type": "t_address"
							},
							{
								"astId": 20,
								"contract": "MyToken.sol:MyToken",
								"label": "to",
								"offset": 0,
								"slot": "1",
								"type": "t_address"
							},
							{
								"astId": 22,
								"contract": "MyToken.sol:MyToken",
								"label": "amount",
								"offset": 0,
								"slot": "2",
								"type": "t_uint256"
							},
							{
								"astId": 24,
								"contract": "MyToken.sol:MyToken",
								"label": "message",
								"offset": 0,
								"slot": "3",
								"type": "t_string_storage"
							},
							{
								"astId": 26,
								"contract": "MyToken.sol:MyToken",
								"label": "timestamp",
								"offset": 0,
								"slot": "4",
								"type": "t_uint256"
							}
						],
						"numberOfBytes": "160"
					},
					"t_uint256": {
						"encoding": "inplace",
						"label": "uint256",
						"numberOfBytes": "32"
					},
					"t_uint8": {
						"encoding": "inplace",
						"label": "uint8",
						"numberOfBytes": "1"
					}
				}
			},
			"userdoc": {
				"kind": "user",
				"methods": {},
				"version": 1
			}
		}
	}
}